{
  "_format": "hh-sol-artifact-1",
  "contractName": "SpeedBurn",
  "sourceName": "contracts/SpeedBurn.sol",
  "abi": [
    {
      "inputs": [
        {
          "internalType": "address",
          "name": "initialOwner",
          "type": "address"
        },
        {
          "internalType": "string[]",
          "name": "_constitution",
          "type": "string[]"
        }
      ],
      "stateMutability": "nonpayable",
      "type": "constructor"
    },
    {
      "inputs": [],
      "name": "CheckpointUnorderedInsertion",
      "type": "error"
    },
    {
      "inputs": [],
      "name": "ECDSAInvalidSignature",
      "type": "error"
    },
    {
      "inputs": [
        {
          "internalType": "uint256",
          "name": "length",
          "type": "uint256"
        }
      ],
      "name": "ECDSAInvalidSignatureLength",
      "type": "error"
    },
    {
      "inputs": [
        {
          "internalType": "bytes32",
          "name": "s",
          "type": "bytes32"
        }
      ],
      "name": "ECDSAInvalidSignatureS",
      "type": "error"
    },
    {
      "inputs": [
        {
          "internalType": "uint256",
          "name": "timepoint",
          "type": "uint256"
        },
        {
          "internalType": "uint48",
          "name": "clock",
          "type": "uint48"
        }
      ],
      "name": "ERC5805FutureLookup",
      "type": "error"
    },
    {
      "inputs": [],
      "name": "ERC6372InconsistentClock",
      "type": "error"
    },
    {
      "inputs": [],
      "name": "ERC721EnumerableForbiddenBatchMint",
      "type": "error"
    },
    {
      "inputs": [
        {
          "internalType": "address",
          "name": "sender",
          "type": "address"
        },
        {
          "internalType": "uint256",
          "name": "tokenId",
          "type": "uint256"
        },
        {
          "internalType": "address",
          "name": "owner",
          "type": "address"
        }
      ],
      "name": "ERC721IncorrectOwner",
      "type": "error"
    },
    {
      "inputs": [
        {
          "internalType": "address",
          "name": "operator",
          "type": "address"
        },
        {
          "internalType": "uint256",
          "name": "tokenId",
          "type": "uint256"
        }
      ],
      "name": "ERC721InsufficientApproval",
      "type": "error"
    },
    {
      "inputs": [
        {
          "internalType": "address",
          "name": "approver",
          "type": "address"
        }
      ],
      "name": "ERC721InvalidApprover",
      "type": "error"
    },
    {
      "inputs": [
        {
          "internalType": "address",
          "name": "operator",
          "type": "address"
        }
      ],
      "name": "ERC721InvalidOperator",
      "type": "error"
    },
    {
      "inputs": [
        {
          "internalType": "address",
          "name": "owner",
          "type": "address"
        }
      ],
      "name": "ERC721InvalidOwner",
      "type": "error"
    },
    {
      "inputs": [
        {
          "internalType": "address",
          "name": "receiver",
          "type": "address"
        }
      ],
      "name": "ERC721InvalidReceiver",
      "type": "error"
    },
    {
      "inputs": [
        {
          "internalType": "address",
          "name": "sender",
          "type": "address"
        }
      ],
      "name": "ERC721InvalidSender",
      "type": "error"
    },
    {
      "inputs": [
        {
          "internalType": "uint256",
          "name": "tokenId",
          "type": "uint256"
        }
      ],
      "name": "ERC721NonexistentToken",
      "type": "error"
    },
    {
      "inputs": [
        {
          "internalType": "address",
          "name": "owner",
          "type": "address"
        },
        {
          "internalType": "uint256",
          "name": "index",
          "type": "uint256"
        }
      ],
      "name": "ERC721OutOfBoundsIndex",
      "type": "error"
    },
    {
      "inputs": [
        {
          "internalType": "address",
          "name": "account",
          "type": "address"
        },
        {
          "internalType": "uint256",
          "name": "currentNonce",
          "type": "uint256"
        }
      ],
      "name": "InvalidAccountNonce",
      "type": "error"
    },
    {
      "inputs": [],
      "name": "InvalidShortString",
      "type": "error"
    },
    {
      "inputs": [
        {
          "internalType": "address",
          "name": "owner",
          "type": "address"
        }
      ],
      "name": "OwnableInvalidOwner",
      "type": "error"
    },
    {
      "inputs": [
        {
          "internalType": "address",
          "name": "account",
          "type": "address"
        }
      ],
      "name": "OwnableUnauthorizedAccount",
      "type": "error"
    },
    {
      "inputs": [
        {
          "internalType": "uint8",
          "name": "bits",
          "type": "uint8"
        },
        {
          "internalType": "uint256",
          "name": "value",
          "type": "uint256"
        }
      ],
      "name": "SafeCastOverflowedUintDowncast",
      "type": "error"
    },
    {
      "inputs": [
        {
          "internalType": "string",
          "name": "str",
          "type": "string"
        }
      ],
      "name": "StringTooLong",
      "type": "error"
    },
    {
      "inputs": [
        {
          "internalType": "uint256",
          "name": "expiry",
          "type": "uint256"
        }
      ],
      "name": "VotesExpiredSignature",
      "type": "error"
    },
    {
      "anonymous": false,
      "inputs": [
        {
          "indexed": true,
          "internalType": "address",
          "name": "owner",
          "type": "address"
        },
        {
          "indexed": true,
          "internalType": "address",
          "name": "approved",
          "type": "address"
        },
        {
          "indexed": true,
          "internalType": "uint256",
          "name": "tokenId",
          "type": "uint256"
        }
      ],
      "name": "Approval",
      "type": "event"
    },
    {
      "anonymous": false,
      "inputs": [
        {
          "indexed": true,
          "internalType": "address",
          "name": "owner",
          "type": "address"
        },
        {
          "indexed": true,
          "internalType": "address",
          "name": "operator",
          "type": "address"
        },
        {
          "indexed": false,
          "internalType": "bool",
          "name": "approved",
          "type": "bool"
        }
      ],
      "name": "ApprovalForAll",
      "type": "event"
    },
    {
      "anonymous": false,
      "inputs": [
        {
          "indexed": true,
          "internalType": "address",
          "name": "delegator",
          "type": "address"
        },
        {
          "indexed": true,
          "internalType": "address",
          "name": "fromDelegate",
          "type": "address"
        },
        {
          "indexed": true,
          "internalType": "address",
          "name": "toDelegate",
          "type": "address"
        }
      ],
      "name": "DelegateChanged",
      "type": "event"
    },
    {
      "anonymous": false,
      "inputs": [
        {
          "indexed": true,
          "internalType": "address",
          "name": "delegate",
          "type": "address"
        },
        {
          "indexed": false,
          "internalType": "uint256",
          "name": "previousVotes",
          "type": "uint256"
        },
        {
          "indexed": false,
          "internalType": "uint256",
          "name": "newVotes",
          "type": "uint256"
        }
      ],
      "name": "DelegateVotesChanged",
      "type": "event"
    },
    {
      "anonymous": false,
      "inputs": [],
      "name": "EIP712DomainChanged",
      "type": "event"
    },
    {
      "anonymous": false,
      "inputs": [
        {
          "indexed": true,
          "internalType": "address",
          "name": "previousOwner",
          "type": "address"
        },
        {
          "indexed": true,
          "internalType": "address",
          "name": "newOwner",
          "type": "address"
        }
      ],
      "name": "OwnershipTransferred",
      "type": "event"
    },
    {
      "anonymous": false,
      "inputs": [
        {
          "indexed": true,
          "internalType": "address",
          "name": "from",
          "type": "address"
        },
        {
          "indexed": true,
          "internalType": "address",
          "name": "to",
          "type": "address"
        },
        {
          "indexed": true,
          "internalType": "uint256",
          "name": "tokenId",
          "type": "uint256"
        }
      ],
      "name": "Transfer",
      "type": "event"
    },
    {
      "inputs": [],
      "name": "CLOCK_MODE",
      "outputs": [
        {
          "internalType": "string",
          "name": "",
          "type": "string"
        }
      ],
      "stateMutability": "view",
      "type": "function"
    },
    {
      "inputs": [
        {
          "internalType": "address",
          "name": "to",
          "type": "address"
        },
        {
          "internalType": "uint256",
          "name": "tokenId",
          "type": "uint256"
        }
      ],
      "name": "approve",
      "outputs": [],
      "stateMutability": "nonpayable",
      "type": "function"
    },
    {
      "inputs": [
        {
          "internalType": "address",
          "name": "owner",
          "type": "address"
        }
      ],
      "name": "balanceOf",
      "outputs": [
        {
          "internalType": "uint256",
          "name": "",
          "type": "uint256"
        }
      ],
      "stateMutability": "view",
      "type": "function"
    },
    {
      "inputs": [],
      "name": "clock",
      "outputs": [
        {
          "internalType": "uint48",
          "name": "",
          "type": "uint48"
        }
      ],
      "stateMutability": "view",
      "type": "function"
    },
    {
      "inputs": [
        {
          "internalType": "uint256",
          "name": "",
          "type": "uint256"
        }
      ],
      "name": "constitution",
      "outputs": [
        {
          "internalType": "string",
          "name": "guideline",
          "type": "string"
        },
        {
          "internalType": "bool",
          "name": "active",
          "type": "bool"
        }
      ],
      "stateMutability": "view",
      "type": "function"
    },
    {
      "inputs": [
        {
          "internalType": "address",
          "name": "delegatee",
          "type": "address"
        }
      ],
      "name": "delegate",
      "outputs": [],
      "stateMutability": "nonpayable",
      "type": "function"
    },
    {
      "inputs": [
        {
          "internalType": "address",
          "name": "delegatee",
          "type": "address"
        },
        {
          "internalType": "uint256",
          "name": "nonce",
          "type": "uint256"
        },
        {
          "internalType": "uint256",
          "name": "expiry",
          "type": "uint256"
        },
        {
          "internalType": "uint8",
          "name": "v",
          "type": "uint8"
        },
        {
          "internalType": "bytes32",
          "name": "r",
          "type": "bytes32"
        },
        {
          "internalType": "bytes32",
          "name": "s",
          "type": "bytes32"
        }
      ],
      "name": "delegateBySig",
      "outputs": [],
      "stateMutability": "nonpayable",
      "type": "function"
    },
    {
      "inputs": [
        {
          "internalType": "address",
          "name": "account",
          "type": "address"
        }
      ],
      "name": "delegates",
      "outputs": [
        {
          "internalType": "address",
          "name": "",
          "type": "address"
        }
      ],
      "stateMutability": "view",
      "type": "function"
    },
    {
      "inputs": [],
      "name": "eip712Domain",
      "outputs": [
        {
          "internalType": "bytes1",
          "name": "fields",
          "type": "bytes1"
        },
        {
          "internalType": "string",
          "name": "name",
          "type": "string"
        },
        {
          "internalType": "string",
          "name": "version",
          "type": "string"
        },
        {
          "internalType": "uint256",
          "name": "chainId",
          "type": "uint256"
        },
        {
          "internalType": "address",
          "name": "verifyingContract",
          "type": "address"
        },
        {
          "internalType": "bytes32",
          "name": "salt",
          "type": "bytes32"
        },
        {
          "internalType": "uint256[]",
          "name": "extensions",
          "type": "uint256[]"
        }
      ],
      "stateMutability": "view",
      "type": "function"
    },
    {
      "inputs": [
        {
          "internalType": "uint256",
          "name": "tokenId",
          "type": "uint256"
        }
      ],
      "name": "getApproved",
      "outputs": [
        {
          "internalType": "address",
          "name": "",
          "type": "address"
        }
      ],
      "stateMutability": "view",
      "type": "function"
    },
    {
      "inputs": [
        {
          "internalType": "uint256",
          "name": "timepoint",
          "type": "uint256"
        }
      ],
      "name": "getPastTotalSupply",
      "outputs": [
        {
          "internalType": "uint256",
          "name": "",
          "type": "uint256"
        }
      ],
      "stateMutability": "view",
      "type": "function"
    },
    {
      "inputs": [
        {
          "internalType": "address",
          "name": "account",
          "type": "address"
        },
        {
          "internalType": "uint256",
          "name": "timepoint",
          "type": "uint256"
        }
      ],
      "name": "getPastVotes",
      "outputs": [
        {
          "internalType": "uint256",
          "name": "",
          "type": "uint256"
        }
      ],
      "stateMutability": "view",
      "type": "function"
    },
    {
      "inputs": [
        {
          "internalType": "address",
          "name": "account",
          "type": "address"
        }
      ],
      "name": "getVotes",
      "outputs": [
        {
          "internalType": "uint256",
          "name": "",
          "type": "uint256"
        }
      ],
      "stateMutability": "view",
      "type": "function"
    },
    {
      "inputs": [
        {
          "internalType": "address",
          "name": "owner",
          "type": "address"
        },
        {
          "internalType": "address",
          "name": "operator",
          "type": "address"
        }
      ],
      "name": "isApprovedForAll",
      "outputs": [
        {
          "internalType": "bool",
          "name": "",
          "type": "bool"
        }
      ],
      "stateMutability": "view",
      "type": "function"
    },
    {
      "inputs": [],
      "name": "name",
      "outputs": [
        {
          "internalType": "string",
          "name": "",
          "type": "string"
        }
      ],
      "stateMutability": "view",
      "type": "function"
    },
    {
      "inputs": [],
      "name": "nextAmendmentId",
      "outputs": [
        {
          "internalType": "uint256",
          "name": "",
          "type": "uint256"
        }
      ],
      "stateMutability": "view",
      "type": "function"
    },
    {
      "inputs": [
        {
          "internalType": "address",
          "name": "owner",
          "type": "address"
        }
      ],
      "name": "nonces",
      "outputs": [
        {
          "internalType": "uint256",
          "name": "",
          "type": "uint256"
        }
      ],
      "stateMutability": "view",
      "type": "function"
    },
    {
      "inputs": [],
      "name": "owner",
      "outputs": [
        {
          "internalType": "address",
          "name": "",
          "type": "address"
        }
      ],
      "stateMutability": "view",
      "type": "function"
    },
    {
      "inputs": [
        {
          "internalType": "uint256",
          "name": "tokenId",
          "type": "uint256"
        }
      ],
      "name": "ownerOf",
      "outputs": [
        {
          "internalType": "address",
          "name": "",
          "type": "address"
        }
      ],
      "stateMutability": "view",
      "type": "function"
    },
    {
      "inputs": [],
      "name": "renounceOwnership",
      "outputs": [],
      "stateMutability": "nonpayable",
      "type": "function"
    },
    {
      "inputs": [
        {
          "internalType": "address",
          "name": "to",
          "type": "address"
        }
      ],
      "name": "safeMint",
      "outputs": [],
      "stateMutability": "nonpayable",
      "type": "function"
    },
    {
      "inputs": [
        {
          "internalType": "address",
          "name": "from",
          "type": "address"
        },
        {
          "internalType": "address",
          "name": "to",
          "type": "address"
        },
        {
          "internalType": "uint256",
          "name": "tokenId",
          "type": "uint256"
        }
      ],
      "name": "safeTransferFrom",
      "outputs": [],
      "stateMutability": "nonpayable",
      "type": "function"
    },
    {
      "inputs": [
        {
          "internalType": "address",
          "name": "from",
          "type": "address"
        },
        {
          "internalType": "address",
          "name": "to",
          "type": "address"
        },
        {
          "internalType": "uint256",
          "name": "tokenId",
          "type": "uint256"
        },
        {
          "internalType": "bytes",
          "name": "data",
          "type": "bytes"
        }
      ],
      "name": "safeTransferFrom",
      "outputs": [],
      "stateMutability": "nonpayable",
      "type": "function"
    },
    {
      "inputs": [
        {
          "internalType": "address",
          "name": "operator",
          "type": "address"
        },
        {
          "internalType": "bool",
          "name": "approved",
          "type": "bool"
        }
      ],
      "name": "setApprovalForAll",
      "outputs": [],
      "stateMutability": "nonpayable",
      "type": "function"
    },
    {
      "inputs": [
        {
          "internalType": "address",
          "name": "_marketplaceAddress",
          "type": "address"
        }
      ],
      "name": "setMarketplaceAddress",
      "outputs": [],
      "stateMutability": "nonpayable",
      "type": "function"
    },
    {
      "inputs": [
        {
          "internalType": "bytes4",
          "name": "interfaceId",
          "type": "bytes4"
        }
      ],
      "name": "supportsInterface",
      "outputs": [
        {
          "internalType": "bool",
          "name": "",
          "type": "bool"
        }
      ],
      "stateMutability": "view",
      "type": "function"
    },
    {
      "inputs": [],
      "name": "symbol",
      "outputs": [
        {
          "internalType": "string",
          "name": "",
          "type": "string"
        }
      ],
      "stateMutability": "view",
      "type": "function"
    },
    {
      "inputs": [
        {
          "internalType": "uint256",
          "name": "index",
          "type": "uint256"
        }
      ],
      "name": "tokenByIndex",
      "outputs": [
        {
          "internalType": "uint256",
          "name": "",
          "type": "uint256"
        }
      ],
      "stateMutability": "view",
      "type": "function"
    },
    {
      "inputs": [
        {
          "internalType": "address",
          "name": "owner",
          "type": "address"
        },
        {
          "internalType": "uint256",
          "name": "index",
          "type": "uint256"
        }
      ],
      "name": "tokenOfOwnerByIndex",
      "outputs": [
        {
          "internalType": "uint256",
          "name": "",
          "type": "uint256"
        }
      ],
      "stateMutability": "view",
      "type": "function"
    },
    {
      "inputs": [
        {
          "internalType": "uint256",
          "name": "tokenId",
          "type": "uint256"
        }
      ],
      "name": "tokenURI",
      "outputs": [
        {
          "internalType": "string",
          "name": "",
          "type": "string"
        }
      ],
      "stateMutability": "view",
      "type": "function"
    },
    {
      "inputs": [],
      "name": "totalSupply",
      "outputs": [
        {
          "internalType": "uint256",
          "name": "",
          "type": "uint256"
        }
      ],
      "stateMutability": "view",
      "type": "function"
    },
    {
      "inputs": [
        {
          "internalType": "address",
          "name": "from",
          "type": "address"
        },
        {
          "internalType": "address",
          "name": "to",
          "type": "address"
        },
        {
          "internalType": "uint256",
          "name": "tokenId",
          "type": "uint256"
        }
      ],
      "name": "transferFrom",
      "outputs": [],
      "stateMutability": "nonpayable",
      "type": "function"
    },
    {
      "inputs": [
        {
          "internalType": "address",
          "name": "newOwner",
          "type": "address"
        }
      ],
      "name": "transferOwnership",
      "outputs": [],
      "stateMutability": "nonpayable",
      "type": "function"
    }
  ],
  "bytecode": "0x6101606040523480156200001257600080fd5b5060405162003399380380620033998339810160408190526200003591620003c9565b6040518060400160405280600981526020016829b832b2b2213ab93760b91b815250604051806040016040528060018152602001603160f81b815250836040518060400160405280600981526020016829b832b2b2213ab93760b91b8152506040518060400160405280600481526020016329a1292760e11b8152508160009081620000c29190620005a5565b506001620000d18282620005a5565b5050506001600160a01b0381166200010457604051631e4fbdf760e01b8152600060048201526024015b60405180910390fd5b6200010f816200021b565b506200011d82600b6200026d565b610120526200012e81600c6200026d565b61014052815160208084019190912060e052815190820120610100524660a052620001bc60e05161010051604080517f8b73c3c69bb8fe3d512ecc4cf759cc79239f7b179b0ffacaa9a75d522b39400f60208201529081019290925260608201524660808201523060a082015260009060c00160405160208183030381529060405280519060200120905090565b60805250503060c05260005b81518110156200021257620001ff828281518110620001eb57620001eb62000671565b6020026020010151620002a660201b60201c565b6200020a8162000687565b9050620001c8565b50505062000709565b600a80546001600160a01b038381166001600160a01b0319831681179093556040519116919082907f8be0079c531659141344cd1fd0a4f28419497f9722a3daafe3b4186f6b6457e090600090a35050565b60006020835110156200028d57620002858362000317565b9050620002a0565b816200029a8482620005a5565b5060ff90505b92915050565b6014805460009182620002b98362000687565b9091555060408051808201825284815260016020808301919091526000848152601390915291909120815192935090918190620002f79082620005a5565b50602091909101516001909101805460ff19169115159190911790555050565b600080829050601f8151111562000345578260405163305a27a960e01b8152600401620000fb9190620006af565b80516200035282620006e4565b179392505050565b634e487b7160e01b600052604160045260246000fd5b604051601f8201601f191681016001600160401b03811182821017156200039b576200039b6200035a565b604052919050565b60005b83811015620003c0578181015183820152602001620003a6565b50506000910152565b6000806040808486031215620003de57600080fd5b83516001600160a01b0381168114620003f657600080fd5b602085810151919450906001600160401b03808211156200041657600080fd5b8187019150601f88818401126200042c57600080fd5b8251828111156200044157620004416200035a565b8060051b6200045286820162000370565b918252848101860191868101908c8411156200046d57600080fd5b87870192505b8383101562000503578251868111156200048d5760008081fd5b8701603f81018e13620004a05760008081fd5b8881015187811115620004b757620004b76200035a565b620004ca818801601f19168b0162000370565b8181528f8c838501011115620004e05760008081fd5b620004f1828c83018e8601620003a3565b84525050918701919087019062000473565b8099505050505050505050509250929050565b600181811c908216806200052b57607f821691505b6020821081036200054c57634e487b7160e01b600052602260045260246000fd5b50919050565b601f821115620005a057600081815260208120601f850160051c810160208610156200057b5750805b601f850160051c820191505b818110156200059c5782815560010162000587565b5050505b505050565b81516001600160401b03811115620005c157620005c16200035a565b620005d981620005d2845462000516565b8462000552565b602080601f831160018114620006115760008415620005f85750858301515b600019600386901b1c1916600185901b1785556200059c565b600085815260208120601f198616915b82811015620006425788860151825594840194600190910190840162000621565b5085821015620006615787850151600019600388901b60f8161c191681555b5050505050600190811b01905550565b634e487b7160e01b600052603260045260246000fd5b600060018201620006a857634e487b7160e01b600052601160045260246000fd5b5060010190565b6020815260008251806020840152620006d0816040850160208701620003a3565b601f01601f19169190910160400192915050565b805160208083015191908110156200054c5760001960209190910360031b1b16919050565b60805160a05160c05160e051610100516101205161014051612c356200076460003960006110660152600061103901526000611a7d01526000611a55015260006119b0015260006119da01526000611a040152612c356000f3fe608060405234801561001057600080fd5b506004361061020b5760003560e01c806370a082311161012a5780639ab24eb0116100bd578063b88d4fde1161008c578063c87b56dd11610071578063c87b56dd1461049e578063e985e9c5146104b1578063f2fde38b146104ed57600080fd5b8063b88d4fde14610478578063c3cda5201461048b57600080fd5b80639ab24eb014610436578063a22cb46514610449578063ae9b6c1f1461045c578063b47cc5561461046557600080fd5b80638da5cb5b116100f95780638da5cb5b146103eb5780638e539e8c146103fc57806391ddadf41461040f57806395d89b411461042e57600080fd5b806370a082311461038c578063715018a61461039f5780637ecebe00146103a757806384b0196e146103d057600080fd5b80633f73d887116101a25780634f6ccce7116101715780634f6ccce714610327578063587cde1e1461033a5780635c19a95c146103665780636352211e1461037957600080fd5b80633f73d887146102d857806340d097c3146102f957806342842e0e1461030c5780634bf5d7e91461031f57600080fd5b806318160ddd116101de57806318160ddd1461028d57806323b872dd1461029f5780632f745c59146102b25780633a46b1a8146102c557600080fd5b806301ffc9a71461021057806306fdde0314610238578063081812fc1461024d578063095ea7b314610278575b600080fd5b61022361021e36600461265a565b610500565b60405190151581526020015b60405180910390f35b610240610511565b60405161022f91906126c7565b61026061025b3660046126da565b6105a3565b6040516001600160a01b03909116815260200161022f565b61028b61028636600461270f565b6105cc565b005b6008545b60405190815260200161022f565b61028b6102ad366004612739565b6105db565b6102916102c036600461270f565b610727565b6102916102d336600461270f565b61078c565b6102eb6102e63660046126da565b61080d565b60405161022f929190612775565b61028b610307366004612799565b6108b4565b61028b61031a366004612739565b6108dd565b6102406108fd565b6102916103353660046126da565b61098e565b610260610348366004612799565b6001600160a01b039081166000908152600e60205260409020541690565b61028b610374366004612799565b6109e7565b6102606103873660046126da565b6109f2565b61029161039a366004612799565b6109fd565b61028b610a5e565b6102916103b5366004612799565b6001600160a01b03166000908152600d602052604090205490565b6103d8610a72565b60405161022f97969594939291906127b4565b600a546001600160a01b0316610260565b61029161040a3660046126da565b610ad4565b610417610b3e565b60405165ffffffffffff909116815260200161022f565b610240610b4d565b610291610444366004612799565b610b5c565b61028b610457366004612866565b610b8c565b61029160145481565b61028b610473366004612799565b610b97565b61028b6104863660046128b8565b610bc1565b61028b610499366004612994565b610bd8565b6102406104ac3660046126da565b610cae565b6102236104bf3660046129f4565b6001600160a01b03918216600090815260056020908152604080832093909416825291909152205460ff1690565b61028b6104fb366004612799565b610d23565b600061050b82610d7a565b92915050565b60606000805461052090612a27565b80601f016020809104026020016040519081016040528092919081815260200182805461054c90612a27565b80156105995780601f1061056e57610100808354040283529160200191610599565b820191906000526020600020905b81548152906001019060200180831161057c57829003601f168201915b5050505050905090565b60006105ae82610db8565b506000828152600460205260409020546001600160a01b031661050b565b6105d7828233610df1565b5050565b6001600160a01b03821661060a57604051633250574960e11b8152600060048201526024015b60405180910390fd5b6000610615836109fd565b11158061062f5750600a546001600160a01b038481169116145b8061064757506012546001600160a01b038381169116145b6106ad576040517f08c379a000000000000000000000000000000000000000000000000000000000815260206004820181905260248201527f4164647265737320616c7265616479206f776e73206163636f756e74204e46546044820152606401610601565b60006106ba838333610dfe565b9050836001600160a01b0316816001600160a01b031614610721576040517f64283d7b0000000000000000000000000000000000000000000000000000000081526001600160a01b0380861660048301526024820184905282166044820152606401610601565b50505050565b6000610732836109fd565b82106107635760405163295f44f760e21b81526001600160a01b038416600482015260248101839052604401610601565b506001600160a01b03919091166000908152600660209081526040808320938352929052205490565b600080610797610b3e565b90508065ffffffffffff1683106107d257604051637669fc0f60e11b81526004810184905265ffffffffffff82166024820152604401610601565b6107fc6107de84610e13565b6001600160a01b0386166000908152600f6020526040902090610e4a565b6001600160d01b0316949350505050565b60136020526000908152604090208054819061082890612a27565b80601f016020809104026020016040519081016040528092919081815260200182805461085490612a27565b80156108a15780601f10610876576101008083540402835291602001916108a1565b820191906000526020600020905b81548152906001019060200180831161088457829003601f168201915b5050506001909301549192505060ff1682565b6108bc610f03565b60118054600091826108cd83612a77565b9190505590506105d78282610f49565b6108f883838360405180602001604052806000815250610bc1565b505050565b6060610907610f63565b65ffffffffffff16610917610b3e565b65ffffffffffff1614610956576040517f6ff0714000000000000000000000000000000000000000000000000000000000815260040160405180910390fd5b5060408051808201909152601d81527f6d6f64653d626c6f636b6e756d6265722666726f6d3d64656661756c74000000602082015290565b600061099960085490565b82106109c25760405163295f44f760e21b81526000600482015260248101839052604401610601565b600882815481106109d5576109d5612a90565b90600052602060002001549050919050565b336105d78183610f6e565b600061050b82610db8565b60006001600160a01b038216610a42576040517f89c62b6400000000000000000000000000000000000000000000000000000000815260006004820152602401610601565b506001600160a01b031660009081526003602052604090205490565b610a66610f03565b610a706000610fe0565b565b600060608060008060006060610a86611032565b610a8e61105f565b604080516000808252602082019092527f0f000000000000000000000000000000000000000000000000000000000000009b939a50919850469750309650945092509050565b600080610adf610b3e565b90508065ffffffffffff168310610b1a57604051637669fc0f60e11b81526004810184905265ffffffffffff82166024820152604401610601565b610b2e610b2684610e13565b601090610e4a565b6001600160d01b03169392505050565b6000610b48610f63565b905090565b60606001805461052090612a27565b6001600160a01b0381166000908152600f60205260408120610b7d9061108c565b6001600160d01b031692915050565b6105d73383836110c8565b610b9f610f03565b601280546001600160a01b0319166001600160a01b0392909216919091179055565b610bcc8484846105db565b61072184848484611180565b83421115610c15576040517f4683af0e00000000000000000000000000000000000000000000000000000000815260048101859052602401610601565b604080517fe48329057bfd03d55e49b547132e39cffd9c1820ad7b9d4c5307691425d15adf60208201526001600160a01b038816918101919091526060810186905260808101859052600090610c8f90610c879060a001604051602081830303815290604052805190602001206112a9565b8585856112f1565b9050610c9b818761131f565b610ca58188610f6e565b50505050505050565b6060610cb982610db8565b506000610cd160408051602081019091526000815290565b90506000815111610cf15760405180602001604052806000815250610d1c565b80610cfb8461138b565b604051602001610d0c929190612aa6565b6040516020818303038152906040525b9392505050565b610d2b610f03565b6001600160a01b038116610d6e576040517f1e4fbdf700000000000000000000000000000000000000000000000000000000815260006004820152602401610601565b610d7781610fe0565b50565b60006001600160e01b031982167f780e9d6300000000000000000000000000000000000000000000000000000000148061050b575061050b8261142b565b6000818152600260205260408120546001600160a01b03168061050b57604051637e27328960e01b815260048101849052602401610601565b6108f883838360016114c6565b6000610e0b848484611604565b949350505050565b600065ffffffffffff821115610e46576040516306dfcc6560e41b81526030600482015260248101839052604401610601565b5090565b815460009081816005811115610ea9576000610e6584611620565b610e6f9085612ad5565b60008881526020902090915081015465ffffffffffff9081169087161015610e9957809150610ea7565b610ea4816001612ae8565b92505b505b6000610eb787878585611708565b90508015610ef557610edc87610ece600184612ad5565b600091825260209091200190565b54660100000000000090046001600160d01b0316610ef8565b60005b979650505050505050565b600a546001600160a01b03163314610a70576040517f118cdaa7000000000000000000000000000000000000000000000000000000008152336004820152602401610601565b6105d782826040518060200160405280600081525061176a565b6000610b4843610e13565b6001600160a01b038281166000818152600e602052604080822080548686166001600160a01b0319821681179092559151919094169392849290917f3134e8a2e6d97e929a7e54011ea5485d7d196dd5f0ba4d4ef95803e8e3fc257f9190a46108f88183610fdb86611781565b61178c565b600a80546001600160a01b038381166001600160a01b0319831681179093556040519116919082907f8be0079c531659141344cd1fd0a4f28419497f9722a3daafe3b4186f6b6457e090600090a35050565b6060610b487f0000000000000000000000000000000000000000000000000000000000000000600b6118f8565b6060610b487f0000000000000000000000000000000000000000000000000000000000000000600c6118f8565b805460009080156110bf576110a683610ece600184612ad5565b54660100000000000090046001600160d01b0316610d1c565b60009392505050565b6001600160a01b038216611113576040517f5b08ba180000000000000000000000000000000000000000000000000000000081526001600160a01b0383166004820152602401610601565b6001600160a01b03838116600081815260056020908152604080832094871680845294825291829020805460ff191686151590811790915591519182527f17307eab39ab6107e8899845ad3d59bd9653f200f220920489ca2b5937696c31910160405180910390a3505050565b6001600160a01b0383163b1561072157604051630a85bd0160e11b81526001600160a01b0384169063150b7a02906111c2903390889087908790600401612afb565b6020604051808303816000875af19250505080156111fd575060408051601f3d908101601f191682019092526111fa91810190612b37565b60015b611266573d80801561122b576040519150601f19603f3d011682016040523d82523d6000602084013e611230565b606091505b50805160000361125e57604051633250574960e11b81526001600160a01b0385166004820152602401610601565b805181602001fd5b6001600160e01b03198116630a85bd0160e11b146112a257604051633250574960e11b81526001600160a01b0385166004820152602401610601565b5050505050565b600061050b6112b66119a3565b836040517f19010000000000000000000000000000000000000000000000000000000000008152600281019290925260228201526042902090565b60008060008061130388888888611ace565b9250925092506113138282611b9d565b50909695505050505050565b6001600160a01b0382166000908152600d602052604090208054600181019091558181146108f8576040517f752d88c00000000000000000000000000000000000000000000000000000000081526001600160a01b038416600482015260248101829052604401610601565b6060600061139883611ca1565b600101905060008167ffffffffffffffff8111156113b8576113b86128a2565b6040519080825280601f01601f1916602001820160405280156113e2576020820181803683370190505b5090508181016020015b600019017f3031323334353637383961626364656600000000000000000000000000000000600a86061a8153600a85049450846113ec57509392505050565b60006001600160e01b031982167f80ac58cd00000000000000000000000000000000000000000000000000000000148061148e57506001600160e01b031982167f5b5e139f00000000000000000000000000000000000000000000000000000000145b8061050b57507f01ffc9a7000000000000000000000000000000000000000000000000000000006001600160e01b031983161461050b565b80806114da57506001600160a01b03821615155b156115d45760006114ea84610db8565b90506001600160a01b038316158015906115165750826001600160a01b0316816001600160a01b031614155b801561154857506001600160a01b0380821660009081526005602090815260408083209387168352929052205460ff16155b1561158a576040517fa9fbf51f0000000000000000000000000000000000000000000000000000000081526001600160a01b0384166004820152602401610601565b81156115d25783856001600160a01b0316826001600160a01b03167f8c5be1e5ebec7d5bd14f71427d1e84f3dd0314c0f7b2291e5b200ac8c7c3b92560405160405180910390a45b505b5050600090815260046020526040902080546001600160a01b0319166001600160a01b0392909216919091179055565b600080611612858585611d83565b9050610e0b81866001611e50565b60008160000361163257506000919050565b6000600161163f84611ec6565b901c6001901b9050600181848161165857611658612b54565b048201901c9050600181848161167057611670612b54565b048201901c9050600181848161168857611688612b54565b048201901c905060018184816116a0576116a0612b54565b048201901c905060018184816116b8576116b8612b54565b048201901c905060018184816116d0576116d0612b54565b048201901c905060018184816116e8576116e8612b54565b048201901c9050610d1c8182858161170257611702612b54565b04611f5a565b60005b8183101561176257600061171f8484611f70565b60008781526020902090915065ffffffffffff86169082015465ffffffffffff16111561174e5780925061175c565b611759816001612ae8565b93505b5061170b565b509392505050565b6117748383611f8b565b6108f86000848484611180565b600061050b826109fd565b816001600160a01b0316836001600160a01b0316141580156117ae5750600081115b156108f8576001600160a01b03831615611856576001600160a01b0383166000908152600f6020526040812081906117f1906120096117ec86612015565b612049565b6001600160d01b031691506001600160d01b03169150846001600160a01b03167fdec2bacdd2f05b59de34da9b523dff8be42e5e38e818c82fdb0bae774387a724838360405161184b929190918252602082015260400190565b60405180910390a250505b6001600160a01b038216156108f8576001600160a01b0382166000908152600f60205260408120819061188f906120826117ec86612015565b6001600160d01b031691506001600160d01b03169150836001600160a01b03167fdec2bacdd2f05b59de34da9b523dff8be42e5e38e818c82fdb0bae774387a72483836040516118e9929190918252602082015260400190565b60405180910390a25050505050565b606060ff83146119125761190b8361208e565b905061050b565b81805461191e90612a27565b80601f016020809104026020016040519081016040528092919081815260200182805461194a90612a27565b80156119975780601f1061196c57610100808354040283529160200191611997565b820191906000526020600020905b81548152906001019060200180831161197a57829003601f168201915b5050505050905061050b565b6000306001600160a01b037f0000000000000000000000000000000000000000000000000000000000000000161480156119fc57507f000000000000000000000000000000000000000000000000000000000000000046145b15611a2657507f000000000000000000000000000000000000000000000000000000000000000090565b610b48604080517f8b73c3c69bb8fe3d512ecc4cf759cc79239f7b179b0ffacaa9a75d522b39400f60208201527f0000000000000000000000000000000000000000000000000000000000000000918101919091527f000000000000000000000000000000000000000000000000000000000000000060608201524660808201523060a082015260009060c00160405160208183030381529060405280519060200120905090565b600080807f7fffffffffffffffffffffffffffffff5d576e7357a4501ddfe92f46681b20a0841115611b095750600091506003905082611b93565b604080516000808252602082018084528a905260ff891692820192909252606081018790526080810186905260019060a0016020604051602081039080840390855afa158015611b5d573d6000803e3d6000fd5b5050604051601f1901519150506001600160a01b038116611b8957506000925060019150829050611b93565b9250600091508190505b9450945094915050565b6000826003811115611bb157611bb1612b6a565b03611bba575050565b6001826003811115611bce57611bce612b6a565b03611c05576040517ff645eedf00000000000000000000000000000000000000000000000000000000815260040160405180910390fd5b6002826003811115611c1957611c19612b6a565b03611c53576040517ffce698f700000000000000000000000000000000000000000000000000000000815260048101829052602401610601565b6003826003811115611c6757611c67612b6a565b036105d7576040517fd78bce0c00000000000000000000000000000000000000000000000000000000815260048101829052602401610601565b6000807a184f03e93ff9f4daa797ed6e38ed64bf6a1f0100000000000000008310611cea577a184f03e93ff9f4daa797ed6e38ed64bf6a1f010000000000000000830492506040015b6d04ee2d6d415b85acef81000000008310611d16576d04ee2d6d415b85acef8100000000830492506020015b662386f26fc100008310611d3457662386f26fc10000830492506010015b6305f5e1008310611d4c576305f5e100830492506008015b6127108310611d6057612710830492506004015b60648310611d72576064830492506002015b600a831061050b5760010192915050565b600080611d918585856120cd565b90506001600160a01b038116611dee57611de984600880546000838152600960205260408120829055600182018355919091527ff3f7a9fe364faab93b216da50a3214154f22a0a2b415b23a84c8169e8b636ee30155565b611e11565b846001600160a01b0316816001600160a01b031614611e1157611e1181856121c6565b6001600160a01b038516611e2d57611e2884612257565b610e0b565b846001600160a01b0316816001600160a01b031614610e0b57610e0b8585612306565b6001600160a01b038316611e7257611e6f60106120826117ec84612015565b50505b6001600160a01b038216611e9457611e9160106120096117ec84612015565b50505b6001600160a01b038381166000908152600e60205260408082205485841683529120546108f89291821691168361178c565b600080608083901c15611edb57608092831c92015b604083901c15611eed57604092831c92015b602083901c15611eff57602092831c92015b601083901c15611f1157601092831c92015b600883901c15611f2357600892831c92015b600483901c15611f3557600492831c92015b600283901c15611f4757600292831c92015b600183901c1561050b5760010192915050565b6000818310611f695781610d1c565b5090919050565b6000611f7f6002848418612b80565b610d1c90848416612ae8565b6001600160a01b038216611fb557604051633250574960e11b815260006004820152602401610601565b6000611fc383836000610dfe565b90506001600160a01b038116156108f8576040517f73c6ac6e00000000000000000000000000000000000000000000000000000000815260006004820152602401610601565b6000610d1c8284612ba2565b60006001600160d01b03821115610e46576040516306dfcc6560e41b815260d0600482015260248101839052604401610601565b600080612075612057610b3e565b61206d6120638861108c565b868863ffffffff16565b879190612356565b915091505b935093915050565b6000610d1c8284612bc9565b6060600061209b83612364565b604080516020808252818301909252919250600091906020820181803683375050509182525060208101929092525090565b6000828152600260205260408120546001600160a01b03908116908316156120fa576120fa8184866123a5565b6001600160a01b03811615612138576121176000856000806114c6565b6001600160a01b038116600090815260036020526040902080546000190190555b6001600160a01b03851615612167576001600160a01b0385166000908152600360205260409020805460010190555b60008481526002602052604080822080546001600160a01b0319166001600160a01b0389811691821790925591518793918516917fddf252ad1be2c89b69c2b068fc378daa952ba7f163c4a11628f55a4df523b3ef91a4949350505050565b60006121d1836109fd565b600083815260076020526040902054909150808214612224576001600160a01b03841660009081526006602090815260408083208584528252808320548484528184208190558352600790915290208190555b5060009182526007602090815260408084208490556001600160a01b039094168352600681528383209183525290812055565b60085460009061226990600190612ad5565b6000838152600960205260408120546008805493945090928490811061229157612291612a90565b9060005260206000200154905080600883815481106122b2576122b2612a90565b60009182526020808320909101929092558281526009909152604080822084905585825281205560088054806122ea576122ea612be9565b6001900381819060005260206000200160009055905550505050565b60006001612313846109fd565b61231d9190612ad5565b6001600160a01b039093166000908152600660209081526040808320868452825280832085905593825260079052919091209190915550565b600080612075858585612422565b600060ff8216601f81111561050b576040517fb3512b0c00000000000000000000000000000000000000000000000000000000815260040160405180910390fd5b6123b08383836125c1565b6108f8576001600160a01b0383166123de57604051637e27328960e01b815260048101829052602401610601565b6040517f177e802f0000000000000000000000000000000000000000000000000000000081526001600160a01b038316600482015260248101829052604401610601565b82546000908190801561256357600061244087610ece600185612ad5565b60408051808201909152905465ffffffffffff80821680845266010000000000009092046001600160d01b0316602084015291925090871610156124b0576040517f2520601d00000000000000000000000000000000000000000000000000000000815260040160405180910390fd5b805165ffffffffffff8088169116036124ff57846124d388610ece600186612ad5565b80546001600160d01b039290921666010000000000000265ffffffffffff909216919091179055612553565b6040805180820190915265ffffffffffff80881682526001600160d01b0380881660208085019182528b54600181018d5560008d815291909120945191519092166601000000000000029216919091179101555b60200151925083915061207a9050565b50506040805180820190915265ffffffffffff80851682526001600160d01b0380851660208085019182528854600181018a5560008a815291822095519251909316660100000000000002919093161792019190915590508161207a565b60006001600160a01b03831615801590610e0b5750826001600160a01b0316846001600160a01b0316148061261b57506001600160a01b0380851660009081526005602090815260408083209387168352929052205460ff165b80610e0b5750506000908152600460205260409020546001600160a01b03908116911614919050565b6001600160e01b031981168114610d7757600080fd5b60006020828403121561266c57600080fd5b8135610d1c81612644565b60005b8381101561269257818101518382015260200161267a565b50506000910152565b600081518084526126b3816020860160208601612677565b601f01601f19169290920160200192915050565b602081526000610d1c602083018461269b565b6000602082840312156126ec57600080fd5b5035919050565b80356001600160a01b038116811461270a57600080fd5b919050565b6000806040838503121561272257600080fd5b61272b836126f3565b946020939093013593505050565b60008060006060848603121561274e57600080fd5b612757846126f3565b9250612765602085016126f3565b9150604084013590509250925092565b604081526000612788604083018561269b565b905082151560208301529392505050565b6000602082840312156127ab57600080fd5b610d1c826126f3565b7fff00000000000000000000000000000000000000000000000000000000000000881681526000602060e0818401526127f060e084018a61269b565b8381036040850152612802818a61269b565b606085018990526001600160a01b038816608086015260a0850187905284810360c0860152855180825283870192509083019060005b8181101561285457835183529284019291840191600101612838565b50909c9b505050505050505050505050565b6000806040838503121561287957600080fd5b612882836126f3565b91506020830135801515811461289757600080fd5b809150509250929050565b634e487b7160e01b600052604160045260246000fd5b600080600080608085870312156128ce57600080fd5b6128d7856126f3565b93506128e5602086016126f3565b925060408501359150606085013567ffffffffffffffff8082111561290957600080fd5b818701915087601f83011261291d57600080fd5b81358181111561292f5761292f6128a2565b604051601f8201601f19908116603f01168101908382118183101715612957576129576128a2565b816040528281528a602084870101111561297057600080fd5b82602086016020830137600060208483010152809550505050505092959194509250565b60008060008060008060c087890312156129ad57600080fd5b6129b6876126f3565b95506020870135945060408701359350606087013560ff811681146129da57600080fd5b9598949750929560808101359460a0909101359350915050565b60008060408385031215612a0757600080fd5b612a10836126f3565b9150612a1e602084016126f3565b90509250929050565b600181811c90821680612a3b57607f821691505b602082108103612a5b57634e487b7160e01b600052602260045260246000fd5b50919050565b634e487b7160e01b600052601160045260246000fd5b600060018201612a8957612a89612a61565b5060010190565b634e487b7160e01b600052603260045260246000fd5b60008351612ab8818460208801612677565b835190830190612acc818360208801612677565b01949350505050565b8181038181111561050b5761050b612a61565b8082018082111561050b5761050b612a61565b60006001600160a01b03808716835280861660208401525083604083015260806060830152612b2d608083018461269b565b9695505050505050565b600060208284031215612b4957600080fd5b8151610d1c81612644565b634e487b7160e01b600052601260045260246000fd5b634e487b7160e01b600052602160045260246000fd5b600082612b9d57634e487b7160e01b600052601260045260246000fd5b500490565b6001600160d01b03828116828216039080821115612bc257612bc2612a61565b5092915050565b6001600160d01b03818116838216019080821115612bc257612bc2612a61565b634e487b7160e01b600052603160045260246000fdfea264697066735822122089f2f07f2f7f3c2e55e6fc9cb8d118f06f40fc2ccc0f1567185c38b2bd43f63b64736f6c63430008150033",
  "linkReferences": {},
  "deployedLinkReferences": {}
}