{
  "_format": "hh-sol-artifact-1",
  "contractName": "Account",
  "sourceName": "contracts/Account.sol",
  "abi": [
    {
      "inputs": [],
      "stateMutability": "nonpayable",
      "type": "constructor"
    },
    {
      "inputs": [
        {
          "internalType": "address",
          "name": "sender",
          "type": "address"
        },
        {
          "internalType": "uint256",
          "name": "tokenId",
          "type": "uint256"
        },
        {
          "internalType": "address",
          "name": "owner",
          "type": "address"
        }
      ],
      "name": "ERC721IncorrectOwner",
      "type": "error"
    },
    {
      "inputs": [
        {
          "internalType": "address",
          "name": "operator",
          "type": "address"
        },
        {
          "internalType": "uint256",
          "name": "tokenId",
          "type": "uint256"
        }
      ],
      "name": "ERC721InsufficientApproval",
      "type": "error"
    },
    {
      "inputs": [
        {
          "internalType": "address",
          "name": "approver",
          "type": "address"
        }
      ],
      "name": "ERC721InvalidApprover",
      "type": "error"
    },
    {
      "inputs": [
        {
          "internalType": "address",
          "name": "operator",
          "type": "address"
        }
      ],
      "name": "ERC721InvalidOperator",
      "type": "error"
    },
    {
      "inputs": [
        {
          "internalType": "address",
          "name": "owner",
          "type": "address"
        }
      ],
      "name": "ERC721InvalidOwner",
      "type": "error"
    },
    {
      "inputs": [
        {
          "internalType": "address",
          "name": "receiver",
          "type": "address"
        }
      ],
      "name": "ERC721InvalidReceiver",
      "type": "error"
    },
    {
      "inputs": [
        {
          "internalType": "address",
          "name": "sender",
          "type": "address"
        }
      ],
      "name": "ERC721InvalidSender",
      "type": "error"
    },
    {
      "inputs": [
        {
          "internalType": "uint256",
          "name": "tokenId",
          "type": "uint256"
        }
      ],
      "name": "ERC721NonexistentToken",
      "type": "error"
    },
    {
      "anonymous": false,
      "inputs": [
        {
          "indexed": true,
          "internalType": "address",
          "name": "owner",
          "type": "address"
        },
        {
          "indexed": true,
          "internalType": "address",
          "name": "approved",
          "type": "address"
        },
        {
          "indexed": true,
          "internalType": "uint256",
          "name": "tokenId",
          "type": "uint256"
        }
      ],
      "name": "Approval",
      "type": "event"
    },
    {
      "anonymous": false,
      "inputs": [
        {
          "indexed": true,
          "internalType": "address",
          "name": "owner",
          "type": "address"
        },
        {
          "indexed": true,
          "internalType": "address",
          "name": "operator",
          "type": "address"
        },
        {
          "indexed": false,
          "internalType": "bool",
          "name": "approved",
          "type": "bool"
        }
      ],
      "name": "ApprovalForAll",
      "type": "event"
    },
    {
      "anonymous": false,
      "inputs": [
        {
          "indexed": true,
          "internalType": "address",
          "name": "from",
          "type": "address"
        },
        {
          "indexed": true,
          "internalType": "address",
          "name": "to",
          "type": "address"
        },
        {
          "indexed": true,
          "internalType": "uint256",
          "name": "tokenId",
          "type": "uint256"
        }
      ],
      "name": "Transfer",
      "type": "event"
    },
    {
      "inputs": [
        {
          "internalType": "address",
          "name": "to",
          "type": "address"
        },
        {
          "internalType": "uint256",
          "name": "tokenId",
          "type": "uint256"
        }
      ],
      "name": "approve",
      "outputs": [],
      "stateMutability": "nonpayable",
      "type": "function"
    },
    {
      "inputs": [
        {
          "internalType": "address",
          "name": "owner",
          "type": "address"
        }
      ],
      "name": "balanceOf",
      "outputs": [
        {
          "internalType": "uint256",
          "name": "",
          "type": "uint256"
        }
      ],
      "stateMutability": "view",
      "type": "function"
    },
    {
      "inputs": [
        {
          "internalType": "uint256",
          "name": "tokenId",
          "type": "uint256"
        }
      ],
      "name": "getApproved",
      "outputs": [
        {
          "internalType": "address",
          "name": "",
          "type": "address"
        }
      ],
      "stateMutability": "view",
      "type": "function"
    },
    {
      "inputs": [
        {
          "internalType": "address",
          "name": "owner",
          "type": "address"
        },
        {
          "internalType": "address",
          "name": "operator",
          "type": "address"
        }
      ],
      "name": "isApprovedForAll",
      "outputs": [
        {
          "internalType": "bool",
          "name": "",
          "type": "bool"
        }
      ],
      "stateMutability": "view",
      "type": "function"
    },
    {
      "inputs": [],
      "name": "mint",
      "outputs": [],
      "stateMutability": "nonpayable",
      "type": "function"
    },
    {
      "inputs": [],
      "name": "name",
      "outputs": [
        {
          "internalType": "string",
          "name": "",
          "type": "string"
        }
      ],
      "stateMutability": "view",
      "type": "function"
    },
    {
      "inputs": [],
      "name": "nextTokenId",
      "outputs": [
        {
          "internalType": "uint256",
          "name": "",
          "type": "uint256"
        }
      ],
      "stateMutability": "view",
      "type": "function"
    },
    {
      "inputs": [
        {
          "internalType": "uint256",
          "name": "tokenId",
          "type": "uint256"
        }
      ],
      "name": "ownerOf",
      "outputs": [
        {
          "internalType": "address",
          "name": "",
          "type": "address"
        }
      ],
      "stateMutability": "view",
      "type": "function"
    },
    {
      "inputs": [
        {
          "internalType": "address",
          "name": "from",
          "type": "address"
        },
        {
          "internalType": "address",
          "name": "to",
          "type": "address"
        },
        {
          "internalType": "uint256",
          "name": "tokenId",
          "type": "uint256"
        }
      ],
      "name": "safeTransferFrom",
      "outputs": [],
      "stateMutability": "nonpayable",
      "type": "function"
    },
    {
      "inputs": [
        {
          "internalType": "address",
          "name": "from",
          "type": "address"
        },
        {
          "internalType": "address",
          "name": "to",
          "type": "address"
        },
        {
          "internalType": "uint256",
          "name": "tokenId",
          "type": "uint256"
        },
        {
          "internalType": "bytes",
          "name": "data",
          "type": "bytes"
        }
      ],
      "name": "safeTransferFrom",
      "outputs": [],
      "stateMutability": "nonpayable",
      "type": "function"
    },
    {
      "inputs": [
        {
          "internalType": "address",
          "name": "operator",
          "type": "address"
        },
        {
          "internalType": "bool",
          "name": "approved",
          "type": "bool"
        }
      ],
      "name": "setApprovalForAll",
      "outputs": [],
      "stateMutability": "nonpayable",
      "type": "function"
    },
    {
      "inputs": [
        {
          "internalType": "bytes4",
          "name": "interfaceId",
          "type": "bytes4"
        }
      ],
      "name": "supportsInterface",
      "outputs": [
        {
          "internalType": "bool",
          "name": "",
          "type": "bool"
        }
      ],
      "stateMutability": "view",
      "type": "function"
    },
    {
      "inputs": [],
      "name": "symbol",
      "outputs": [
        {
          "internalType": "string",
          "name": "",
          "type": "string"
        }
      ],
      "stateMutability": "view",
      "type": "function"
    },
    {
      "inputs": [
        {
          "internalType": "uint256",
          "name": "tokenId",
          "type": "uint256"
        }
      ],
      "name": "tokenURI",
      "outputs": [
        {
          "internalType": "string",
          "name": "",
          "type": "string"
        }
      ],
      "stateMutability": "view",
      "type": "function"
    },
    {
      "inputs": [
        {
          "internalType": "address",
          "name": "from",
          "type": "address"
        },
        {
          "internalType": "address",
          "name": "to",
          "type": "address"
        },
        {
          "internalType": "uint256",
          "name": "tokenId",
          "type": "uint256"
        }
      ],
      "name": "transferFrom",
      "outputs": [],
      "stateMutability": "nonpayable",
      "type": "function"
    }
  ],
  "bytecode": "0x60806040523480156200001157600080fd5b506040518060400160405280600981526020017f53706565644275726e00000000000000000000000000000000000000000000008152506040518060400160405280600481526020017f5342524e0000000000000000000000000000000000000000000000000000000081525081600090816200008f919062000365565b508060019081620000a1919062000365565b50505033600660006101000a81548173ffffffffffffffffffffffffffffffffffffffff021916908373ffffffffffffffffffffffffffffffffffffffff1602179055506200044c565b600081519050919050565b7f4e487b7100000000000000000000000000000000000000000000000000000000600052604160045260246000fd5b7f4e487b7100000000000000000000000000000000000000000000000000000000600052602260045260246000fd5b600060028204905060018216806200016d57607f821691505b60208210810362000183576200018262000125565b5b50919050565b60008190508160005260206000209050919050565b60006020601f8301049050919050565b600082821b905092915050565b600060088302620001ed7fffffffffffffffffffffffffffffffffffffffffffffffffffffffffffffffff82620001ae565b620001f98683620001ae565b95508019841693508086168417925050509392505050565b6000819050919050565b6000819050919050565b600062000246620002406200023a8462000211565b6200021b565b62000211565b9050919050565b6000819050919050565b620002628362000225565b6200027a62000271826200024d565b848454620001bb565b825550505050565b600090565b6200029162000282565b6200029e81848462000257565b505050565b5b81811015620002c657620002ba60008262000287565b600181019050620002a4565b5050565b601f8211156200031557620002df8162000189565b620002ea846200019e565b81016020851015620002fa578190505b6200031262000309856200019e565b830182620002a3565b50505b505050565b600082821c905092915050565b60006200033a600019846008026200031a565b1980831691505092915050565b600062000355838362000327565b9150826002028217905092915050565b6200037082620000eb565b67ffffffffffffffff8111156200038c576200038b620000f6565b5b62000398825462000154565b620003a5828285620002ca565b600060209050601f831160018114620003dd5760008415620003c8578287015190505b620003d4858262000347565b86555062000444565b601f198416620003ed8662000189565b60005b828110156200041757848901518255600182019150602085019450602081019050620003f0565b8683101562000437578489015162000433601f89168262000327565b8355505b6001600288020188555050505b505050505050565b611f8a806200045c6000396000f3fe608060405234801561001057600080fd5b50600436106100f55760003560e01c80636352211e11610097578063a22cb46511610066578063a22cb46514610272578063b88d4fde1461028e578063c87b56dd146102aa578063e985e9c5146102da576100f5565b80636352211e146101d657806370a082311461020657806375794a3c1461023657806395d89b4114610254576100f5565b8063095ea7b3116100d3578063095ea7b3146101785780631249c58b1461019457806323b872dd1461019e57806342842e0e146101ba576100f5565b806301ffc9a7146100fa57806306fdde031461012a578063081812fc14610148575b600080fd5b610114600480360381019061010f91906116cb565b61030a565b6040516101219190611713565b60405180910390f35b6101326103ec565b60405161013f91906117be565b60405180910390f35b610162600480360381019061015d9190611816565b61047e565b60405161016f9190611884565b60405180910390f35b610192600480360381019061018d91906118cb565b61049a565b005b61019c6104b0565b005b6101b860048036038101906101b3919061190b565b610568565b005b6101d460048036038101906101cf919061190b565b61066a565b005b6101f060048036038101906101eb9190611816565b61068a565b6040516101fd9190611884565b60405180910390f35b610220600480360381019061021b919061195e565b61069c565b60405161022d919061199a565b60405180910390f35b61023e610756565b60405161024b919061199a565b60405180910390f35b61025c61075c565b60405161026991906117be565b60405180910390f35b61028c600480360381019061028791906119e1565b6107ee565b005b6102a860048036038101906102a39190611b56565b610804565b005b6102c460048036038101906102bf9190611816565b610821565b6040516102d191906117be565b60405180910390f35b6102f460048036038101906102ef9190611bd9565b61088a565b6040516103019190611713565b60405180910390f35b60007f80ac58cd000000000000000000000000000000000000000000000000000000007bffffffffffffffffffffffffffffffffffffffffffffffffffffffff1916827bffffffffffffffffffffffffffffffffffffffffffffffffffffffff191614806103d557507f5b5e139f000000000000000000000000000000000000000000000000000000007bffffffffffffffffffffffffffffffffffffffffffffffffffffffff1916827bffffffffffffffffffffffffffffffffffffffffffffffffffffffff1916145b806103e557506103e48261091e565b5b9050919050565b6060600080546103fb90611c48565b80601f016020809104026020016040519081016040528092919081815260200182805461042790611c48565b80156104745780601f1061044957610100808354040283529160200191610474565b820191906000526020600020905b81548152906001019060200180831161045757829003601f168201915b5050505050905090565b600061048982610988565b5061049382610a10565b9050919050565b6104ac82826104a7610a4d565b610a55565b5050565b600660009054906101000a900473ffffffffffffffffffffffffffffffffffffffff1673ffffffffffffffffffffffffffffffffffffffff163373ffffffffffffffffffffffffffffffffffffffff1614610540576040517f08c379a000000000000000000000000000000000000000000000000000000000815260040161053790611ceb565b60405180910390fd5b60006007600081548092919061055590611d3a565b9190505590506105653382610a67565b50565b600073ffffffffffffffffffffffffffffffffffffffff168273ffffffffffffffffffffffffffffffffffffffff16036105da5760006040517f64a0ae920000000000000000000000000000000000000000000000000000000081526004016105d19190611884565b60405180910390fd5b60006105ee83836105e9610a4d565b610b60565b90508373ffffffffffffffffffffffffffffffffffffffff168173ffffffffffffffffffffffffffffffffffffffff1614610664578382826040517f64283d7b00000000000000000000000000000000000000000000000000000000815260040161065b93929190611d82565b60405180910390fd5b50505050565b61068583838360405180602001604052806000815250610804565b505050565b600061069582610988565b9050919050565b60008073ffffffffffffffffffffffffffffffffffffffff168273ffffffffffffffffffffffffffffffffffffffff160361070f5760006040517f89c62b640000000000000000000000000000000000000000000000000000000081526004016107069190611884565b60405180910390fd5b600360008373ffffffffffffffffffffffffffffffffffffffff1673ffffffffffffffffffffffffffffffffffffffff168152602001908152602001600020549050919050565b60075481565b60606001805461076b90611c48565b80601f016020809104026020016040519081016040528092919081815260200182805461079790611c48565b80156107e45780601f106107b9576101008083540402835291602001916107e4565b820191906000526020600020905b8154815290600101906020018083116107c757829003601f168201915b5050505050905090565b6108006107f9610a4d565b8383610d7a565b5050565b61080f848484610568565b61081b84848484610ee9565b50505050565b606061082c82610988565b5060006108376110a0565b905060008151116108575760405180602001604052806000815250610882565b80610861846110b7565b604051602001610872929190611df5565b6040516020818303038152906040525b915050919050565b6000600560008473ffffffffffffffffffffffffffffffffffffffff1673ffffffffffffffffffffffffffffffffffffffff16815260200190815260200160002060008373ffffffffffffffffffffffffffffffffffffffff1673ffffffffffffffffffffffffffffffffffffffff16815260200190815260200160002060009054906101000a900460ff16905092915050565b60007f01ffc9a7000000000000000000000000000000000000000000000000000000007bffffffffffffffffffffffffffffffffffffffffffffffffffffffff1916827bffffffffffffffffffffffffffffffffffffffffffffffffffffffff1916149050919050565b60008061099483611185565b9050600073ffffffffffffffffffffffffffffffffffffffff168173ffffffffffffffffffffffffffffffffffffffff1603610a0757826040517f7e2732890000000000000000000000000000000000000000000000000000000081526004016109fe919061199a565b60405180910390fd5b80915050919050565b60006004600083815260200190815260200160002060009054906101000a900473ffffffffffffffffffffffffffffffffffffffff169050919050565b600033905090565b610a6283838360016111c2565b505050565b600073ffffffffffffffffffffffffffffffffffffffff168273ffffffffffffffffffffffffffffffffffffffff1603610ad95760006040517f64a0ae92000000000000000000000000000000000000000000000000000000008152600401610ad09190611884565b60405180910390fd5b6000610ae783836000610b60565b9050600073ffffffffffffffffffffffffffffffffffffffff168173ffffffffffffffffffffffffffffffffffffffff1614610b5b5760006040517f73c6ac6e000000000000000000000000000000000000000000000000000000008152600401610b529190611884565b60405180910390fd5b505050565b600080610b6c84611185565b9050600073ffffffffffffffffffffffffffffffffffffffff168373ffffffffffffffffffffffffffffffffffffffff1614610bae57610bad818486611387565b5b600073ffffffffffffffffffffffffffffffffffffffff168173ffffffffffffffffffffffffffffffffffffffff1614610c3f57610bf06000856000806111c2565b6001600360008373ffffffffffffffffffffffffffffffffffffffff1673ffffffffffffffffffffffffffffffffffffffff168152602001908152602001600020600082825403925050819055505b600073ffffffffffffffffffffffffffffffffffffffff168573ffffffffffffffffffffffffffffffffffffffff1614610cc2576001600360008773ffffffffffffffffffffffffffffffffffffffff1673ffffffffffffffffffffffffffffffffffffffff168152602001908152602001600020600082825401925050819055505b846002600086815260200190815260200160002060006101000a81548173ffffffffffffffffffffffffffffffffffffffff021916908373ffffffffffffffffffffffffffffffffffffffff160217905550838573ffffffffffffffffffffffffffffffffffffffff168273ffffffffffffffffffffffffffffffffffffffff167fddf252ad1be2c89b69c2b068fc378daa952ba7f163c4a11628f55a4df523b3ef60405160405180910390a4809150509392505050565b600073ffffffffffffffffffffffffffffffffffffffff168273ffffffffffffffffffffffffffffffffffffffff1603610deb57816040517f5b08ba18000000000000000000000000000000000000000000000000000000008152600401610de29190611884565b60405180910390fd5b80600560008573ffffffffffffffffffffffffffffffffffffffff1673ffffffffffffffffffffffffffffffffffffffff16815260200190815260200160002060008473ffffffffffffffffffffffffffffffffffffffff1673ffffffffffffffffffffffffffffffffffffffff16815260200190815260200160002060006101000a81548160ff0219169083151502179055508173ffffffffffffffffffffffffffffffffffffffff168373ffffffffffffffffffffffffffffffffffffffff167f17307eab39ab6107e8899845ad3d59bd9653f200f220920489ca2b5937696c3183604051610edc9190611713565b60405180910390a3505050565b60008373ffffffffffffffffffffffffffffffffffffffff163b111561109a578273ffffffffffffffffffffffffffffffffffffffff1663150b7a02610f2d610a4d565b8685856040518563ffffffff1660e01b8152600401610f4f9493929190611e6e565b6020604051808303816000875af1925050508015610f8b57506040513d601f19601f82011682018060405250810190610f889190611ecf565b60015b61100f573d8060008114610fbb576040519150601f19603f3d011682016040523d82523d6000602084013e610fc0565b606091505b50600081510361100757836040517f64a0ae92000000000000000000000000000000000000000000000000000000008152600401610ffe9190611884565b60405180910390fd5b805181602001fd5b63150b7a0260e01b7bffffffffffffffffffffffffffffffffffffffffffffffffffffffff1916817bffffffffffffffffffffffffffffffffffffffffffffffffffffffff19161461109857836040517f64a0ae9200000000000000000000000000000000000000000000000000000000815260040161108f9190611884565b60405180910390fd5b505b50505050565b606060405180602001604052806000815250905090565b6060600060016110c68461144b565b01905060008167ffffffffffffffff8111156110e5576110e4611a2b565b5b6040519080825280601f01601f1916602001820160405280156111175781602001600182028036833780820191505090505b509050600082602001820190505b60011561117a578080600190039150507f3031323334353637383961626364656600000000000000000000000000000000600a86061a8153600a858161116e5761116d611efc565b5b04945060008503611125575b819350505050919050565b60006002600083815260200190815260200160002060009054906101000a900473ffffffffffffffffffffffffffffffffffffffff169050919050565b80806111fb5750600073ffffffffffffffffffffffffffffffffffffffff168273ffffffffffffffffffffffffffffffffffffffff1614155b1561132f57600061120b84610988565b9050600073ffffffffffffffffffffffffffffffffffffffff168373ffffffffffffffffffffffffffffffffffffffff161415801561127657508273ffffffffffffffffffffffffffffffffffffffff168173ffffffffffffffffffffffffffffffffffffffff1614155b80156112895750611287818461088a565b155b156112cb57826040517fa9fbf51f0000000000000000000000000000000000000000000000000000000081526004016112c29190611884565b60405180910390fd5b811561132d57838573ffffffffffffffffffffffffffffffffffffffff168273ffffffffffffffffffffffffffffffffffffffff167f8c5be1e5ebec7d5bd14f71427d1e84f3dd0314c0f7b2291e5b200ac8c7c3b92560405160405180910390a45b505b836004600085815260200190815260200160002060006101000a81548173ffffffffffffffffffffffffffffffffffffffff021916908373ffffffffffffffffffffffffffffffffffffffff16021790555050505050565b61139283838361159e565b61144657600073ffffffffffffffffffffffffffffffffffffffff168373ffffffffffffffffffffffffffffffffffffffff160361140757806040517f7e2732890000000000000000000000000000000000000000000000000000000081526004016113fe919061199a565b60405180910390fd5b81816040517f177e802f00000000000000000000000000000000000000000000000000000000815260040161143d929190611f2b565b60405180910390fd5b505050565b600080600090507a184f03e93ff9f4daa797ed6e38ed64bf6a1f01000000000000000083106114a9577a184f03e93ff9f4daa797ed6e38ed64bf6a1f010000000000000000838161149f5761149e611efc565b5b0492506040810190505b6d04ee2d6d415b85acef810000000083106114e6576d04ee2d6d415b85acef810000000083816114dc576114db611efc565b5b0492506020810190505b662386f26fc10000831061151557662386f26fc10000838161150b5761150a611efc565b5b0492506010810190505b6305f5e100831061153e576305f5e100838161153457611533611efc565b5b0492506008810190505b612710831061156357612710838161155957611558611efc565b5b0492506004810190505b60648310611586576064838161157c5761157b611efc565b5b0492506002810190505b600a8310611595576001810190505b80915050919050565b60008073ffffffffffffffffffffffffffffffffffffffff168373ffffffffffffffffffffffffffffffffffffffff161415801561165657508273ffffffffffffffffffffffffffffffffffffffff168473ffffffffffffffffffffffffffffffffffffffff1614806116175750611616848461088a565b5b8061165557508273ffffffffffffffffffffffffffffffffffffffff1661163d83610a10565b73ffffffffffffffffffffffffffffffffffffffff16145b5b90509392505050565b6000604051905090565b600080fd5b600080fd5b60007fffffffff0000000000000000000000000000000000000000000000000000000082169050919050565b6116a881611673565b81146116b357600080fd5b50565b6000813590506116c58161169f565b92915050565b6000602082840312156116e1576116e0611669565b5b60006116ef848285016116b6565b91505092915050565b60008115159050919050565b61170d816116f8565b82525050565b60006020820190506117286000830184611704565b92915050565b600081519050919050565b600082825260208201905092915050565b60005b8381101561176857808201518184015260208101905061174d565b60008484015250505050565b6000601f19601f8301169050919050565b60006117908261172e565b61179a8185611739565b93506117aa81856020860161174a565b6117b381611774565b840191505092915050565b600060208201905081810360008301526117d88184611785565b905092915050565b6000819050919050565b6117f3816117e0565b81146117fe57600080fd5b50565b600081359050611810816117ea565b92915050565b60006020828403121561182c5761182b611669565b5b600061183a84828501611801565b91505092915050565b600073ffffffffffffffffffffffffffffffffffffffff82169050919050565b600061186e82611843565b9050919050565b61187e81611863565b82525050565b60006020820190506118996000830184611875565b92915050565b6118a881611863565b81146118b357600080fd5b50565b6000813590506118c58161189f565b92915050565b600080604083850312156118e2576118e1611669565b5b60006118f0858286016118b6565b925050602061190185828601611801565b9150509250929050565b60008060006060848603121561192457611923611669565b5b6000611932868287016118b6565b9350506020611943868287016118b6565b925050604061195486828701611801565b9150509250925092565b60006020828403121561197457611973611669565b5b6000611982848285016118b6565b91505092915050565b611994816117e0565b82525050565b60006020820190506119af600083018461198b565b92915050565b6119be816116f8565b81146119c957600080fd5b50565b6000813590506119db816119b5565b92915050565b600080604083850312156119f8576119f7611669565b5b6000611a06858286016118b6565b9250506020611a17858286016119cc565b9150509250929050565b600080fd5b600080fd5b7f4e487b7100000000000000000000000000000000000000000000000000000000600052604160045260246000fd5b611a6382611774565b810181811067ffffffffffffffff82111715611a8257611a81611a2b565b5b80604052505050565b6000611a9561165f565b9050611aa18282611a5a565b919050565b600067ffffffffffffffff821115611ac157611ac0611a2b565b5b611aca82611774565b9050602081019050919050565b82818337600083830152505050565b6000611af9611af484611aa6565b611a8b565b905082815260208101848484011115611b1557611b14611a26565b5b611b20848285611ad7565b509392505050565b600082601f830112611b3d57611b3c611a21565b5b8135611b4d848260208601611ae6565b91505092915050565b60008060008060808587031215611b7057611b6f611669565b5b6000611b7e878288016118b6565b9450506020611b8f878288016118b6565b9350506040611ba087828801611801565b925050606085013567ffffffffffffffff811115611bc157611bc061166e565b5b611bcd87828801611b28565b91505092959194509250565b60008060408385031215611bf057611bef611669565b5b6000611bfe858286016118b6565b9250506020611c0f858286016118b6565b9150509250929050565b7f4e487b7100000000000000000000000000000000000000000000000000000000600052602260045260246000fd5b60006002820490506001821680611c6057607f821691505b602082108103611c7357611c72611c19565b5b50919050565b7f4f6e6c7920746865206f776e65722063616e2063616c6c2074686973206d657460008201527f686f640000000000000000000000000000000000000000000000000000000000602082015250565b6000611cd5602383611739565b9150611ce082611c79565b604082019050919050565b60006020820190508181036000830152611d0481611cc8565b9050919050565b7f4e487b7100000000000000000000000000000000000000000000000000000000600052601160045260246000fd5b6000611d45826117e0565b91507fffffffffffffffffffffffffffffffffffffffffffffffffffffffffffffffff8203611d7757611d76611d0b565b5b600182019050919050565b6000606082019050611d976000830186611875565b611da4602083018561198b565b611db16040830184611875565b949350505050565b600081905092915050565b6000611dcf8261172e565b611dd98185611db9565b9350611de981856020860161174a565b80840191505092915050565b6000611e018285611dc4565b9150611e0d8284611dc4565b91508190509392505050565b600081519050919050565b600082825260208201905092915050565b6000611e4082611e19565b611e4a8185611e24565b9350611e5a81856020860161174a565b611e6381611774565b840191505092915050565b6000608082019050611e836000830187611875565b611e906020830186611875565b611e9d604083018561198b565b8181036060830152611eaf8184611e35565b905095945050505050565b600081519050611ec98161169f565b92915050565b600060208284031215611ee557611ee4611669565b5b6000611ef384828501611eba565b91505092915050565b7f4e487b7100000000000000000000000000000000000000000000000000000000600052601260045260246000fd5b6000604082019050611f406000830185611875565b611f4d602083018461198b565b939250505056fea264697066735822122012f262a469afaf5f73a087d2856440e365df52da38feac78ac39481729a72c5264736f6c63430008150033",
  "linkReferences": {},
  "deployedLinkReferences": {}
}