{
  "_format": "hh-sol-artifact-1",
  "contractName": "Blog",
  "sourceName": "contracts/Blog.sol",
  "abi": [
    {
      "inputs": [
        {
          "internalType": "address",
          "name": "_nftAddress",
          "type": "address"
        }
      ],
      "stateMutability": "nonpayable",
      "type": "constructor"
    },
    {
      "inputs": [
        {
          "internalType": "string",
          "name": "_title",
          "type": "string"
        },
        {
          "internalType": "string",
          "name": "_body",
          "type": "string"
        },
        {
          "internalType": "uint256",
          "name": "_timestamp",
          "type": "uint256"
        }
      ],
      "name": "createPost",
      "outputs": [],
      "stateMutability": "nonpayable",
      "type": "function"
    },
    {
      "inputs": [],
      "name": "nextPostId",
      "outputs": [
        {
          "internalType": "uint256",
          "name": "",
          "type": "uint256"
        }
      ],
      "stateMutability": "view",
      "type": "function"
    },
    {
      "inputs": [],
      "name": "owner",
      "outputs": [
        {
          "internalType": "address",
          "name": "",
          "type": "address"
        }
      ],
      "stateMutability": "view",
      "type": "function"
    },
    {
      "inputs": [
        {
          "internalType": "uint256",
          "name": "",
          "type": "uint256"
        }
      ],
      "name": "posts",
      "outputs": [
        {
          "internalType": "string",
          "name": "title",
          "type": "string"
        },
        {
          "internalType": "string",
          "name": "body",
          "type": "string"
        },
        {
          "internalType": "uint256",
          "name": "timestamp",
          "type": "uint256"
        },
        {
          "internalType": "address",
          "name": "author",
          "type": "address"
        }
      ],
      "stateMutability": "view",
      "type": "function"
    }
  ],
  "bytecode": "0x608060405234801561001057600080fd5b50604051610d3b380380610d3b833981810160405281019061003291906100dc565b80600360006101000a81548173ffffffffffffffffffffffffffffffffffffffff021916908373ffffffffffffffffffffffffffffffffffffffff16021790555050610109565b600080fd5b600073ffffffffffffffffffffffffffffffffffffffff82169050919050565b60006100a98261007e565b9050919050565b6100b98161009e565b81146100c457600080fd5b50565b6000815190506100d6816100b0565b92915050565b6000602082840312156100f2576100f1610079565b5b6000610100848285016100c7565b91505092915050565b610c23806101186000396000f3fe608060405234801561001057600080fd5b506004361061004c5760003560e01c80630b1e7f83146100515780635c09bd9814610084578063742d931a146100a25780638da5cb5b146100be575b600080fd5b61006b60048036038101906100669190610505565b6100dc565b60405161007b9493929190610612565b60405180910390f35b61008c61023c565b6040516100999190610665565b60405180910390f35b6100bc60048036038101906100b791906106e5565b610242565b005b6100c66104a1565b6040516100d3919061077a565b60405180910390f35b60016020528060005260406000206000915090508060000180546100ff906107c4565b80601f016020809104026020016040519081016040528092919081815260200182805461012b906107c4565b80156101785780601f1061014d57610100808354040283529160200191610178565b820191906000526020600020905b81548152906001019060200180831161015b57829003601f168201915b50505050509080600101805461018d906107c4565b80601f01602080910402602001604051908101604052809291908181526020018280546101b9906107c4565b80156102065780601f106101db57610100808354040283529160200191610206565b820191906000526020600020905b8154815290600101906020018083116101e957829003601f168201915b5050505050908060020154908060030160009054906101000a900473ffffffffffffffffffffffffffffffffffffffff16905084565b60025481565b6000600360009054906101000a900473ffffffffffffffffffffffffffffffffffffffff1673ffffffffffffffffffffffffffffffffffffffff166370a08231336040518263ffffffff1660e01b815260040161029f919061077a565b602060405180830381865afa1580156102bc573d6000803e3d6000fd5b505050506040513d601f19601f820116820180604052508101906102e0919061080a565b905060008111610325576040517f08c379a000000000000000000000000000000000000000000000000000000000815260040161031c906108a9565b60405180910390fd5b6000604051806080016040528088888080601f016020809104026020016040519081016040528093929190818152602001838380828437600081840152601f19601f82011690508083019250505050505050815260200186868080601f016020809104026020016040519081016040528093929190818152602001838380828437600081840152601f19601f8201169050808301925050505050505081526020018481526020013373ffffffffffffffffffffffffffffffffffffffff1681525090506000600260008154809291906103fd906108f8565b9190505590508160016000838152602001908152602001600020600082015181600001908161042c9190610b1b565b5060208201518160010190816104429190610b1b565b506040820151816002015560608201518160030160006101000a81548173ffffffffffffffffffffffffffffffffffffffff021916908373ffffffffffffffffffffffffffffffffffffffff1602179055509050505050505050505050565b60008054906101000a900473ffffffffffffffffffffffffffffffffffffffff1681565b600080fd5b600080fd5b6000819050919050565b6104e2816104cf565b81146104ed57600080fd5b50565b6000813590506104ff816104d9565b92915050565b60006020828403121561051b5761051a6104c5565b5b6000610529848285016104f0565b91505092915050565b600081519050919050565b600082825260208201905092915050565b60005b8381101561056c578082015181840152602081019050610551565b60008484015250505050565b6000601f19601f8301169050919050565b600061059482610532565b61059e818561053d565b93506105ae81856020860161054e565b6105b781610578565b840191505092915050565b6105cb816104cf565b82525050565b600073ffffffffffffffffffffffffffffffffffffffff82169050919050565b60006105fc826105d1565b9050919050565b61060c816105f1565b82525050565b6000608082019050818103600083015261062c8187610589565b905081810360208301526106408186610589565b905061064f60408301856105c2565b61065c6060830184610603565b95945050505050565b600060208201905061067a60008301846105c2565b92915050565b600080fd5b600080fd5b600080fd5b60008083601f8401126106a5576106a4610680565b5b8235905067ffffffffffffffff8111156106c2576106c1610685565b5b6020830191508360018202830111156106de576106dd61068a565b5b9250929050565b600080600080600060608688031215610701576107006104c5565b5b600086013567ffffffffffffffff81111561071f5761071e6104ca565b5b61072b8882890161068f565b9550955050602086013567ffffffffffffffff81111561074e5761074d6104ca565b5b61075a8882890161068f565b9350935050604061076d888289016104f0565b9150509295509295909350565b600060208201905061078f6000830184610603565b92915050565b7f4e487b7100000000000000000000000000000000000000000000000000000000600052602260045260246000fd5b600060028204905060018216806107dc57607f821691505b6020821081036107ef576107ee610795565b5b50919050565b600081519050610804816104d9565b92915050565b6000602082840312156108205761081f6104c5565b5b600061082e848285016107f5565b91505092915050565b7f4164647265737320646f6573206e6f74206f776e20616e206163636f756e742060008201527f4e46540000000000000000000000000000000000000000000000000000000000602082015250565b600061089360238361053d565b915061089e82610837565b604082019050919050565b600060208201905081810360008301526108c281610886565b9050919050565b7f4e487b7100000000000000000000000000000000000000000000000000000000600052601160045260246000fd5b6000610903826104cf565b91507fffffffffffffffffffffffffffffffffffffffffffffffffffffffffffffffff8203610935576109346108c9565b5b600182019050919050565b7f4e487b7100000000000000000000000000000000000000000000000000000000600052604160045260246000fd5b60008190508160005260206000209050919050565b60006020601f8301049050919050565b600082821b905092915050565b6000600883026109d17fffffffffffffffffffffffffffffffffffffffffffffffffffffffffffffffff82610994565b6109db8683610994565b95508019841693508086168417925050509392505050565b6000819050919050565b6000610a18610a13610a0e846104cf565b6109f3565b6104cf565b9050919050565b6000819050919050565b610a32836109fd565b610a46610a3e82610a1f565b8484546109a1565b825550505050565b600090565b610a5b610a4e565b610a66818484610a29565b505050565b5b81811015610a8a57610a7f600082610a53565b600181019050610a6c565b5050565b601f821115610acf57610aa08161096f565b610aa984610984565b81016020851015610ab8578190505b610acc610ac485610984565b830182610a6b565b50505b505050565b600082821c905092915050565b6000610af260001984600802610ad4565b1980831691505092915050565b6000610b0b8383610ae1565b9150826002028217905092915050565b610b2482610532565b67ffffffffffffffff811115610b3d57610b3c610940565b5b610b4782546107c4565b610b52828285610a8e565b600060209050601f831160018114610b855760008415610b73578287015190505b610b7d8582610aff565b865550610be5565b601f198416610b938661096f565b60005b82811015610bbb57848901518255600182019150602085019450602081019050610b96565b86831015610bd85784890151610bd4601f891682610ae1565b8355505b6001600288020188555050505b50505050505056fea2646970667358221220927bf8aa1c081cc9582e1c66c027971d353b4d829667e1d0f345cbc689292d6664736f6c63430008150033",
  "linkReferences": {},
  "deployedLinkReferences": {}
}