{
  "_format": "hh-sol-artifact-1",
  "contractName": "Blog",
  "sourceName": "contracts/Blog.sol",
  "abi": [
    {
      "inputs": [],
      "stateMutability": "nonpayable",
      "type": "constructor"
    },
    {
      "inputs": [
        {
          "internalType": "address",
          "name": "sender",
          "type": "address"
        },
        {
          "internalType": "uint256",
          "name": "tokenId",
          "type": "uint256"
        },
        {
          "internalType": "address",
          "name": "owner",
          "type": "address"
        }
      ],
      "name": "ERC721IncorrectOwner",
      "type": "error"
    },
    {
      "inputs": [
        {
          "internalType": "address",
          "name": "operator",
          "type": "address"
        },
        {
          "internalType": "uint256",
          "name": "tokenId",
          "type": "uint256"
        }
      ],
      "name": "ERC721InsufficientApproval",
      "type": "error"
    },
    {
      "inputs": [
        {
          "internalType": "address",
          "name": "approver",
          "type": "address"
        }
      ],
      "name": "ERC721InvalidApprover",
      "type": "error"
    },
    {
      "inputs": [
        {
          "internalType": "address",
          "name": "operator",
          "type": "address"
        }
      ],
      "name": "ERC721InvalidOperator",
      "type": "error"
    },
    {
      "inputs": [
        {
          "internalType": "address",
          "name": "owner",
          "type": "address"
        }
      ],
      "name": "ERC721InvalidOwner",
      "type": "error"
    },
    {
      "inputs": [
        {
          "internalType": "address",
          "name": "receiver",
          "type": "address"
        }
      ],
      "name": "ERC721InvalidReceiver",
      "type": "error"
    },
    {
      "inputs": [
        {
          "internalType": "address",
          "name": "sender",
          "type": "address"
        }
      ],
      "name": "ERC721InvalidSender",
      "type": "error"
    },
    {
      "inputs": [
        {
          "internalType": "uint256",
          "name": "tokenId",
          "type": "uint256"
        }
      ],
      "name": "ERC721NonexistentToken",
      "type": "error"
    },
    {
      "anonymous": false,
      "inputs": [
        {
          "indexed": true,
          "internalType": "address",
          "name": "owner",
          "type": "address"
        },
        {
          "indexed": true,
          "internalType": "address",
          "name": "approved",
          "type": "address"
        },
        {
          "indexed": true,
          "internalType": "uint256",
          "name": "tokenId",
          "type": "uint256"
        }
      ],
      "name": "Approval",
      "type": "event"
    },
    {
      "anonymous": false,
      "inputs": [
        {
          "indexed": true,
          "internalType": "address",
          "name": "owner",
          "type": "address"
        },
        {
          "indexed": true,
          "internalType": "address",
          "name": "operator",
          "type": "address"
        },
        {
          "indexed": false,
          "internalType": "bool",
          "name": "approved",
          "type": "bool"
        }
      ],
      "name": "ApprovalForAll",
      "type": "event"
    },
    {
      "anonymous": false,
      "inputs": [
        {
          "indexed": true,
          "internalType": "address",
          "name": "from",
          "type": "address"
        },
        {
          "indexed": true,
          "internalType": "address",
          "name": "to",
          "type": "address"
        },
        {
          "indexed": true,
          "internalType": "uint256",
          "name": "tokenId",
          "type": "uint256"
        }
      ],
      "name": "Transfer",
      "type": "event"
    },
    {
      "inputs": [
        {
          "internalType": "address",
          "name": "to",
          "type": "address"
        },
        {
          "internalType": "uint256",
          "name": "tokenId",
          "type": "uint256"
        }
      ],
      "name": "approve",
      "outputs": [],
      "stateMutability": "nonpayable",
      "type": "function"
    },
    {
      "inputs": [
        {
          "internalType": "address",
          "name": "owner",
          "type": "address"
        }
      ],
      "name": "balanceOf",
      "outputs": [
        {
          "internalType": "uint256",
          "name": "",
          "type": "uint256"
        }
      ],
      "stateMutability": "view",
      "type": "function"
    },
    {
      "inputs": [
        {
          "internalType": "uint256",
          "name": "tokenId",
          "type": "uint256"
        }
      ],
      "name": "getApproved",
      "outputs": [
        {
          "internalType": "address",
          "name": "",
          "type": "address"
        }
      ],
      "stateMutability": "view",
      "type": "function"
    },
    {
      "inputs": [
        {
          "internalType": "address",
          "name": "owner",
          "type": "address"
        },
        {
          "internalType": "address",
          "name": "operator",
          "type": "address"
        }
      ],
      "name": "isApprovedForAll",
      "outputs": [
        {
          "internalType": "bool",
          "name": "",
          "type": "bool"
        }
      ],
      "stateMutability": "view",
      "type": "function"
    },
    {
      "inputs": [
        {
          "internalType": "string",
          "name": "_title",
          "type": "string"
        },
        {
          "internalType": "string",
          "name": "_body",
          "type": "string"
        },
        {
          "internalType": "uint256",
          "name": "_timestamp",
          "type": "uint256"
        }
      ],
      "name": "mintPost",
      "outputs": [],
      "stateMutability": "nonpayable",
      "type": "function"
    },
    {
      "inputs": [],
      "name": "name",
      "outputs": [
        {
          "internalType": "string",
          "name": "",
          "type": "string"
        }
      ],
      "stateMutability": "view",
      "type": "function"
    },
    {
      "inputs": [],
      "name": "nextPostId",
      "outputs": [
        {
          "internalType": "uint256",
          "name": "",
          "type": "uint256"
        }
      ],
      "stateMutability": "view",
      "type": "function"
    },
    {
      "inputs": [],
      "name": "owner",
      "outputs": [
        {
          "internalType": "address",
          "name": "",
          "type": "address"
        }
      ],
      "stateMutability": "view",
      "type": "function"
    },
    {
      "inputs": [
        {
          "internalType": "uint256",
          "name": "tokenId",
          "type": "uint256"
        }
      ],
      "name": "ownerOf",
      "outputs": [
        {
          "internalType": "address",
          "name": "",
          "type": "address"
        }
      ],
      "stateMutability": "view",
      "type": "function"
    },
    {
      "inputs": [
        {
          "internalType": "uint256",
          "name": "",
          "type": "uint256"
        }
      ],
      "name": "posts",
      "outputs": [
        {
          "internalType": "string",
          "name": "title",
          "type": "string"
        },
        {
          "internalType": "string",
          "name": "body",
          "type": "string"
        },
        {
          "internalType": "uint256",
          "name": "timestamp",
          "type": "uint256"
        },
        {
          "internalType": "address",
          "name": "author",
          "type": "address"
        }
      ],
      "stateMutability": "view",
      "type": "function"
    },
    {
      "inputs": [
        {
          "internalType": "address",
          "name": "from",
          "type": "address"
        },
        {
          "internalType": "address",
          "name": "to",
          "type": "address"
        },
        {
          "internalType": "uint256",
          "name": "tokenId",
          "type": "uint256"
        }
      ],
      "name": "safeTransferFrom",
      "outputs": [],
      "stateMutability": "nonpayable",
      "type": "function"
    },
    {
      "inputs": [
        {
          "internalType": "address",
          "name": "from",
          "type": "address"
        },
        {
          "internalType": "address",
          "name": "to",
          "type": "address"
        },
        {
          "internalType": "uint256",
          "name": "tokenId",
          "type": "uint256"
        },
        {
          "internalType": "bytes",
          "name": "data",
          "type": "bytes"
        }
      ],
      "name": "safeTransferFrom",
      "outputs": [],
      "stateMutability": "nonpayable",
      "type": "function"
    },
    {
      "inputs": [
        {
          "internalType": "address",
          "name": "operator",
          "type": "address"
        },
        {
          "internalType": "bool",
          "name": "approved",
          "type": "bool"
        }
      ],
      "name": "setApprovalForAll",
      "outputs": [],
      "stateMutability": "nonpayable",
      "type": "function"
    },
    {
      "inputs": [
        {
          "internalType": "bytes4",
          "name": "interfaceId",
          "type": "bytes4"
        }
      ],
      "name": "supportsInterface",
      "outputs": [
        {
          "internalType": "bool",
          "name": "",
          "type": "bool"
        }
      ],
      "stateMutability": "view",
      "type": "function"
    },
    {
      "inputs": [],
      "name": "symbol",
      "outputs": [
        {
          "internalType": "string",
          "name": "",
          "type": "string"
        }
      ],
      "stateMutability": "view",
      "type": "function"
    },
    {
      "inputs": [
        {
          "internalType": "uint256",
          "name": "tokenId",
          "type": "uint256"
        }
      ],
      "name": "tokenURI",
      "outputs": [
        {
          "internalType": "string",
          "name": "",
          "type": "string"
        }
      ],
      "stateMutability": "view",
      "type": "function"
    },
    {
      "inputs": [
        {
          "internalType": "address",
          "name": "from",
          "type": "address"
        },
        {
          "internalType": "address",
          "name": "to",
          "type": "address"
        },
        {
          "internalType": "uint256",
          "name": "tokenId",
          "type": "uint256"
        }
      ],
      "name": "transferFrom",
      "outputs": [],
      "stateMutability": "nonpayable",
      "type": "function"
    }
  ],
  "bytecode": "0x60806040523480156200001157600080fd5b506040518060400160405280600e81526020017f53706565644275726e20506f73740000000000000000000000000000000000008152506040518060400160405280600781526020017f5342524e5053540000000000000000000000000000000000000000000000000081525081600090816200008f919062000365565b508060019081620000a1919062000365565b50505033600660006101000a81548173ffffffffffffffffffffffffffffffffffffffff021916908373ffffffffffffffffffffffffffffffffffffffff1602179055506200044c565b600081519050919050565b7f4e487b7100000000000000000000000000000000000000000000000000000000600052604160045260246000fd5b7f4e487b7100000000000000000000000000000000000000000000000000000000600052602260045260246000fd5b600060028204905060018216806200016d57607f821691505b60208210810362000183576200018262000125565b5b50919050565b60008190508160005260206000209050919050565b60006020601f8301049050919050565b600082821b905092915050565b600060088302620001ed7fffffffffffffffffffffffffffffffffffffffffffffffffffffffffffffffff82620001ae565b620001f98683620001ae565b95508019841693508086168417925050509392505050565b6000819050919050565b6000819050919050565b600062000246620002406200023a8462000211565b6200021b565b62000211565b9050919050565b6000819050919050565b620002628362000225565b6200027a62000271826200024d565b848454620001bb565b825550505050565b600090565b6200029162000282565b6200029e81848462000257565b505050565b5b81811015620002c657620002ba60008262000287565b600181019050620002a4565b5050565b601f8211156200031557620002df8162000189565b620002ea846200019e565b81016020851015620002fa578190505b6200031262000309856200019e565b830182620002a3565b50505b505050565b600082821c905092915050565b60006200033a600019846008026200031a565b1980831691505092915050565b600062000355838362000327565b9150826002028217905092915050565b6200037082620000eb565b67ffffffffffffffff8111156200038c576200038b620000f6565b5b62000398825462000154565b620003a5828285620002ca565b600060209050601f831160018114620003dd5760008415620003c8578287015190505b620003d4858262000347565b86555062000444565b601f198416620003ed8662000189565b60005b828110156200041757848901518255600182019150602085019450602081019050620003f0565b8683101562000437578489015162000433601f89168262000327565b8355505b6001600288020188555050505b505050505050565b61258a806200045c6000396000f3fe608060405234801561001057600080fd5b506004361061010b5760003560e01c80636352211e116100a257806395d89b411161007157806395d89b41146102cd578063a22cb465146102eb578063b88d4fde14610307578063c87b56dd14610323578063e985e9c5146103535761010b565b80636352211e146102335780636f3292921461026357806370a082311461027f5780638da5cb5b146102af5761010b565b80630b1e7f83116100de5780630b1e7f83146101aa57806323b872dd146101dd57806342842e0e146101f95780635c09bd98146102155761010b565b806301ffc9a71461011057806306fdde0314610140578063081812fc1461015e578063095ea7b31461018e575b600080fd5b61012a60048036038101906101259190611997565b610383565b60405161013791906119df565b60405180910390f35b610148610465565b6040516101559190611a8a565b60405180910390f35b61017860048036038101906101739190611ae2565b6104f7565b6040516101859190611b50565b60405180910390f35b6101a860048036038101906101a39190611b97565b610513565b005b6101c460048036038101906101bf9190611ae2565b610529565b6040516101d49493929190611be6565b60405180910390f35b6101f760048036038101906101f29190611c39565b610689565b005b610213600480360381019061020e9190611c39565b61078b565b005b61021d6107ab565b60405161022a9190611c8c565b60405180910390f35b61024d60048036038101906102489190611ae2565b6107b1565b60405161025a9190611b50565b60405180910390f35b61027d60048036038101906102789190611d0c565b6107c3565b005b61029960048036038101906102949190611da1565b610948565b6040516102a69190611c8c565b60405180910390f35b6102b7610a02565b6040516102c49190611b50565b60405180910390f35b6102d5610a28565b6040516102e29190611a8a565b60405180910390f35b61030560048036038101906103009190611dfa565b610aba565b005b610321600480360381019061031c9190611f6a565b610ad0565b005b61033d60048036038101906103389190611ae2565b610aed565b60405161034a9190611a8a565b60405180910390f35b61036d60048036038101906103689190611fed565b610b56565b60405161037a91906119df565b60405180910390f35b60007f80ac58cd000000000000000000000000000000000000000000000000000000007bffffffffffffffffffffffffffffffffffffffffffffffffffffffff1916827bffffffffffffffffffffffffffffffffffffffffffffffffffffffff1916148061044e57507f5b5e139f000000000000000000000000000000000000000000000000000000007bffffffffffffffffffffffffffffffffffffffffffffffffffffffff1916827bffffffffffffffffffffffffffffffffffffffffffffffffffffffff1916145b8061045e575061045d82610bea565b5b9050919050565b6060600080546104749061205c565b80601f01602080910402602001604051908101604052809291908181526020018280546104a09061205c565b80156104ed5780601f106104c2576101008083540402835291602001916104ed565b820191906000526020600020905b8154815290600101906020018083116104d057829003601f168201915b5050505050905090565b600061050282610c54565b5061050c82610cdc565b9050919050565b6105258282610520610d19565b610d21565b5050565b600760205280600052604060002060009150905080600001805461054c9061205c565b80601f01602080910402602001604051908101604052809291908181526020018280546105789061205c565b80156105c55780601f1061059a576101008083540402835291602001916105c5565b820191906000526020600020905b8154815290600101906020018083116105a857829003601f168201915b5050505050908060010180546105da9061205c565b80601f01602080910402602001604051908101604052809291908181526020018280546106069061205c565b80156106535780601f1061062857610100808354040283529160200191610653565b820191906000526020600020905b81548152906001019060200180831161063657829003601f168201915b5050505050908060020154908060030160009054906101000a900473ffffffffffffffffffffffffffffffffffffffff16905084565b600073ffffffffffffffffffffffffffffffffffffffff168273ffffffffffffffffffffffffffffffffffffffff16036106fb5760006040517f64a0ae920000000000000000000000000000000000000000000000000000000081526004016106f29190611b50565b60405180910390fd5b600061070f838361070a610d19565b610d33565b90508373ffffffffffffffffffffffffffffffffffffffff168173ffffffffffffffffffffffffffffffffffffffff1614610785578382826040517f64283d7b00000000000000000000000000000000000000000000000000000000815260040161077c9392919061208d565b60405180910390fd5b50505050565b6107a683838360405180602001604052806000815250610ad0565b505050565b60085481565b60006107bc82610c54565b9050919050565b6000604051806080016040528087878080601f016020809104026020016040519081016040528093929190818152602001838380828437600081840152601f19601f82011690508083019250505050505050815260200185858080601f016020809104026020016040519081016040528093929190818152602001838380828437600081840152601f19601f8201169050808301925050505050505081526020018381526020013373ffffffffffffffffffffffffffffffffffffffff16815250905060006008600081548092919061089b906120f3565b919050559050816007600083815260200190815260200160002060008201518160000190816108ca91906122e7565b5060208201518160010190816108e091906122e7565b506040820151816002015560608201518160030160006101000a81548173ffffffffffffffffffffffffffffffffffffffff021916908373ffffffffffffffffffffffffffffffffffffffff16021790555090505061093f3382610f4d565b50505050505050565b60008073ffffffffffffffffffffffffffffffffffffffff168273ffffffffffffffffffffffffffffffffffffffff16036109bb5760006040517f89c62b640000000000000000000000000000000000000000000000000000000081526004016109b29190611b50565b60405180910390fd5b600360008373ffffffffffffffffffffffffffffffffffffffff1673ffffffffffffffffffffffffffffffffffffffff168152602001908152602001600020549050919050565b600660009054906101000a900473ffffffffffffffffffffffffffffffffffffffff1681565b606060018054610a379061205c565b80601f0160208091040260200160405190810160405280929190818152602001828054610a639061205c565b8015610ab05780601f10610a8557610100808354040283529160200191610ab0565b820191906000526020600020905b815481529060010190602001808311610a9357829003601f168201915b5050505050905090565b610acc610ac5610d19565b8383611046565b5050565b610adb848484610689565b610ae7848484846111b5565b50505050565b6060610af882610c54565b506000610b0361136c565b90506000815111610b235760405180602001604052806000815250610b4e565b80610b2d84611383565b604051602001610b3e9291906123f5565b6040516020818303038152906040525b915050919050565b6000600560008473ffffffffffffffffffffffffffffffffffffffff1673ffffffffffffffffffffffffffffffffffffffff16815260200190815260200160002060008373ffffffffffffffffffffffffffffffffffffffff1673ffffffffffffffffffffffffffffffffffffffff16815260200190815260200160002060009054906101000a900460ff16905092915050565b60007f01ffc9a7000000000000000000000000000000000000000000000000000000007bffffffffffffffffffffffffffffffffffffffffffffffffffffffff1916827bffffffffffffffffffffffffffffffffffffffffffffffffffffffff1916149050919050565b600080610c6083611451565b9050600073ffffffffffffffffffffffffffffffffffffffff168173ffffffffffffffffffffffffffffffffffffffff1603610cd357826040517f7e273289000000000000000000000000000000000000000000000000000000008152600401610cca9190611c8c565b60405180910390fd5b80915050919050565b60006004600083815260200190815260200160002060009054906101000a900473ffffffffffffffffffffffffffffffffffffffff169050919050565b600033905090565b610d2e838383600161148e565b505050565b600080610d3f84611451565b9050600073ffffffffffffffffffffffffffffffffffffffff168373ffffffffffffffffffffffffffffffffffffffff1614610d8157610d80818486611653565b5b600073ffffffffffffffffffffffffffffffffffffffff168173ffffffffffffffffffffffffffffffffffffffff1614610e1257610dc360008560008061148e565b6001600360008373ffffffffffffffffffffffffffffffffffffffff1673ffffffffffffffffffffffffffffffffffffffff168152602001908152602001600020600082825403925050819055505b600073ffffffffffffffffffffffffffffffffffffffff168573ffffffffffffffffffffffffffffffffffffffff1614610e95576001600360008773ffffffffffffffffffffffffffffffffffffffff1673ffffffffffffffffffffffffffffffffffffffff168152602001908152602001600020600082825401925050819055505b846002600086815260200190815260200160002060006101000a81548173ffffffffffffffffffffffffffffffffffffffff021916908373ffffffffffffffffffffffffffffffffffffffff160217905550838573ffffffffffffffffffffffffffffffffffffffff168273ffffffffffffffffffffffffffffffffffffffff167fddf252ad1be2c89b69c2b068fc378daa952ba7f163c4a11628f55a4df523b3ef60405160405180910390a4809150509392505050565b600073ffffffffffffffffffffffffffffffffffffffff168273ffffffffffffffffffffffffffffffffffffffff1603610fbf5760006040517f64a0ae92000000000000000000000000000000000000000000000000000000008152600401610fb69190611b50565b60405180910390fd5b6000610fcd83836000610d33565b9050600073ffffffffffffffffffffffffffffffffffffffff168173ffffffffffffffffffffffffffffffffffffffff16146110415760006040517f73c6ac6e0000000000000000000000000000000000000000000000000000000081526004016110389190611b50565b60405180910390fd5b505050565b600073ffffffffffffffffffffffffffffffffffffffff168273ffffffffffffffffffffffffffffffffffffffff16036110b757816040517f5b08ba180000000000000000000000000000000000000000000000000000000081526004016110ae9190611b50565b60405180910390fd5b80600560008573ffffffffffffffffffffffffffffffffffffffff1673ffffffffffffffffffffffffffffffffffffffff16815260200190815260200160002060008473ffffffffffffffffffffffffffffffffffffffff1673ffffffffffffffffffffffffffffffffffffffff16815260200190815260200160002060006101000a81548160ff0219169083151502179055508173ffffffffffffffffffffffffffffffffffffffff168373ffffffffffffffffffffffffffffffffffffffff167f17307eab39ab6107e8899845ad3d59bd9653f200f220920489ca2b5937696c31836040516111a891906119df565b60405180910390a3505050565b60008373ffffffffffffffffffffffffffffffffffffffff163b1115611366578273ffffffffffffffffffffffffffffffffffffffff1663150b7a026111f9610d19565b8685856040518563ffffffff1660e01b815260040161121b949392919061246e565b6020604051808303816000875af192505050801561125757506040513d601f19601f8201168201806040525081019061125491906124cf565b60015b6112db573d8060008114611287576040519150601f19603f3d011682016040523d82523d6000602084013e61128c565b606091505b5060008151036112d357836040517f64a0ae920000000000000000000000000000000000000000000000000000000081526004016112ca9190611b50565b60405180910390fd5b805181602001fd5b63150b7a0260e01b7bffffffffffffffffffffffffffffffffffffffffffffffffffffffff1916817bffffffffffffffffffffffffffffffffffffffffffffffffffffffff19161461136457836040517f64a0ae9200000000000000000000000000000000000000000000000000000000815260040161135b9190611b50565b60405180910390fd5b505b50505050565b606060405180602001604052806000815250905090565b60606000600161139284611717565b01905060008167ffffffffffffffff8111156113b1576113b0611e3f565b5b6040519080825280601f01601f1916602001820160405280156113e35781602001600182028036833780820191505090505b509050600082602001820190505b600115611446578080600190039150507f3031323334353637383961626364656600000000000000000000000000000000600a86061a8153600a858161143a576114396124fc565b5b049450600085036113f1575b819350505050919050565b60006002600083815260200190815260200160002060009054906101000a900473ffffffffffffffffffffffffffffffffffffffff169050919050565b80806114c75750600073ffffffffffffffffffffffffffffffffffffffff168273ffffffffffffffffffffffffffffffffffffffff1614155b156115fb5760006114d784610c54565b9050600073ffffffffffffffffffffffffffffffffffffffff168373ffffffffffffffffffffffffffffffffffffffff161415801561154257508273ffffffffffffffffffffffffffffffffffffffff168173ffffffffffffffffffffffffffffffffffffffff1614155b801561155557506115538184610b56565b155b1561159757826040517fa9fbf51f00000000000000000000000000000000000000000000000000000000815260040161158e9190611b50565b60405180910390fd5b81156115f957838573ffffffffffffffffffffffffffffffffffffffff168273ffffffffffffffffffffffffffffffffffffffff167f8c5be1e5ebec7d5bd14f71427d1e84f3dd0314c0f7b2291e5b200ac8c7c3b92560405160405180910390a45b505b836004600085815260200190815260200160002060006101000a81548173ffffffffffffffffffffffffffffffffffffffff021916908373ffffffffffffffffffffffffffffffffffffffff16021790555050505050565b61165e83838361186a565b61171257600073ffffffffffffffffffffffffffffffffffffffff168373ffffffffffffffffffffffffffffffffffffffff16036116d357806040517f7e2732890000000000000000000000000000000000000000000000000000000081526004016116ca9190611c8c565b60405180910390fd5b81816040517f177e802f00000000000000000000000000000000000000000000000000000000815260040161170992919061252b565b60405180910390fd5b505050565b600080600090507a184f03e93ff9f4daa797ed6e38ed64bf6a1f0100000000000000008310611775577a184f03e93ff9f4daa797ed6e38ed64bf6a1f010000000000000000838161176b5761176a6124fc565b5b0492506040810190505b6d04ee2d6d415b85acef810000000083106117b2576d04ee2d6d415b85acef810000000083816117a8576117a76124fc565b5b0492506020810190505b662386f26fc1000083106117e157662386f26fc1000083816117d7576117d66124fc565b5b0492506010810190505b6305f5e100831061180a576305f5e1008381611800576117ff6124fc565b5b0492506008810190505b612710831061182f576127108381611825576118246124fc565b5b0492506004810190505b606483106118525760648381611848576118476124fc565b5b0492506002810190505b600a8310611861576001810190505b80915050919050565b60008073ffffffffffffffffffffffffffffffffffffffff168373ffffffffffffffffffffffffffffffffffffffff161415801561192257508273ffffffffffffffffffffffffffffffffffffffff168473ffffffffffffffffffffffffffffffffffffffff1614806118e357506118e28484610b56565b5b8061192157508273ffffffffffffffffffffffffffffffffffffffff1661190983610cdc565b73ffffffffffffffffffffffffffffffffffffffff16145b5b90509392505050565b6000604051905090565b600080fd5b600080fd5b60007fffffffff0000000000000000000000000000000000000000000000000000000082169050919050565b6119748161193f565b811461197f57600080fd5b50565b6000813590506119918161196b565b92915050565b6000602082840312156119ad576119ac611935565b5b60006119bb84828501611982565b91505092915050565b60008115159050919050565b6119d9816119c4565b82525050565b60006020820190506119f460008301846119d0565b92915050565b600081519050919050565b600082825260208201905092915050565b60005b83811015611a34578082015181840152602081019050611a19565b60008484015250505050565b6000601f19601f8301169050919050565b6000611a5c826119fa565b611a668185611a05565b9350611a76818560208601611a16565b611a7f81611a40565b840191505092915050565b60006020820190508181036000830152611aa48184611a51565b905092915050565b6000819050919050565b611abf81611aac565b8114611aca57600080fd5b50565b600081359050611adc81611ab6565b92915050565b600060208284031215611af857611af7611935565b5b6000611b0684828501611acd565b91505092915050565b600073ffffffffffffffffffffffffffffffffffffffff82169050919050565b6000611b3a82611b0f565b9050919050565b611b4a81611b2f565b82525050565b6000602082019050611b656000830184611b41565b92915050565b611b7481611b2f565b8114611b7f57600080fd5b50565b600081359050611b9181611b6b565b92915050565b60008060408385031215611bae57611bad611935565b5b6000611bbc85828601611b82565b9250506020611bcd85828601611acd565b9150509250929050565b611be081611aac565b82525050565b60006080820190508181036000830152611c008187611a51565b90508181036020830152611c148186611a51565b9050611c236040830185611bd7565b611c306060830184611b41565b95945050505050565b600080600060608486031215611c5257611c51611935565b5b6000611c6086828701611b82565b9350506020611c7186828701611b82565b9250506040611c8286828701611acd565b9150509250925092565b6000602082019050611ca16000830184611bd7565b92915050565b600080fd5b600080fd5b600080fd5b60008083601f840112611ccc57611ccb611ca7565b5b8235905067ffffffffffffffff811115611ce957611ce8611cac565b5b602083019150836001820283011115611d0557611d04611cb1565b5b9250929050565b600080600080600060608688031215611d2857611d27611935565b5b600086013567ffffffffffffffff811115611d4657611d4561193a565b5b611d5288828901611cb6565b9550955050602086013567ffffffffffffffff811115611d7557611d7461193a565b5b611d8188828901611cb6565b93509350506040611d9488828901611acd565b9150509295509295909350565b600060208284031215611db757611db6611935565b5b6000611dc584828501611b82565b91505092915050565b611dd7816119c4565b8114611de257600080fd5b50565b600081359050611df481611dce565b92915050565b60008060408385031215611e1157611e10611935565b5b6000611e1f85828601611b82565b9250506020611e3085828601611de5565b9150509250929050565b600080fd5b7f4e487b7100000000000000000000000000000000000000000000000000000000600052604160045260246000fd5b611e7782611a40565b810181811067ffffffffffffffff82111715611e9657611e95611e3f565b5b80604052505050565b6000611ea961192b565b9050611eb58282611e6e565b919050565b600067ffffffffffffffff821115611ed557611ed4611e3f565b5b611ede82611a40565b9050602081019050919050565b82818337600083830152505050565b6000611f0d611f0884611eba565b611e9f565b905082815260208101848484011115611f2957611f28611e3a565b5b611f34848285611eeb565b509392505050565b600082601f830112611f5157611f50611ca7565b5b8135611f61848260208601611efa565b91505092915050565b60008060008060808587031215611f8457611f83611935565b5b6000611f9287828801611b82565b9450506020611fa387828801611b82565b9350506040611fb487828801611acd565b925050606085013567ffffffffffffffff811115611fd557611fd461193a565b5b611fe187828801611f3c565b91505092959194509250565b6000806040838503121561200457612003611935565b5b600061201285828601611b82565b925050602061202385828601611b82565b9150509250929050565b7f4e487b7100000000000000000000000000000000000000000000000000000000600052602260045260246000fd5b6000600282049050600182168061207457607f821691505b6020821081036120875761208661202d565b5b50919050565b60006060820190506120a26000830186611b41565b6120af6020830185611bd7565b6120bc6040830184611b41565b949350505050565b7f4e487b7100000000000000000000000000000000000000000000000000000000600052601160045260246000fd5b60006120fe82611aac565b91507fffffffffffffffffffffffffffffffffffffffffffffffffffffffffffffffff82036121305761212f6120c4565b5b600182019050919050565b60008190508160005260206000209050919050565b60006020601f8301049050919050565b600082821b905092915050565b60006008830261219d7fffffffffffffffffffffffffffffffffffffffffffffffffffffffffffffffff82612160565b6121a78683612160565b95508019841693508086168417925050509392505050565b6000819050919050565b60006121e46121df6121da84611aac565b6121bf565b611aac565b9050919050565b6000819050919050565b6121fe836121c9565b61221261220a826121eb565b84845461216d565b825550505050565b600090565b61222761221a565b6122328184846121f5565b505050565b5b818110156122565761224b60008261221f565b600181019050612238565b5050565b601f82111561229b5761226c8161213b565b61227584612150565b81016020851015612284578190505b61229861229085612150565b830182612237565b50505b505050565b600082821c905092915050565b60006122be600019846008026122a0565b1980831691505092915050565b60006122d783836122ad565b9150826002028217905092915050565b6122f0826119fa565b67ffffffffffffffff81111561230957612308611e3f565b5b612313825461205c565b61231e82828561225a565b600060209050601f831160018114612351576000841561233f578287015190505b61234985826122cb565b8655506123b1565b601f19841661235f8661213b565b60005b8281101561238757848901518255600182019150602085019450602081019050612362565b868310156123a457848901516123a0601f8916826122ad565b8355505b6001600288020188555050505b505050505050565b600081905092915050565b60006123cf826119fa565b6123d981856123b9565b93506123e9818560208601611a16565b80840191505092915050565b600061240182856123c4565b915061240d82846123c4565b91508190509392505050565b600081519050919050565b600082825260208201905092915050565b600061244082612419565b61244a8185612424565b935061245a818560208601611a16565b61246381611a40565b840191505092915050565b60006080820190506124836000830187611b41565b6124906020830186611b41565b61249d6040830185611bd7565b81810360608301526124af8184612435565b905095945050505050565b6000815190506124c98161196b565b92915050565b6000602082840312156124e5576124e4611935565b5b60006124f3848285016124ba565b91505092915050565b7f4e487b7100000000000000000000000000000000000000000000000000000000600052601260045260246000fd5b60006040820190506125406000830185611b41565b61254d6020830184611bd7565b939250505056fea26469706673582212203964a2532fa788d5856561c8207325a6a870010d121c5cb374ba900b7cf6659864736f6c63430008150033",
  "linkReferences": {},
  "deployedLinkReferences": {}
}