{
  "_format": "hh-sol-artifact-1",
  "contractName": "Marketplace",
  "sourceName": "contracts/Marketplace.sol",
  "abi": [
    {
      "inputs": [
        {
          "internalType": "address",
          "name": "_nftAddress",
          "type": "address"
        },
        {
          "internalType": "uint256",
          "name": "_price",
          "type": "uint256"
        }
      ],
      "stateMutability": "nonpayable",
      "type": "constructor"
    },
    {
      "inputs": [
        {
          "internalType": "uint256",
          "name": "",
          "type": "uint256"
        }
      ],
      "name": "isListed",
      "outputs": [
        {
          "internalType": "bool",
          "name": "",
          "type": "bool"
        }
      ],
      "stateMutability": "view",
      "type": "function"
    },
    {
      "inputs": [
        {
          "internalType": "uint256",
          "name": "_nftId",
          "type": "uint256"
        }
      ],
      "name": "list",
      "outputs": [],
      "stateMutability": "nonpayable",
      "type": "function"
    },
    {
      "inputs": [],
      "name": "nftAddress",
      "outputs": [
        {
          "internalType": "address",
          "name": "",
          "type": "address"
        }
      ],
      "stateMutability": "view",
      "type": "function"
    },
    {
      "inputs": [],
      "name": "price",
      "outputs": [
        {
          "internalType": "uint256",
          "name": "",
          "type": "uint256"
        }
      ],
      "stateMutability": "view",
      "type": "function"
    },
    {
      "inputs": [
        {
          "internalType": "uint256",
          "name": "_nftId",
          "type": "uint256"
        }
      ],
      "name": "purchase",
      "outputs": [],
      "stateMutability": "payable",
      "type": "function"
    }
  ],
  "bytecode": "0x608060405234801561001057600080fd5b5060405161087538038061087583398181016040528101906100329190610119565b816000806101000a81548173ffffffffffffffffffffffffffffffffffffffff021916908373ffffffffffffffffffffffffffffffffffffffff160217905550806002819055505050610159565b600080fd5b600073ffffffffffffffffffffffffffffffffffffffff82169050919050565b60006100b082610085565b9050919050565b6100c0816100a5565b81146100cb57600080fd5b50565b6000815190506100dd816100b7565b92915050565b6000819050919050565b6100f6816100e3565b811461010157600080fd5b50565b600081519050610113816100ed565b92915050565b600080604083850312156101305761012f610080565b5b600061013e858286016100ce565b925050602061014f85828601610104565b9150509250929050565b61070d806101686000396000f3fe60806040526004361061004a5760003560e01c80635bf8633a1461004f57806380c9419e1461007a578063a035b1fe146100a3578063efef39a1146100ce578063fcce4883146100ea575b600080fd5b34801561005b57600080fd5b50610064610127565b604051610071919061045f565b60405180910390f35b34801561008657600080fd5b506100a1600480360381019061009c91906104b5565b61014b565b005b3480156100af57600080fd5b506100b8610208565b6040516100c591906104f1565b60405180910390f35b6100e860048036038101906100e391906104b5565b61020e565b005b3480156100f657600080fd5b50610111600480360381019061010c91906104b5565b6103fe565b60405161011e9190610527565b60405180910390f35b60008054906101000a900473ffffffffffffffffffffffffffffffffffffffff1681565b600180600083815260200190815260200160002060006101000a81548160ff02191690831515021790555060008054906101000a900473ffffffffffffffffffffffffffffffffffffffff1673ffffffffffffffffffffffffffffffffffffffff166323b872dd3330846040518463ffffffff1660e01b81526004016101d393929190610542565b600060405180830381600087803b1580156101ed57600080fd5b505af1158015610201573d6000803e3d6000fd5b5050505050565b60025481565b6001600082815260200190815260200160002060009054906101000a900460ff1661026e576040517f08c379a0000000000000000000000000000000000000000000000000000000008152600401610265906105fc565b60405180910390fd5b6002543410156102b3576040517f08c379a00000000000000000000000000000000000000000000000000000000081526004016102aa9061068e565b60405180910390fd5b60006001600083815260200190815260200160002060006101000a81548160ff02191690831515021790555060008054906101000a900473ffffffffffffffffffffffffffffffffffffffff1673ffffffffffffffffffffffffffffffffffffffff1663095ea7b330836040518363ffffffff1660e01b815260040161033a9291906106ae565b600060405180830381600087803b15801561035457600080fd5b505af1158015610368573d6000803e3d6000fd5b5050505060008054906101000a900473ffffffffffffffffffffffffffffffffffffffff1673ffffffffffffffffffffffffffffffffffffffff166323b872dd3033846040518463ffffffff1660e01b81526004016103c993929190610542565b600060405180830381600087803b1580156103e357600080fd5b505af11580156103f7573d6000803e3d6000fd5b5050505050565b60016020528060005260406000206000915054906101000a900460ff1681565b600073ffffffffffffffffffffffffffffffffffffffff82169050919050565b60006104498261041e565b9050919050565b6104598161043e565b82525050565b60006020820190506104746000830184610450565b92915050565b600080fd5b6000819050919050565b6104928161047f565b811461049d57600080fd5b50565b6000813590506104af81610489565b92915050565b6000602082840312156104cb576104ca61047a565b5b60006104d9848285016104a0565b91505092915050565b6104eb8161047f565b82525050565b600060208201905061050660008301846104e2565b92915050565b60008115159050919050565b6105218161050c565b82525050565b600060208201905061053c6000830184610518565b92915050565b60006060820190506105576000830186610450565b6105646020830185610450565b61057160408301846104e2565b949350505050565b600082825260208201905092915050565b7f4e4654206973206e6f74206c697374656420696e20746865206d61726b65747060008201527f6c61636500000000000000000000000000000000000000000000000000000000602082015250565b60006105e6602483610579565b91506105f18261058a565b604082019050919050565b60006020820190508181036000830152610615816105d9565b9050919050565b7f4574686572207472616e7366657272656420697320696e73756666696369656e60008201527f7400000000000000000000000000000000000000000000000000000000000000602082015250565b6000610678602183610579565b91506106838261061c565b604082019050919050565b600060208201905081810360008301526106a78161066b565b9050919050565b60006040820190506106c36000830185610450565b6106d060208301846104e2565b939250505056fea2646970667358221220007902a95c94822d5d1b48e5f09a80f7d88604ecd9aca6ead68e39e9413844e364736f6c63430008150033",
  "linkReferences": {},
  "deployedLinkReferences": {}
}