{
  "_format": "hh-sol-artifact-1",
  "contractName": "Marketplace",
  "sourceName": "contracts/Marketplace.sol",
  "abi": [
    {
      "inputs": [
        {
          "internalType": "address",
          "name": "_nftAddress",
          "type": "address"
        },
        {
          "internalType": "uint256",
          "name": "_price",
          "type": "uint256"
        }
      ],
      "stateMutability": "nonpayable",
      "type": "constructor"
    },
    {
      "inputs": [
        {
          "internalType": "uint256",
          "name": "",
          "type": "uint256"
        }
      ],
      "name": "isListed",
      "outputs": [
        {
          "internalType": "bool",
          "name": "",
          "type": "bool"
        }
      ],
      "stateMutability": "view",
      "type": "function"
    },
    {
      "inputs": [
        {
          "internalType": "uint256",
          "name": "_nftId",
          "type": "uint256"
        }
      ],
      "name": "list",
      "outputs": [],
      "stateMutability": "nonpayable",
      "type": "function"
    },
    {
      "inputs": [],
      "name": "nftAddress",
      "outputs": [
        {
          "internalType": "address",
          "name": "",
          "type": "address"
        }
      ],
      "stateMutability": "view",
      "type": "function"
    },
    {
      "inputs": [],
      "name": "owner",
      "outputs": [
        {
          "internalType": "address",
          "name": "",
          "type": "address"
        }
      ],
      "stateMutability": "view",
      "type": "function"
    },
    {
      "inputs": [],
      "name": "price",
      "outputs": [
        {
          "internalType": "uint256",
          "name": "",
          "type": "uint256"
        }
      ],
      "stateMutability": "view",
      "type": "function"
    },
    {
      "inputs": [
        {
          "internalType": "uint256",
          "name": "_nftId",
          "type": "uint256"
        }
      ],
      "name": "purchase",
      "outputs": [],
      "stateMutability": "payable",
      "type": "function"
    }
  ],
  "bytecode": "0x608060405234801561001057600080fd5b506040516108ed3803806108ed8339818101604052810190610032919061015a565b336000806101000a81548173ffffffffffffffffffffffffffffffffffffffff021916908373ffffffffffffffffffffffffffffffffffffffff16021790555081600160006101000a81548173ffffffffffffffffffffffffffffffffffffffff021916908373ffffffffffffffffffffffffffffffffffffffff16021790555080600381905550505061019a565b600080fd5b600073ffffffffffffffffffffffffffffffffffffffff82169050919050565b60006100f1826100c6565b9050919050565b610101816100e6565b811461010c57600080fd5b50565b60008151905061011e816100f8565b92915050565b6000819050919050565b61013781610124565b811461014257600080fd5b50565b6000815190506101548161012e565b92915050565b60008060408385031215610171576101706100c1565b5b600061017f8582860161010f565b925050602061019085828601610145565b9150509250929050565b610744806101a96000396000f3fe6080604052600436106100555760003560e01c80635bf8633a1461005a57806380c9419e146100855780638da5cb5b146100ae578063a035b1fe146100d9578063efef39a114610104578063fcce488314610120575b600080fd5b34801561006657600080fd5b5061006f61015d565b60405161007c9190610496565b60405180910390f35b34801561009157600080fd5b506100ac60048036038101906100a791906104ec565b610183565b005b3480156100ba57600080fd5b506100c3610243565b6040516100d09190610496565b60405180910390f35b3480156100e557600080fd5b506100ee610267565b6040516100fb9190610528565b60405180910390f35b61011e600480360381019061011991906104ec565b61026d565b005b34801561012c57600080fd5b50610147600480360381019061014291906104ec565b610435565b604051610154919061055e565b60405180910390f35b600160009054906101000a900473ffffffffffffffffffffffffffffffffffffffff1681565b60016002600083815260200190815260200160002060006101000a81548160ff021916908315150217905550600160009054906101000a900473ffffffffffffffffffffffffffffffffffffffff1673ffffffffffffffffffffffffffffffffffffffff166323b872dd3330846040518463ffffffff1660e01b815260040161020e93929190610579565b600060405180830381600087803b15801561022857600080fd5b505af115801561023c573d6000803e3d6000fd5b5050505050565b60008054906101000a900473ffffffffffffffffffffffffffffffffffffffff1681565b60035481565b6002600082815260200190815260200160002060009054906101000a900460ff166102cd576040517f08c379a00000000000000000000000000000000000000000000000000000000081526004016102c490610633565b60405180910390fd5b600354341015610312576040517f08c379a0000000000000000000000000000000000000000000000000000000008152600401610309906106c5565b60405180910390fd5b600160009054906101000a900473ffffffffffffffffffffffffffffffffffffffff1673ffffffffffffffffffffffffffffffffffffffff1663095ea7b330836040518363ffffffff1660e01b815260040161036f9291906106e5565b600060405180830381600087803b15801561038957600080fd5b505af115801561039d573d6000803e3d6000fd5b50505050600160009054906101000a900473ffffffffffffffffffffffffffffffffffffffff1673ffffffffffffffffffffffffffffffffffffffff166323b872dd3033846040518463ffffffff1660e01b815260040161040093929190610579565b600060405180830381600087803b15801561041a57600080fd5b505af115801561042e573d6000803e3d6000fd5b5050505050565b60026020528060005260406000206000915054906101000a900460ff1681565b600073ffffffffffffffffffffffffffffffffffffffff82169050919050565b600061048082610455565b9050919050565b61049081610475565b82525050565b60006020820190506104ab6000830184610487565b92915050565b600080fd5b6000819050919050565b6104c9816104b6565b81146104d457600080fd5b50565b6000813590506104e6816104c0565b92915050565b600060208284031215610502576105016104b1565b5b6000610510848285016104d7565b91505092915050565b610522816104b6565b82525050565b600060208201905061053d6000830184610519565b92915050565b60008115159050919050565b61055881610543565b82525050565b6000602082019050610573600083018461054f565b92915050565b600060608201905061058e6000830186610487565b61059b6020830185610487565b6105a86040830184610519565b949350505050565b600082825260208201905092915050565b7f4e4654206973206e6f74206c697374656420696e20746865206d61726b65747060008201527f6c61636500000000000000000000000000000000000000000000000000000000602082015250565b600061061d6024836105b0565b9150610628826105c1565b604082019050919050565b6000602082019050818103600083015261064c81610610565b9050919050565b7f4574686572207472616e7366657272656420697320696e73756666696369656e60008201527f7400000000000000000000000000000000000000000000000000000000000000602082015250565b60006106af6021836105b0565b91506106ba82610653565b604082019050919050565b600060208201905081810360008301526106de816106a2565b9050919050565b60006040820190506106fa6000830185610487565b6107076020830184610519565b939250505056fea2646970667358221220fb928520cb9befc2b5adff024601c8b1f1a52d439de9438fe1499655f7f8d52464736f6c63430008150033",
  "linkReferences": {},
  "deployedLinkReferences": {}
}