{
  "_format": "hh-sol-artifact-1",
  "contractName": "Profile",
  "sourceName": "contracts/Profile.sol",
  "abi": [
    {
      "inputs": [
        {
          "internalType": "address",
          "name": "_accountAddress",
          "type": "address"
        }
      ],
      "stateMutability": "nonpayable",
      "type": "constructor"
    },
    {
      "inputs": [
        {
          "internalType": "string",
          "name": "_username",
          "type": "string"
        },
        {
          "internalType": "string",
          "name": "_displayPicture",
          "type": "string"
        }
      ],
      "name": "createUser",
      "outputs": [],
      "stateMutability": "nonpayable",
      "type": "function"
    },
    {
      "inputs": [
        {
          "internalType": "address",
          "name": "",
          "type": "address"
        }
      ],
      "name": "profiles",
      "outputs": [
        {
          "internalType": "string",
          "name": "username",
          "type": "string"
        },
        {
          "internalType": "string",
          "name": "displayPicture",
          "type": "string"
        }
      ],
      "stateMutability": "view",
      "type": "function"
    }
  ],
  "bytecode": "0x608060405234801561001057600080fd5b50604051610cd0380380610cd08339818101604052810190610032919061011d565b33600160006101000a81548173ffffffffffffffffffffffffffffffffffffffff021916908373ffffffffffffffffffffffffffffffffffffffff16021790555080600260006101000a81548173ffffffffffffffffffffffffffffffffffffffff021916908373ffffffffffffffffffffffffffffffffffffffff1602179055505061014a565b600080fd5b600073ffffffffffffffffffffffffffffffffffffffff82169050919050565b60006100ea826100bf565b9050919050565b6100fa816100df565b811461010557600080fd5b50565b600081519050610117816100f1565b92915050565b600060208284031215610133576101326100ba565b5b600061014184828501610108565b91505092915050565b610b77806101596000396000f3fe608060405234801561001057600080fd5b50600436106100365760003560e01c806387b162b51461003b578063bbe1562714610057575b600080fd5b610055600480360381019061005091906104b0565b610088565b005b610071600480360381019061006c919061058f565b61030d565b60405161007f92919061064c565b60405180910390f35b6000600260009054906101000a900473ffffffffffffffffffffffffffffffffffffffff1673ffffffffffffffffffffffffffffffffffffffff166370a08231336040518263ffffffff1660e01b81526004016100e59190610692565b602060405180830381865afa158015610102573d6000803e3d6000fd5b505050506040513d601f19601f8201168201806040525081019061012691906106e3565b90506000811161016b576040517f08c379a000000000000000000000000000000000000000000000000000000000815260040161016290610782565b60405180910390fd5b60008060003373ffffffffffffffffffffffffffffffffffffffff1673ffffffffffffffffffffffffffffffffffffffff16815260200190815260200160002060000180546101b9906107d1565b905011156101fc576040517f08c379a00000000000000000000000000000000000000000000000000000000081526004016101f390610874565b60405180910390fd5b604051806040016040528086868080601f016020809104026020016040519081016040528093929190818152602001838380828437600081840152601f19601f82011690508083019250505050505050815260200184848080601f016020809104026020016040519081016040528093929190818152602001838380828437600081840152601f19601f820116905080830192505050505050508152506000803373ffffffffffffffffffffffffffffffffffffffff1673ffffffffffffffffffffffffffffffffffffffff16815260200190815260200160002060008201518160000190816102ec9190610a6f565b5060208201518160010190816103029190610a6f565b509050505050505050565b6000602052806000526040600020600091509050806000018054610330906107d1565b80601f016020809104026020016040519081016040528092919081815260200182805461035c906107d1565b80156103a95780601f1061037e576101008083540402835291602001916103a9565b820191906000526020600020905b81548152906001019060200180831161038c57829003601f168201915b5050505050908060010180546103be906107d1565b80601f01602080910402602001604051908101604052809291908181526020018280546103ea906107d1565b80156104375780601f1061040c57610100808354040283529160200191610437565b820191906000526020600020905b81548152906001019060200180831161041a57829003601f168201915b5050505050905082565b600080fd5b600080fd5b600080fd5b600080fd5b600080fd5b60008083601f8401126104705761046f61044b565b5b8235905067ffffffffffffffff81111561048d5761048c610450565b5b6020830191508360018202830111156104a9576104a8610455565b5b9250929050565b600080600080604085870312156104ca576104c9610441565b5b600085013567ffffffffffffffff8111156104e8576104e7610446565b5b6104f48782880161045a565b9450945050602085013567ffffffffffffffff81111561051757610516610446565b5b6105238782880161045a565b925092505092959194509250565b600073ffffffffffffffffffffffffffffffffffffffff82169050919050565b600061055c82610531565b9050919050565b61056c81610551565b811461057757600080fd5b50565b60008135905061058981610563565b92915050565b6000602082840312156105a5576105a4610441565b5b60006105b38482850161057a565b91505092915050565b600081519050919050565b600082825260208201905092915050565b60005b838110156105f65780820151818401526020810190506105db565b60008484015250505050565b6000601f19601f8301169050919050565b600061061e826105bc565b61062881856105c7565b93506106388185602086016105d8565b61064181610602565b840191505092915050565b600060408201905081810360008301526106668185610613565b9050818103602083015261067a8184610613565b90509392505050565b61068c81610551565b82525050565b60006020820190506106a76000830184610683565b92915050565b6000819050919050565b6106c0816106ad565b81146106cb57600080fd5b50565b6000815190506106dd816106b7565b92915050565b6000602082840312156106f9576106f8610441565b5b6000610707848285016106ce565b91505092915050565b7f4164647265737320646f6573206e6f74206f776e20616e206163636f756e742060008201527f4e46540000000000000000000000000000000000000000000000000000000000602082015250565b600061076c6023836105c7565b915061077782610710565b604082019050919050565b6000602082019050818103600083015261079b8161075f565b9050919050565b7f4e487b7100000000000000000000000000000000000000000000000000000000600052602260045260246000fd5b600060028204905060018216806107e957607f821691505b6020821081036107fc576107fb6107a2565b5b50919050565b7f4164647265737320616c72656164792068617320616e206578697374696e672060008201527f70726f66696c6500000000000000000000000000000000000000000000000000602082015250565b600061085e6027836105c7565b915061086982610802565b604082019050919050565b6000602082019050818103600083015261088d81610851565b9050919050565b7f4e487b7100000000000000000000000000000000000000000000000000000000600052604160045260246000fd5b60008190508160005260206000209050919050565b60006020601f8301049050919050565b600082821b905092915050565b6000600883026109257fffffffffffffffffffffffffffffffffffffffffffffffffffffffffffffffff826108e8565b61092f86836108e8565b95508019841693508086168417925050509392505050565b6000819050919050565b600061096c610967610962846106ad565b610947565b6106ad565b9050919050565b6000819050919050565b61098683610951565b61099a61099282610973565b8484546108f5565b825550505050565b600090565b6109af6109a2565b6109ba81848461097d565b505050565b5b818110156109de576109d36000826109a7565b6001810190506109c0565b5050565b601f821115610a23576109f4816108c3565b6109fd846108d8565b81016020851015610a0c578190505b610a20610a18856108d8565b8301826109bf565b50505b505050565b600082821c905092915050565b6000610a4660001984600802610a28565b1980831691505092915050565b6000610a5f8383610a35565b9150826002028217905092915050565b610a78826105bc565b67ffffffffffffffff811115610a9157610a90610894565b5b610a9b82546107d1565b610aa68282856109e2565b600060209050601f831160018114610ad95760008415610ac7578287015190505b610ad18582610a53565b865550610b39565b601f198416610ae7866108c3565b60005b82811015610b0f57848901518255600182019150602085019450602081019050610aea565b86831015610b2c5784890151610b28601f891682610a35565b8355505b6001600288020188555050505b50505050505056fea264697066735822122085318c9cf612e568de13ac50a9808192a985c3361715e6241a59dfee8d5bfcf664736f6c63430008150033",
  "linkReferences": {},
  "deployedLinkReferences": {}
}