{
  "_format": "hh-sol-artifact-1",
  "contractName": "Profile",
  "sourceName": "contracts/Profile.sol",
  "abi": [
    {
      "inputs": [
        {
          "internalType": "address",
          "name": "_accountAddress",
          "type": "address"
        }
      ],
      "stateMutability": "nonpayable",
      "type": "constructor"
    },
    {
      "inputs": [
        {
          "internalType": "string",
          "name": "_username",
          "type": "string"
        }
      ],
      "name": "createUser",
      "outputs": [],
      "stateMutability": "nonpayable",
      "type": "function"
    },
    {
      "inputs": [
        {
          "internalType": "address",
          "name": "",
          "type": "address"
        }
      ],
      "name": "profileList",
      "outputs": [
        {
          "internalType": "string",
          "name": "username",
          "type": "string"
        }
      ],
      "stateMutability": "view",
      "type": "function"
    }
  ],
  "bytecode": "0x608060405234801561001057600080fd5b50604051610b96380380610b968339818101604052810190610032919061011d565b33600160006101000a81548173ffffffffffffffffffffffffffffffffffffffff021916908373ffffffffffffffffffffffffffffffffffffffff16021790555080600260006101000a81548173ffffffffffffffffffffffffffffffffffffffff021916908373ffffffffffffffffffffffffffffffffffffffff1602179055505061014a565b600080fd5b600073ffffffffffffffffffffffffffffffffffffffff82169050919050565b60006100ea826100bf565b9050919050565b6100fa816100df565b811461010557600080fd5b50565b600081519050610117816100f1565b92915050565b600060208284031215610133576101326100ba565b5b600061014184828501610108565b91505092915050565b610a3d806101596000396000f3fe608060405234801561001057600080fd5b50600436106100365760003560e01c8063507ffba51461003b578063688b8ee814610057575b600080fd5b610055600480360381019061005091906103bf565b610087565b005b610071600480360381019061006c919061046a565b6102aa565b60405161007e9190610527565b60405180910390f35b6000600260009054906101000a900473ffffffffffffffffffffffffffffffffffffffff1673ffffffffffffffffffffffffffffffffffffffff166370a08231336040518263ffffffff1660e01b81526004016100e49190610558565b602060405180830381865afa158015610101573d6000803e3d6000fd5b505050506040513d601f19601f8201168201806040525081019061012591906105a9565b90506000811161016a576040517f08c379a000000000000000000000000000000000000000000000000000000000815260040161016190610648565b60405180910390fd5b60008060003373ffffffffffffffffffffffffffffffffffffffff1673ffffffffffffffffffffffffffffffffffffffff16815260200190815260200160002060000180546101b890610697565b905011156101fb576040517f08c379a00000000000000000000000000000000000000000000000000000000081526004016101f29061073a565b60405180910390fd5b604051806020016040528084848080601f016020809104026020016040519081016040528093929190818152602001838380828437600081840152601f19601f820116905080830192505050505050508152506000803373ffffffffffffffffffffffffffffffffffffffff1673ffffffffffffffffffffffffffffffffffffffff16815260200190815260200160002060008201518160000190816102a19190610935565b50905050505050565b60006020528060005260406000206000915090508060000180546102cd90610697565b80601f01602080910402602001604051908101604052809291908181526020018280546102f990610697565b80156103465780601f1061031b57610100808354040283529160200191610346565b820191906000526020600020905b81548152906001019060200180831161032957829003601f168201915b5050505050905081565b600080fd5b600080fd5b600080fd5b600080fd5b600080fd5b60008083601f84011261037f5761037e61035a565b5b8235905067ffffffffffffffff81111561039c5761039b61035f565b5b6020830191508360018202830111156103b8576103b7610364565b5b9250929050565b600080602083850312156103d6576103d5610350565b5b600083013567ffffffffffffffff8111156103f4576103f3610355565b5b61040085828601610369565b92509250509250929050565b600073ffffffffffffffffffffffffffffffffffffffff82169050919050565b60006104378261040c565b9050919050565b6104478161042c565b811461045257600080fd5b50565b6000813590506104648161043e565b92915050565b6000602082840312156104805761047f610350565b5b600061048e84828501610455565b91505092915050565b600081519050919050565b600082825260208201905092915050565b60005b838110156104d15780820151818401526020810190506104b6565b60008484015250505050565b6000601f19601f8301169050919050565b60006104f982610497565b61050381856104a2565b93506105138185602086016104b3565b61051c816104dd565b840191505092915050565b6000602082019050818103600083015261054181846104ee565b905092915050565b6105528161042c565b82525050565b600060208201905061056d6000830184610549565b92915050565b6000819050919050565b61058681610573565b811461059157600080fd5b50565b6000815190506105a38161057d565b92915050565b6000602082840312156105bf576105be610350565b5b60006105cd84828501610594565b91505092915050565b7f4164647265737320646f6573206e6f74206f776e20616e206163636f756e742060008201527f4e46540000000000000000000000000000000000000000000000000000000000602082015250565b60006106326023836104a2565b915061063d826105d6565b604082019050919050565b6000602082019050818103600083015261066181610625565b9050919050565b7f4e487b7100000000000000000000000000000000000000000000000000000000600052602260045260246000fd5b600060028204905060018216806106af57607f821691505b6020821081036106c2576106c1610668565b5b50919050565b7f4164647265737320616c72656164792068617320616e206578697374696e672060008201527f70726f66696c6500000000000000000000000000000000000000000000000000602082015250565b60006107246027836104a2565b915061072f826106c8565b604082019050919050565b6000602082019050818103600083015261075381610717565b9050919050565b7f4e487b7100000000000000000000000000000000000000000000000000000000600052604160045260246000fd5b60008190508160005260206000209050919050565b60006020601f8301049050919050565b600082821b905092915050565b6000600883026107eb7fffffffffffffffffffffffffffffffffffffffffffffffffffffffffffffffff826107ae565b6107f586836107ae565b95508019841693508086168417925050509392505050565b6000819050919050565b600061083261082d61082884610573565b61080d565b610573565b9050919050565b6000819050919050565b61084c83610817565b61086061085882610839565b8484546107bb565b825550505050565b600090565b610875610868565b610880818484610843565b505050565b5b818110156108a45761089960008261086d565b600181019050610886565b5050565b601f8211156108e9576108ba81610789565b6108c38461079e565b810160208510156108d2578190505b6108e66108de8561079e565b830182610885565b50505b505050565b600082821c905092915050565b600061090c600019846008026108ee565b1980831691505092915050565b600061092583836108fb565b9150826002028217905092915050565b61093e82610497565b67ffffffffffffffff8111156109575761095661075a565b5b6109618254610697565b61096c8282856108a8565b600060209050601f83116001811461099f576000841561098d578287015190505b6109978582610919565b8655506109ff565b601f1984166109ad86610789565b60005b828110156109d5578489015182556001820191506020850194506020810190506109b0565b868310156109f257848901516109ee601f8916826108fb565b8355505b6001600288020188555050505b50505050505056fea26469706673582212203a26dacd1835cf948fe19f80f67b8fad4d4fe04c17123d39df8823b341f6eab964736f6c63430008150033",
  "linkReferences": {},
  "deployedLinkReferences": {}
}