{
  "_format": "hh-sol-artifact-1",
  "contractName": "Profile",
  "sourceName": "contracts/Profile.sol",
  "abi": [
    {
      "inputs": [
        {
          "internalType": "address",
          "name": "_accountAddress",
          "type": "address"
        }
      ],
      "stateMutability": "nonpayable",
      "type": "constructor"
    },
    {
      "inputs": [
        {
          "internalType": "string",
          "name": "_username",
          "type": "string"
        },
        {
          "internalType": "string",
          "name": "_displayPicture",
          "type": "string"
        }
      ],
      "name": "createUser",
      "outputs": [],
      "stateMutability": "nonpayable",
      "type": "function"
    },
    {
      "inputs": [
        {
          "internalType": "address",
          "name": "",
          "type": "address"
        }
      ],
      "name": "profiles",
      "outputs": [
        {
          "internalType": "string",
          "name": "username",
          "type": "string"
        },
        {
          "internalType": "string",
          "name": "displayPicture",
          "type": "string"
        }
      ],
      "stateMutability": "view",
      "type": "function"
    },
    {
      "inputs": [
        {
          "internalType": "string",
          "name": "_displayPicture",
          "type": "string"
        }
      ],
      "name": "setDisplayPicture",
      "outputs": [],
      "stateMutability": "nonpayable",
      "type": "function"
    },
    {
      "inputs": [
        {
          "internalType": "string",
          "name": "_username",
          "type": "string"
        }
      ],
      "name": "setUsername",
      "outputs": [],
      "stateMutability": "nonpayable",
      "type": "function"
    }
  ],
  "bytecode": "0x60806040523480156200001157600080fd5b50604051620010cb380380620010cb83398181016040528101906200003791906200012a565b33600160006101000a81548173ffffffffffffffffffffffffffffffffffffffff021916908373ffffffffffffffffffffffffffffffffffffffff16021790555080600260006101000a81548173ffffffffffffffffffffffffffffffffffffffff021916908373ffffffffffffffffffffffffffffffffffffffff160217905550506200015c565b600080fd5b600073ffffffffffffffffffffffffffffffffffffffff82169050919050565b6000620000f282620000c5565b9050919050565b6200010481620000e5565b81146200011057600080fd5b50565b6000815190506200012481620000f9565b92915050565b600060208284031215620001435762000142620000c0565b5b6000620001538482850162000113565b91505092915050565b610f5f806200016c6000396000f3fe608060405234801561001057600080fd5b506004361061004c5760003560e01c806387b162b514610051578063bbe156271461006d578063ed59313a1461009e578063eed3f62e146100ba575b600080fd5b61006b60048036038101906100669190610770565b6100d6565b005b6100876004803603810190610082919061084f565b61035b565b60405161009592919061090c565b60405180910390f35b6100b860048036038101906100b39190610943565b61048f565b005b6100d460048036038101906100cf9190610943565b6105c8565b005b6000600260009054906101000a900473ffffffffffffffffffffffffffffffffffffffff1673ffffffffffffffffffffffffffffffffffffffff166370a08231336040518263ffffffff1660e01b8152600401610133919061099f565b602060405180830381865afa158015610150573d6000803e3d6000fd5b505050506040513d601f19601f8201168201806040525081019061017491906109f0565b9050600081116101b9576040517f08c379a00000000000000000000000000000000000000000000000000000000081526004016101b090610a8f565b60405180910390fd5b60008060003373ffffffffffffffffffffffffffffffffffffffff1673ffffffffffffffffffffffffffffffffffffffff168152602001908152602001600020600001805461020790610ade565b9050111561024a576040517f08c379a000000000000000000000000000000000000000000000000000000000815260040161024190610b81565b60405180910390fd5b604051806040016040528086868080601f016020809104026020016040519081016040528093929190818152602001838380828437600081840152601f19601f82011690508083019250505050505050815260200184848080601f016020809104026020016040519081016040528093929190818152602001838380828437600081840152601f19601f820116905080830192505050505050508152506000803373ffffffffffffffffffffffffffffffffffffffff1673ffffffffffffffffffffffffffffffffffffffff168152602001908152602001600020600082015181600001908161033a9190610d7c565b5060208201518160010190816103509190610d7c565b509050505050505050565b600060205280600052604060002060009150905080600001805461037e90610ade565b80601f01602080910402602001604051908101604052809291908181526020018280546103aa90610ade565b80156103f75780601f106103cc576101008083540402835291602001916103f7565b820191906000526020600020905b8154815290600101906020018083116103da57829003601f168201915b50505050509080600101805461040c90610ade565b80601f016020809104026020016040519081016040528092919081815260200182805461043890610ade565b80156104855780601f1061045a57610100808354040283529160200191610485565b820191906000526020600020905b81548152906001019060200180831161046857829003601f168201915b5050505050905082565b6000600260009054906101000a900473ffffffffffffffffffffffffffffffffffffffff1673ffffffffffffffffffffffffffffffffffffffff166370a08231336040518263ffffffff1660e01b81526004016104ec919061099f565b602060405180830381865afa158015610509573d6000803e3d6000fd5b505050506040513d601f19601f8201168201806040525081019061052d91906109f0565b905060008111610572576040517f08c379a000000000000000000000000000000000000000000000000000000000815260040161056990610a8f565b60405180910390fd5b82826000803373ffffffffffffffffffffffffffffffffffffffff1673ffffffffffffffffffffffffffffffffffffffff16815260200190815260200160002060000191826105c2929190610e59565b50505050565b6000600260009054906101000a900473ffffffffffffffffffffffffffffffffffffffff1673ffffffffffffffffffffffffffffffffffffffff166370a08231336040518263ffffffff1660e01b8152600401610625919061099f565b602060405180830381865afa158015610642573d6000803e3d6000fd5b505050506040513d601f19601f8201168201806040525081019061066691906109f0565b9050600081116106ab576040517f08c379a00000000000000000000000000000000000000000000000000000000081526004016106a290610a8f565b60405180910390fd5b82826000803373ffffffffffffffffffffffffffffffffffffffff1673ffffffffffffffffffffffffffffffffffffffff16815260200190815260200160002060010191826106fb929190610e59565b50505050565b600080fd5b600080fd5b600080fd5b600080fd5b600080fd5b60008083601f8401126107305761072f61070b565b5b8235905067ffffffffffffffff81111561074d5761074c610710565b5b60208301915083600182028301111561076957610768610715565b5b9250929050565b6000806000806040858703121561078a57610789610701565b5b600085013567ffffffffffffffff8111156107a8576107a7610706565b5b6107b48782880161071a565b9450945050602085013567ffffffffffffffff8111156107d7576107d6610706565b5b6107e38782880161071a565b925092505092959194509250565b600073ffffffffffffffffffffffffffffffffffffffff82169050919050565b600061081c826107f1565b9050919050565b61082c81610811565b811461083757600080fd5b50565b60008135905061084981610823565b92915050565b60006020828403121561086557610864610701565b5b60006108738482850161083a565b91505092915050565b600081519050919050565b600082825260208201905092915050565b60005b838110156108b657808201518184015260208101905061089b565b60008484015250505050565b6000601f19601f8301169050919050565b60006108de8261087c565b6108e88185610887565b93506108f8818560208601610898565b610901816108c2565b840191505092915050565b6000604082019050818103600083015261092681856108d3565b9050818103602083015261093a81846108d3565b90509392505050565b6000806020838503121561095a57610959610701565b5b600083013567ffffffffffffffff81111561097857610977610706565b5b6109848582860161071a565b92509250509250929050565b61099981610811565b82525050565b60006020820190506109b46000830184610990565b92915050565b6000819050919050565b6109cd816109ba565b81146109d857600080fd5b50565b6000815190506109ea816109c4565b92915050565b600060208284031215610a0657610a05610701565b5b6000610a14848285016109db565b91505092915050565b7f4164647265737320646f6573206e6f74206f776e20616e206163636f756e742060008201527f4e46540000000000000000000000000000000000000000000000000000000000602082015250565b6000610a79602383610887565b9150610a8482610a1d565b604082019050919050565b60006020820190508181036000830152610aa881610a6c565b9050919050565b7f4e487b7100000000000000000000000000000000000000000000000000000000600052602260045260246000fd5b60006002820490506001821680610af657607f821691505b602082108103610b0957610b08610aaf565b5b50919050565b7f4164647265737320616c72656164792068617320616e206578697374696e672060008201527f70726f66696c6500000000000000000000000000000000000000000000000000602082015250565b6000610b6b602783610887565b9150610b7682610b0f565b604082019050919050565b60006020820190508181036000830152610b9a81610b5e565b9050919050565b7f4e487b7100000000000000000000000000000000000000000000000000000000600052604160045260246000fd5b60008190508160005260206000209050919050565b60006020601f8301049050919050565b600082821b905092915050565b600060088302610c327fffffffffffffffffffffffffffffffffffffffffffffffffffffffffffffffff82610bf5565b610c3c8683610bf5565b95508019841693508086168417925050509392505050565b6000819050919050565b6000610c79610c74610c6f846109ba565b610c54565b6109ba565b9050919050565b6000819050919050565b610c9383610c5e565b610ca7610c9f82610c80565b848454610c02565b825550505050565b600090565b610cbc610caf565b610cc7818484610c8a565b505050565b5b81811015610ceb57610ce0600082610cb4565b600181019050610ccd565b5050565b601f821115610d3057610d0181610bd0565b610d0a84610be5565b81016020851015610d19578190505b610d2d610d2585610be5565b830182610ccc565b50505b505050565b600082821c905092915050565b6000610d5360001984600802610d35565b1980831691505092915050565b6000610d6c8383610d42565b9150826002028217905092915050565b610d858261087c565b67ffffffffffffffff811115610d9e57610d9d610ba1565b5b610da88254610ade565b610db3828285610cef565b600060209050601f831160018114610de65760008415610dd4578287015190505b610dde8582610d60565b865550610e46565b601f198416610df486610bd0565b60005b82811015610e1c57848901518255600182019150602085019450602081019050610df7565b86831015610e395784890151610e35601f891682610d42565b8355505b6001600288020188555050505b505050505050565b600082905092915050565b610e638383610e4e565b67ffffffffffffffff811115610e7c57610e7b610ba1565b5b610e868254610ade565b610e91828285610cef565b6000601f831160018114610ec05760008415610eae578287013590505b610eb88582610d60565b865550610f20565b601f198416610ece86610bd0565b60005b82811015610ef657848901358255600182019150602085019450602081019050610ed1565b86831015610f135784890135610f0f601f891682610d42565b8355505b6001600288020188555050505b5050505050505056fea2646970667358221220c0ee525794cda4174024591d1124d112c3fe59db7d9c093939b2c1c3f2d0dd9064736f6c63430008150033",
  "linkReferences": {},
  "deployedLinkReferences": {}
}