{
  "_format": "hh-sol-artifact-1",
  "contractName": "Marketplace",
  "sourceName": "contracts/Marketplace.sol",
  "abi": [
    {
      "inputs": [
        {
          "internalType": "address",
          "name": "_nftAddress",
          "type": "address"
        },
        {
          "internalType": "uint256",
          "name": "_price",
          "type": "uint256"
        }
      ],
      "stateMutability": "nonpayable",
      "type": "constructor"
    },
    {
      "inputs": [
        {
          "internalType": "uint256",
          "name": "",
          "type": "uint256"
        }
      ],
      "name": "isListed",
      "outputs": [
        {
          "internalType": "bool",
          "name": "",
          "type": "bool"
        }
      ],
      "stateMutability": "view",
      "type": "function"
    },
    {
      "inputs": [
        {
          "internalType": "uint256",
          "name": "_nftId",
          "type": "uint256"
        }
      ],
      "name": "list",
      "outputs": [],
      "stateMutability": "nonpayable",
      "type": "function"
    },
    {
      "inputs": [],
      "name": "nftAddress",
      "outputs": [
        {
          "internalType": "address",
          "name": "",
          "type": "address"
        }
      ],
      "stateMutability": "view",
      "type": "function"
    },
    {
      "inputs": [],
      "name": "price",
      "outputs": [
        {
          "internalType": "uint256",
          "name": "",
          "type": "uint256"
        }
      ],
      "stateMutability": "view",
      "type": "function"
    },
    {
      "inputs": [
        {
          "internalType": "uint256",
          "name": "_nftId",
          "type": "uint256"
        }
      ],
      "name": "purchase",
      "outputs": [],
      "stateMutability": "payable",
      "type": "function"
    }
  ],
  "bytecode": "0x608060405234801561001057600080fd5b5060405161047d38038061047d83398101604081905261002f91610058565b600080546001600160a01b0319166001600160a01b039390931692909217909155600255610092565b6000806040838503121561006b57600080fd5b82516001600160a01b038116811461008257600080fd5b6020939093015192949293505050565b6103dc806100a16000396000f3fe60806040526004361061005a5760003560e01c8063a035b1fe11610043578063a035b1fe146100be578063efef39a1146100e2578063fcce4883146100f557600080fd5b80635bf8633a1461005f57806380c9419e1461009c575b600080fd5b34801561006b57600080fd5b5060005461007f906001600160a01b031681565b6040516001600160a01b0390911681526020015b60405180910390f35b3480156100a857600080fd5b506100bc6100b736600461038d565b610135565b005b3480156100ca57600080fd5b506100d460025481565b604051908152602001610093565b6100bc6100f036600461038d565b6101be565b34801561010157600080fd5b5061012561011036600461038d565b60016020526000908152604090205460ff1681565b6040519015158152602001610093565b6000818152600160208190526040808320805460ff1916909217909155905490516323b872dd60e01b8152336004820152306024820152604481018390526001600160a01b03909116906323b872dd906064015b600060405180830381600087803b1580156101a357600080fd5b505af11580156101b7573d6000803e3d6000fd5b5050505050565b60008181526001602052604090205460ff166102465760405162461bcd60e51b8152602060048201526024808201527f4e4654206973206e6f74206c697374656420696e20746865206d61726b65747060448201527f6c6163650000000000000000000000000000000000000000000000000000000060648201526084015b60405180910390fd5b6002543410156102be5760405162461bcd60e51b815260206004820152602160248201527f4574686572207472616e7366657272656420697320696e73756666696369656e60448201527f7400000000000000000000000000000000000000000000000000000000000000606482015260840161023d565b600081815260016020526040808220805460ff19169055905490517f095ea7b3000000000000000000000000000000000000000000000000000000008152306004820152602481018390526001600160a01b039091169063095ea7b390604401600060405180830381600087803b15801561033857600080fd5b505af115801561034c573d6000803e3d6000fd5b50506000546040516323b872dd60e01b8152306004820152336024820152604481018590526001600160a01b0390911692506323b872dd9150606401610189565b60006020828403121561039f57600080fd5b503591905056fea2646970667358221220c88a1871dcd5b4acfd27851879411bf68040e15b6248623e9353e5488bfa8d7864736f6c63430008150033",
  "linkReferences": {},
  "deployedLinkReferences": {}
}