{
  "_format": "hh-sol-artifact-1",
  "contractName": "SpeedBurn",
  "sourceName": "contracts/SpeedBurn.sol",
  "abi": [
    {
      "inputs": [
        {
          "internalType": "address",
          "name": "initialOwner",
          "type": "address"
        },
        {
          "internalType": "string[]",
          "name": "_constitution",
          "type": "string[]"
        }
      ],
      "stateMutability": "nonpayable",
      "type": "constructor"
    },
    {
      "inputs": [],
      "name": "CheckpointUnorderedInsertion",
      "type": "error"
    },
    {
      "inputs": [],
      "name": "ECDSAInvalidSignature",
      "type": "error"
    },
    {
      "inputs": [
        {
          "internalType": "uint256",
          "name": "length",
          "type": "uint256"
        }
      ],
      "name": "ECDSAInvalidSignatureLength",
      "type": "error"
    },
    {
      "inputs": [
        {
          "internalType": "bytes32",
          "name": "s",
          "type": "bytes32"
        }
      ],
      "name": "ECDSAInvalidSignatureS",
      "type": "error"
    },
    {
      "inputs": [
        {
          "internalType": "uint256",
          "name": "timepoint",
          "type": "uint256"
        },
        {
          "internalType": "uint48",
          "name": "clock",
          "type": "uint48"
        }
      ],
      "name": "ERC5805FutureLookup",
      "type": "error"
    },
    {
      "inputs": [],
      "name": "ERC6372InconsistentClock",
      "type": "error"
    },
    {
      "inputs": [],
      "name": "ERC721EnumerableForbiddenBatchMint",
      "type": "error"
    },
    {
      "inputs": [
        {
          "internalType": "address",
          "name": "sender",
          "type": "address"
        },
        {
          "internalType": "uint256",
          "name": "tokenId",
          "type": "uint256"
        },
        {
          "internalType": "address",
          "name": "owner",
          "type": "address"
        }
      ],
      "name": "ERC721IncorrectOwner",
      "type": "error"
    },
    {
      "inputs": [
        {
          "internalType": "address",
          "name": "operator",
          "type": "address"
        },
        {
          "internalType": "uint256",
          "name": "tokenId",
          "type": "uint256"
        }
      ],
      "name": "ERC721InsufficientApproval",
      "type": "error"
    },
    {
      "inputs": [
        {
          "internalType": "address",
          "name": "approver",
          "type": "address"
        }
      ],
      "name": "ERC721InvalidApprover",
      "type": "error"
    },
    {
      "inputs": [
        {
          "internalType": "address",
          "name": "operator",
          "type": "address"
        }
      ],
      "name": "ERC721InvalidOperator",
      "type": "error"
    },
    {
      "inputs": [
        {
          "internalType": "address",
          "name": "owner",
          "type": "address"
        }
      ],
      "name": "ERC721InvalidOwner",
      "type": "error"
    },
    {
      "inputs": [
        {
          "internalType": "address",
          "name": "receiver",
          "type": "address"
        }
      ],
      "name": "ERC721InvalidReceiver",
      "type": "error"
    },
    {
      "inputs": [
        {
          "internalType": "address",
          "name": "sender",
          "type": "address"
        }
      ],
      "name": "ERC721InvalidSender",
      "type": "error"
    },
    {
      "inputs": [
        {
          "internalType": "uint256",
          "name": "tokenId",
          "type": "uint256"
        }
      ],
      "name": "ERC721NonexistentToken",
      "type": "error"
    },
    {
      "inputs": [
        {
          "internalType": "address",
          "name": "owner",
          "type": "address"
        },
        {
          "internalType": "uint256",
          "name": "index",
          "type": "uint256"
        }
      ],
      "name": "ERC721OutOfBoundsIndex",
      "type": "error"
    },
    {
      "inputs": [
        {
          "internalType": "address",
          "name": "account",
          "type": "address"
        },
        {
          "internalType": "uint256",
          "name": "currentNonce",
          "type": "uint256"
        }
      ],
      "name": "InvalidAccountNonce",
      "type": "error"
    },
    {
      "inputs": [],
      "name": "InvalidShortString",
      "type": "error"
    },
    {
      "inputs": [
        {
          "internalType": "address",
          "name": "owner",
          "type": "address"
        }
      ],
      "name": "OwnableInvalidOwner",
      "type": "error"
    },
    {
      "inputs": [
        {
          "internalType": "address",
          "name": "account",
          "type": "address"
        }
      ],
      "name": "OwnableUnauthorizedAccount",
      "type": "error"
    },
    {
      "inputs": [
        {
          "internalType": "uint8",
          "name": "bits",
          "type": "uint8"
        },
        {
          "internalType": "uint256",
          "name": "value",
          "type": "uint256"
        }
      ],
      "name": "SafeCastOverflowedUintDowncast",
      "type": "error"
    },
    {
      "inputs": [
        {
          "internalType": "string",
          "name": "str",
          "type": "string"
        }
      ],
      "name": "StringTooLong",
      "type": "error"
    },
    {
      "inputs": [
        {
          "internalType": "uint256",
          "name": "expiry",
          "type": "uint256"
        }
      ],
      "name": "VotesExpiredSignature",
      "type": "error"
    },
    {
      "anonymous": false,
      "inputs": [
        {
          "indexed": true,
          "internalType": "address",
          "name": "owner",
          "type": "address"
        },
        {
          "indexed": true,
          "internalType": "address",
          "name": "approved",
          "type": "address"
        },
        {
          "indexed": true,
          "internalType": "uint256",
          "name": "tokenId",
          "type": "uint256"
        }
      ],
      "name": "Approval",
      "type": "event"
    },
    {
      "anonymous": false,
      "inputs": [
        {
          "indexed": true,
          "internalType": "address",
          "name": "owner",
          "type": "address"
        },
        {
          "indexed": true,
          "internalType": "address",
          "name": "operator",
          "type": "address"
        },
        {
          "indexed": false,
          "internalType": "bool",
          "name": "approved",
          "type": "bool"
        }
      ],
      "name": "ApprovalForAll",
      "type": "event"
    },
    {
      "anonymous": false,
      "inputs": [
        {
          "indexed": true,
          "internalType": "address",
          "name": "delegator",
          "type": "address"
        },
        {
          "indexed": true,
          "internalType": "address",
          "name": "fromDelegate",
          "type": "address"
        },
        {
          "indexed": true,
          "internalType": "address",
          "name": "toDelegate",
          "type": "address"
        }
      ],
      "name": "DelegateChanged",
      "type": "event"
    },
    {
      "anonymous": false,
      "inputs": [
        {
          "indexed": true,
          "internalType": "address",
          "name": "delegate",
          "type": "address"
        },
        {
          "indexed": false,
          "internalType": "uint256",
          "name": "previousVotes",
          "type": "uint256"
        },
        {
          "indexed": false,
          "internalType": "uint256",
          "name": "newVotes",
          "type": "uint256"
        }
      ],
      "name": "DelegateVotesChanged",
      "type": "event"
    },
    {
      "anonymous": false,
      "inputs": [],
      "name": "EIP712DomainChanged",
      "type": "event"
    },
    {
      "anonymous": false,
      "inputs": [
        {
          "indexed": true,
          "internalType": "address",
          "name": "previousOwner",
          "type": "address"
        },
        {
          "indexed": true,
          "internalType": "address",
          "name": "newOwner",
          "type": "address"
        }
      ],
      "name": "OwnershipTransferred",
      "type": "event"
    },
    {
      "anonymous": false,
      "inputs": [
        {
          "indexed": true,
          "internalType": "address",
          "name": "from",
          "type": "address"
        },
        {
          "indexed": true,
          "internalType": "address",
          "name": "to",
          "type": "address"
        },
        {
          "indexed": true,
          "internalType": "uint256",
          "name": "tokenId",
          "type": "uint256"
        }
      ],
      "name": "Transfer",
      "type": "event"
    },
    {
      "inputs": [],
      "name": "CLOCK_MODE",
      "outputs": [
        {
          "internalType": "string",
          "name": "",
          "type": "string"
        }
      ],
      "stateMutability": "view",
      "type": "function"
    },
    {
      "inputs": [
        {
          "internalType": "string",
          "name": "_amendment",
          "type": "string"
        }
      ],
      "name": "amendConstitution",
      "outputs": [],
      "stateMutability": "nonpayable",
      "type": "function"
    },
    {
      "inputs": [
        {
          "internalType": "address",
          "name": "to",
          "type": "address"
        },
        {
          "internalType": "uint256",
          "name": "tokenId",
          "type": "uint256"
        }
      ],
      "name": "approve",
      "outputs": [],
      "stateMutability": "nonpayable",
      "type": "function"
    },
    {
      "inputs": [
        {
          "internalType": "address",
          "name": "owner",
          "type": "address"
        }
      ],
      "name": "balanceOf",
      "outputs": [
        {
          "internalType": "uint256",
          "name": "",
          "type": "uint256"
        }
      ],
      "stateMutability": "view",
      "type": "function"
    },
    {
      "inputs": [],
      "name": "clock",
      "outputs": [
        {
          "internalType": "uint48",
          "name": "",
          "type": "uint48"
        }
      ],
      "stateMutability": "view",
      "type": "function"
    },
    {
      "inputs": [
        {
          "internalType": "uint256",
          "name": "",
          "type": "uint256"
        }
      ],
      "name": "constitution",
      "outputs": [
        {
          "internalType": "string",
          "name": "guideline",
          "type": "string"
        },
        {
          "internalType": "bool",
          "name": "active",
          "type": "bool"
        }
      ],
      "stateMutability": "view",
      "type": "function"
    },
    {
      "inputs": [
        {
          "internalType": "address",
          "name": "delegatee",
          "type": "address"
        }
      ],
      "name": "delegate",
      "outputs": [],
      "stateMutability": "nonpayable",
      "type": "function"
    },
    {
      "inputs": [
        {
          "internalType": "address",
          "name": "delegatee",
          "type": "address"
        },
        {
          "internalType": "uint256",
          "name": "nonce",
          "type": "uint256"
        },
        {
          "internalType": "uint256",
          "name": "expiry",
          "type": "uint256"
        },
        {
          "internalType": "uint8",
          "name": "v",
          "type": "uint8"
        },
        {
          "internalType": "bytes32",
          "name": "r",
          "type": "bytes32"
        },
        {
          "internalType": "bytes32",
          "name": "s",
          "type": "bytes32"
        }
      ],
      "name": "delegateBySig",
      "outputs": [],
      "stateMutability": "nonpayable",
      "type": "function"
    },
    {
      "inputs": [
        {
          "internalType": "address",
          "name": "account",
          "type": "address"
        }
      ],
      "name": "delegates",
      "outputs": [
        {
          "internalType": "address",
          "name": "",
          "type": "address"
        }
      ],
      "stateMutability": "view",
      "type": "function"
    },
    {
      "inputs": [],
      "name": "eip712Domain",
      "outputs": [
        {
          "internalType": "bytes1",
          "name": "fields",
          "type": "bytes1"
        },
        {
          "internalType": "string",
          "name": "name",
          "type": "string"
        },
        {
          "internalType": "string",
          "name": "version",
          "type": "string"
        },
        {
          "internalType": "uint256",
          "name": "chainId",
          "type": "uint256"
        },
        {
          "internalType": "address",
          "name": "verifyingContract",
          "type": "address"
        },
        {
          "internalType": "bytes32",
          "name": "salt",
          "type": "bytes32"
        },
        {
          "internalType": "uint256[]",
          "name": "extensions",
          "type": "uint256[]"
        }
      ],
      "stateMutability": "view",
      "type": "function"
    },
    {
      "inputs": [
        {
          "internalType": "uint256",
          "name": "tokenId",
          "type": "uint256"
        }
      ],
      "name": "getApproved",
      "outputs": [
        {
          "internalType": "address",
          "name": "",
          "type": "address"
        }
      ],
      "stateMutability": "view",
      "type": "function"
    },
    {
      "inputs": [
        {
          "internalType": "uint256",
          "name": "timepoint",
          "type": "uint256"
        }
      ],
      "name": "getPastTotalSupply",
      "outputs": [
        {
          "internalType": "uint256",
          "name": "",
          "type": "uint256"
        }
      ],
      "stateMutability": "view",
      "type": "function"
    },
    {
      "inputs": [
        {
          "internalType": "address",
          "name": "account",
          "type": "address"
        },
        {
          "internalType": "uint256",
          "name": "timepoint",
          "type": "uint256"
        }
      ],
      "name": "getPastVotes",
      "outputs": [
        {
          "internalType": "uint256",
          "name": "",
          "type": "uint256"
        }
      ],
      "stateMutability": "view",
      "type": "function"
    },
    {
      "inputs": [
        {
          "internalType": "address",
          "name": "account",
          "type": "address"
        }
      ],
      "name": "getVotes",
      "outputs": [
        {
          "internalType": "uint256",
          "name": "",
          "type": "uint256"
        }
      ],
      "stateMutability": "view",
      "type": "function"
    },
    {
      "inputs": [
        {
          "internalType": "address",
          "name": "owner",
          "type": "address"
        },
        {
          "internalType": "address",
          "name": "operator",
          "type": "address"
        }
      ],
      "name": "isApprovedForAll",
      "outputs": [
        {
          "internalType": "bool",
          "name": "",
          "type": "bool"
        }
      ],
      "stateMutability": "view",
      "type": "function"
    },
    {
      "inputs": [],
      "name": "name",
      "outputs": [
        {
          "internalType": "string",
          "name": "",
          "type": "string"
        }
      ],
      "stateMutability": "view",
      "type": "function"
    },
    {
      "inputs": [],
      "name": "nextAmendmentId",
      "outputs": [
        {
          "internalType": "uint256",
          "name": "",
          "type": "uint256"
        }
      ],
      "stateMutability": "view",
      "type": "function"
    },
    {
      "inputs": [
        {
          "internalType": "address",
          "name": "owner",
          "type": "address"
        }
      ],
      "name": "nonces",
      "outputs": [
        {
          "internalType": "uint256",
          "name": "",
          "type": "uint256"
        }
      ],
      "stateMutability": "view",
      "type": "function"
    },
    {
      "inputs": [],
      "name": "owner",
      "outputs": [
        {
          "internalType": "address",
          "name": "",
          "type": "address"
        }
      ],
      "stateMutability": "view",
      "type": "function"
    },
    {
      "inputs": [
        {
          "internalType": "uint256",
          "name": "tokenId",
          "type": "uint256"
        }
      ],
      "name": "ownerOf",
      "outputs": [
        {
          "internalType": "address",
          "name": "",
          "type": "address"
        }
      ],
      "stateMutability": "view",
      "type": "function"
    },
    {
      "inputs": [],
      "name": "renounceOwnership",
      "outputs": [],
      "stateMutability": "nonpayable",
      "type": "function"
    },
    {
      "inputs": [
        {
          "internalType": "address",
          "name": "to",
          "type": "address"
        }
      ],
      "name": "safeMint",
      "outputs": [],
      "stateMutability": "nonpayable",
      "type": "function"
    },
    {
      "inputs": [
        {
          "internalType": "address",
          "name": "from",
          "type": "address"
        },
        {
          "internalType": "address",
          "name": "to",
          "type": "address"
        },
        {
          "internalType": "uint256",
          "name": "tokenId",
          "type": "uint256"
        }
      ],
      "name": "safeTransferFrom",
      "outputs": [],
      "stateMutability": "nonpayable",
      "type": "function"
    },
    {
      "inputs": [
        {
          "internalType": "address",
          "name": "from",
          "type": "address"
        },
        {
          "internalType": "address",
          "name": "to",
          "type": "address"
        },
        {
          "internalType": "uint256",
          "name": "tokenId",
          "type": "uint256"
        },
        {
          "internalType": "bytes",
          "name": "data",
          "type": "bytes"
        }
      ],
      "name": "safeTransferFrom",
      "outputs": [],
      "stateMutability": "nonpayable",
      "type": "function"
    },
    {
      "inputs": [
        {
          "internalType": "address",
          "name": "operator",
          "type": "address"
        },
        {
          "internalType": "bool",
          "name": "approved",
          "type": "bool"
        }
      ],
      "name": "setApprovalForAll",
      "outputs": [],
      "stateMutability": "nonpayable",
      "type": "function"
    },
    {
      "inputs": [
        {
          "internalType": "address",
          "name": "_marketplaceAddress",
          "type": "address"
        }
      ],
      "name": "setMarketplaceAddress",
      "outputs": [],
      "stateMutability": "nonpayable",
      "type": "function"
    },
    {
      "inputs": [
        {
          "internalType": "bytes4",
          "name": "interfaceId",
          "type": "bytes4"
        }
      ],
      "name": "supportsInterface",
      "outputs": [
        {
          "internalType": "bool",
          "name": "",
          "type": "bool"
        }
      ],
      "stateMutability": "view",
      "type": "function"
    },
    {
      "inputs": [],
      "name": "symbol",
      "outputs": [
        {
          "internalType": "string",
          "name": "",
          "type": "string"
        }
      ],
      "stateMutability": "view",
      "type": "function"
    },
    {
      "inputs": [
        {
          "internalType": "uint256",
          "name": "index",
          "type": "uint256"
        }
      ],
      "name": "tokenByIndex",
      "outputs": [
        {
          "internalType": "uint256",
          "name": "",
          "type": "uint256"
        }
      ],
      "stateMutability": "view",
      "type": "function"
    },
    {
      "inputs": [
        {
          "internalType": "address",
          "name": "owner",
          "type": "address"
        },
        {
          "internalType": "uint256",
          "name": "index",
          "type": "uint256"
        }
      ],
      "name": "tokenOfOwnerByIndex",
      "outputs": [
        {
          "internalType": "uint256",
          "name": "",
          "type": "uint256"
        }
      ],
      "stateMutability": "view",
      "type": "function"
    },
    {
      "inputs": [
        {
          "internalType": "uint256",
          "name": "tokenId",
          "type": "uint256"
        }
      ],
      "name": "tokenURI",
      "outputs": [
        {
          "internalType": "string",
          "name": "",
          "type": "string"
        }
      ],
      "stateMutability": "view",
      "type": "function"
    },
    {
      "inputs": [],
      "name": "totalSupply",
      "outputs": [
        {
          "internalType": "uint256",
          "name": "",
          "type": "uint256"
        }
      ],
      "stateMutability": "view",
      "type": "function"
    },
    {
      "inputs": [
        {
          "internalType": "address",
          "name": "from",
          "type": "address"
        },
        {
          "internalType": "address",
          "name": "to",
          "type": "address"
        },
        {
          "internalType": "uint256",
          "name": "tokenId",
          "type": "uint256"
        }
      ],
      "name": "transferFrom",
      "outputs": [],
      "stateMutability": "nonpayable",
      "type": "function"
    },
    {
      "inputs": [
        {
          "internalType": "address",
          "name": "newOwner",
          "type": "address"
        }
      ],
      "name": "transferOwnership",
      "outputs": [],
      "stateMutability": "nonpayable",
      "type": "function"
    }
  ],
  "bytecode": "0x6101606040523480156200001257600080fd5b50604051620035fb380380620035fb8339810160408190526200003591620003c9565b6040518060400160405280600981526020016829b832b2b2213ab93760b91b815250604051806040016040528060018152602001603160f81b815250836040518060400160405280600981526020016829b832b2b2213ab93760b91b8152506040518060400160405280600481526020016329a1292760e11b8152508160009081620000c29190620005a5565b506001620000d18282620005a5565b5050506001600160a01b0381166200010457604051631e4fbdf760e01b8152600060048201526024015b60405180910390fd5b6200010f816200021b565b506200011d82600b6200026d565b610120526200012e81600c6200026d565b61014052815160208084019190912060e052815190820120610100524660a052620001bc60e05161010051604080517f8b73c3c69bb8fe3d512ecc4cf759cc79239f7b179b0ffacaa9a75d522b39400f60208201529081019290925260608201524660808201523060a082015260009060c00160405160208183030381529060405280519060200120905090565b60805250503060c05260005b81518110156200021257620001ff828281518110620001eb57620001eb62000671565b6020026020010151620002a660201b60201c565b6200020a8162000687565b9050620001c8565b50505062000709565b600a80546001600160a01b038381166001600160a01b0319831681179093556040519116919082907f8be0079c531659141344cd1fd0a4f28419497f9722a3daafe3b4186f6b6457e090600090a35050565b60006020835110156200028d57620002858362000317565b9050620002a0565b816200029a8482620005a5565b5060ff90505b92915050565b6014805460009182620002b98362000687565b9091555060408051808201825284815260016020808301919091526000848152601390915291909120815192935090918190620002f79082620005a5565b50602091909101516001909101805460ff19169115159190911790555050565b600080829050601f8151111562000345578260405163305a27a960e01b8152600401620000fb9190620006af565b80516200035282620006e4565b179392505050565b634e487b7160e01b600052604160045260246000fd5b604051601f8201601f191681016001600160401b03811182821017156200039b576200039b6200035a565b604052919050565b60005b83811015620003c0578181015183820152602001620003a6565b50506000910152565b6000806040808486031215620003de57600080fd5b83516001600160a01b0381168114620003f657600080fd5b602085810151919450906001600160401b03808211156200041657600080fd5b8187019150601f88818401126200042c57600080fd5b8251828111156200044157620004416200035a565b8060051b6200045286820162000370565b918252848101860191868101908c8411156200046d57600080fd5b87870192505b8383101562000503578251868111156200048d5760008081fd5b8701603f81018e13620004a05760008081fd5b8881015187811115620004b757620004b76200035a565b620004ca818801601f19168b0162000370565b8181528f8c838501011115620004e05760008081fd5b620004f1828c83018e8601620003a3565b84525050918701919087019062000473565b8099505050505050505050509250929050565b600181811c908216806200052b57607f821691505b6020821081036200054c57634e487b7160e01b600052602260045260246000fd5b50919050565b601f821115620005a057600081815260208120601f850160051c810160208610156200057b5750805b601f850160051c820191505b818110156200059c5782815560010162000587565b5050505b505050565b81516001600160401b03811115620005c157620005c16200035a565b620005d981620005d2845462000516565b8462000552565b602080601f831160018114620006115760008415620005f85750858301515b600019600386901b1c1916600185901b1785556200059c565b600085815260208120601f198616915b82811015620006425788860151825594840194600190910190840162000621565b5085821015620006615787850151600019600388901b60f8161c191681555b5050505050600190811b01905550565b634e487b7160e01b600052603260045260246000fd5b600060018201620006a857634e487b7160e01b600052601160045260246000fd5b5060010190565b6020815260008251806020840152620006d0816040850160208701620003a3565b601f01601f19169190910160400192915050565b805160208083015191908110156200054c5760001960209190910360031b1b16919050565b60805160a05160c05160e051610100516101205161014051612e976200076460003960006110db015260006110ae01526000611b5f01526000611b3701526000611a9201526000611abc01526000611ae60152612e976000f3fe608060405234801561001057600080fd5b50600436106102265760003560e01c8063715018a61161012a5780639ab24eb0116100bd578063b88d4fde1161008c578063c87b56dd11610071578063c87b56dd146104cc578063e985e9c5146104df578063f2fde38b1461051b57600080fd5b8063b88d4fde146104a6578063c3cda520146104b957600080fd5b80639ab24eb014610464578063a22cb46514610477578063ae9b6c1f1461048a578063b47cc5561461049357600080fd5b80638da5cb5b116100f95780638da5cb5b146104195780638e539e8c1461042a57806391ddadf41461043d57806395d89b411461045c57600080fd5b8063715018a6146103ba5780637ecebe00146103c257806384b0196e146103eb57806388cda9101461040657600080fd5b80633f73d887116101bd5780634f6ccce71161018c5780635c19a95c116101715780635c19a95c146103815780636352211e1461039457806370a08231146103a757600080fd5b80634f6ccce714610342578063587cde1e1461035557600080fd5b80633f73d887146102f357806340d097c31461031457806342842e0e146103275780634bf5d7e91461033a57600080fd5b806318160ddd116101f957806318160ddd146102a857806323b872dd146102ba5780632f745c59146102cd5780633a46b1a8146102e057600080fd5b806301ffc9a71461022b57806306fdde0314610253578063081812fc14610268578063095ea7b314610293575b600080fd5b61023e61023936600461273c565b61052e565b60405190151581526020015b60405180910390f35b61025b61053f565b60405161024a91906127a9565b61027b6102763660046127bc565b6105d1565b6040516001600160a01b03909116815260200161024a565b6102a66102a13660046127f1565b6105fa565b005b6008545b60405190815260200161024a565b6102a66102c836600461281b565b610609565b6102ac6102db3660046127f1565b610755565b6102ac6102ee3660046127f1565b6107ba565b6103066103013660046127bc565b61083b565b60405161024a929190612857565b6102a661032236600461287b565b6108e2565b6102a661033536600461281b565b61090b565b61025b61092b565b6102ac6103503660046127bc565b6109bc565b61027b61036336600461287b565b6001600160a01b039081166000908152600e60205260409020541690565b6102a661038f36600461287b565b610a15565b61027b6103a23660046127bc565b610a20565b6102ac6103b536600461287b565b610a2b565b6102a6610a8c565b6102ac6103d036600461287b565b6001600160a01b03166000908152600d602052604090205490565b6103f3610aa0565b60405161024a9796959493929190612896565b6102a6610414366004612948565b610b02565b600a546001600160a01b031661027b565b6102ac6104383660046127bc565b610b49565b610445610bb3565b60405165ffffffffffff909116815260200161024a565b61025b610bc2565b6102ac61047236600461287b565b610bd1565b6102a66104853660046129ba565b610c01565b6102ac60145481565b6102a66104a136600461287b565b610c0c565b6102a66104b4366004612a0c565b610c36565b6102a66104c7366004612ae8565b610c4d565b61025b6104da3660046127bc565b610d23565b61023e6104ed366004612b48565b6001600160a01b03918216600090815260056020908152604080832093909416825291909152205460ff1690565b6102a661052936600461287b565b610d98565b600061053982610def565b92915050565b60606000805461054e90612b7b565b80601f016020809104026020016040519081016040528092919081815260200182805461057a90612b7b565b80156105c75780601f1061059c576101008083540402835291602001916105c7565b820191906000526020600020905b8154815290600101906020018083116105aa57829003601f168201915b5050505050905090565b60006105dc82610e2d565b506000828152600460205260409020546001600160a01b0316610539565b610605828233610e66565b5050565b6001600160a01b03821661063857604051633250574960e11b8152600060048201526024015b60405180910390fd5b600061064383610a2b565b11158061065d5750600a546001600160a01b038481169116145b8061067557506012546001600160a01b038381169116145b6106db576040517f08c379a000000000000000000000000000000000000000000000000000000000815260206004820181905260248201527f4164647265737320616c7265616479206f776e73206163636f756e74204e4654604482015260640161062f565b60006106e8838333610e73565b9050836001600160a01b0316816001600160a01b03161461074f576040517f64283d7b0000000000000000000000000000000000000000000000000000000081526001600160a01b038086166004830152602482018490528216604482015260640161062f565b50505050565b600061076083610a2b565b82106107915760405163295f44f760e21b81526001600160a01b03841660048201526024810183905260440161062f565b506001600160a01b03919091166000908152600660209081526040808320938352929052205490565b6000806107c5610bb3565b90508065ffffffffffff16831061080057604051637669fc0f60e11b81526004810184905265ffffffffffff8216602482015260440161062f565b61082a61080c84610e88565b6001600160a01b0386166000908152600f6020526040902090610ebf565b6001600160d01b0316949350505050565b60136020526000908152604090208054819061085690612b7b565b80601f016020809104026020016040519081016040528092919081815260200182805461088290612b7b565b80156108cf5780601f106108a4576101008083540402835291602001916108cf565b820191906000526020600020905b8154815290600101906020018083116108b257829003601f168201915b5050506001909301549192505060ff1682565b6108ea610f78565b60118054600091826108fb83612bcb565b9190505590506106058282610fbe565b61092683838360405180602001604052806000815250610c36565b505050565b6060610935610fd8565b65ffffffffffff16610945610bb3565b65ffffffffffff1614610984576040517f6ff0714000000000000000000000000000000000000000000000000000000000815260040160405180910390fd5b5060408051808201909152601d81527f6d6f64653d626c6f636b6e756d6265722666726f6d3d64656661756c74000000602082015290565b60006109c760085490565b82106109f05760405163295f44f760e21b8152600060048201526024810183905260440161062f565b60088281548110610a0357610a03612be4565b90600052602060002001549050919050565b336106058183610fe3565b600061053982610e2d565b60006001600160a01b038216610a70576040517f89c62b640000000000000000000000000000000000000000000000000000000081526000600482015260240161062f565b506001600160a01b031660009081526003602052604090205490565b610a94610f78565b610a9e6000611055565b565b600060608060008060006060610ab46110a7565b610abc6110d4565b604080516000808252602082019092527f0f000000000000000000000000000000000000000000000000000000000000009b939a50919850469750309650945092509050565b610b0a610f78565b61060582828080601f01602080910402602001604051908101604052809392919081815260200183838082843760009201919091525061110192505050565b600080610b54610bb3565b90508065ffffffffffff168310610b8f57604051637669fc0f60e11b81526004810184905265ffffffffffff8216602482015260440161062f565b610ba3610b9b84610e88565b601090610ebf565b6001600160d01b03169392505050565b6000610bbd610fd8565b905090565b60606001805461054e90612b7b565b6001600160a01b0381166000908152600f60205260408120610bf29061116e565b6001600160d01b031692915050565b6106053383836111aa565b610c14610f78565b601280546001600160a01b0319166001600160a01b0392909216919091179055565b610c41848484610609565b61074f84848484611262565b83421115610c8a576040517f4683af0e0000000000000000000000000000000000000000000000000000000081526004810185905260240161062f565b604080517fe48329057bfd03d55e49b547132e39cffd9c1820ad7b9d4c5307691425d15adf60208201526001600160a01b038816918101919091526060810186905260808101859052600090610d0490610cfc9060a0016040516020818303038152906040528051906020012061138b565b8585856113d3565b9050610d108187611401565b610d1a8188610fe3565b50505050505050565b6060610d2e82610e2d565b506000610d4660408051602081019091526000815290565b90506000815111610d665760405180602001604052806000815250610d91565b80610d708461146d565b604051602001610d81929190612bfa565b6040516020818303038152906040525b9392505050565b610da0610f78565b6001600160a01b038116610de3576040517f1e4fbdf70000000000000000000000000000000000000000000000000000000081526000600482015260240161062f565b610dec81611055565b50565b60006001600160e01b031982167f780e9d6300000000000000000000000000000000000000000000000000000000148061053957506105398261150d565b6000818152600260205260408120546001600160a01b03168061053957604051637e27328960e01b81526004810184905260240161062f565b61092683838360016115a8565b6000610e808484846116e6565b949350505050565b600065ffffffffffff821115610ebb576040516306dfcc6560e41b8152603060048201526024810183905260440161062f565b5090565b815460009081816005811115610f1e576000610eda84611702565b610ee49085612c29565b60008881526020902090915081015465ffffffffffff9081169087161015610f0e57809150610f1c565b610f19816001612c3c565b92505b505b6000610f2c878785856117ea565b90508015610f6a57610f5187610f43600184612c29565b600091825260209091200190565b54660100000000000090046001600160d01b0316610f6d565b60005b979650505050505050565b600a546001600160a01b03163314610a9e576040517f118cdaa700000000000000000000000000000000000000000000000000000000815233600482015260240161062f565b61060582826040518060200160405280600081525061184c565b6000610bbd43610e88565b6001600160a01b038281166000818152600e602052604080822080548686166001600160a01b0319821681179092559151919094169392849290917f3134e8a2e6d97e929a7e54011ea5485d7d196dd5f0ba4d4ef95803e8e3fc257f9190a4610926818361105086611863565b61186e565b600a80546001600160a01b038381166001600160a01b0319831681179093556040519116919082907f8be0079c531659141344cd1fd0a4f28419497f9722a3daafe3b4186f6b6457e090600090a35050565b6060610bbd7f0000000000000000000000000000000000000000000000000000000000000000600b6119da565b6060610bbd7f0000000000000000000000000000000000000000000000000000000000000000600c6119da565b601480546000918261111283612bcb565b909155506040805180820182528481526001602080830191909152600084815260139091529190912081519293509091819061114e9082612c9d565b50602091909101516001909101805460ff19169115159190911790555050565b805460009080156111a15761118883610f43600184612c29565b54660100000000000090046001600160d01b0316610d91565b60009392505050565b6001600160a01b0382166111f5576040517f5b08ba180000000000000000000000000000000000000000000000000000000081526001600160a01b038316600482015260240161062f565b6001600160a01b03838116600081815260056020908152604080832094871680845294825291829020805460ff191686151590811790915591519182527f17307eab39ab6107e8899845ad3d59bd9653f200f220920489ca2b5937696c31910160405180910390a3505050565b6001600160a01b0383163b1561074f57604051630a85bd0160e11b81526001600160a01b0384169063150b7a02906112a4903390889087908790600401612d5d565b6020604051808303816000875af19250505080156112df575060408051601f3d908101601f191682019092526112dc91810190612d99565b60015b611348573d80801561130d576040519150601f19603f3d011682016040523d82523d6000602084013e611312565b606091505b50805160000361134057604051633250574960e11b81526001600160a01b038516600482015260240161062f565b805181602001fd5b6001600160e01b03198116630a85bd0160e11b1461138457604051633250574960e11b81526001600160a01b038516600482015260240161062f565b5050505050565b6000610539611398611a85565b836040517f19010000000000000000000000000000000000000000000000000000000000008152600281019290925260228201526042902090565b6000806000806113e588888888611bb0565b9250925092506113f58282611c7f565b50909695505050505050565b6001600160a01b0382166000908152600d60205260409020805460018101909155818114610926576040517f752d88c00000000000000000000000000000000000000000000000000000000081526001600160a01b03841660048201526024810182905260440161062f565b6060600061147a83611d83565b600101905060008167ffffffffffffffff81111561149a5761149a6129f6565b6040519080825280601f01601f1916602001820160405280156114c4576020820181803683370190505b5090508181016020015b600019017f3031323334353637383961626364656600000000000000000000000000000000600a86061a8153600a85049450846114ce57509392505050565b60006001600160e01b031982167f80ac58cd00000000000000000000000000000000000000000000000000000000148061157057506001600160e01b031982167f5b5e139f00000000000000000000000000000000000000000000000000000000145b8061053957507f01ffc9a7000000000000000000000000000000000000000000000000000000006001600160e01b0319831614610539565b80806115bc57506001600160a01b03821615155b156116b65760006115cc84610e2d565b90506001600160a01b038316158015906115f85750826001600160a01b0316816001600160a01b031614155b801561162a57506001600160a01b0380821660009081526005602090815260408083209387168352929052205460ff16155b1561166c576040517fa9fbf51f0000000000000000000000000000000000000000000000000000000081526001600160a01b038416600482015260240161062f565b81156116b45783856001600160a01b0316826001600160a01b03167f8c5be1e5ebec7d5bd14f71427d1e84f3dd0314c0f7b2291e5b200ac8c7c3b92560405160405180910390a45b505b5050600090815260046020526040902080546001600160a01b0319166001600160a01b0392909216919091179055565b6000806116f4858585611e65565b9050610e8081866001611f32565b60008160000361171457506000919050565b6000600161172184611fa8565b901c6001901b9050600181848161173a5761173a612db6565b048201901c9050600181848161175257611752612db6565b048201901c9050600181848161176a5761176a612db6565b048201901c9050600181848161178257611782612db6565b048201901c9050600181848161179a5761179a612db6565b048201901c905060018184816117b2576117b2612db6565b048201901c905060018184816117ca576117ca612db6565b048201901c9050610d91818285816117e4576117e4612db6565b0461203c565b60005b818310156118445760006118018484612052565b60008781526020902090915065ffffffffffff86169082015465ffffffffffff1611156118305780925061183e565b61183b816001612c3c565b93505b506117ed565b509392505050565b611856838361206d565b6109266000848484611262565b600061053982610a2b565b816001600160a01b0316836001600160a01b0316141580156118905750600081115b15610926576001600160a01b03831615611938576001600160a01b0383166000908152600f6020526040812081906118d3906120eb6118ce866120f7565b61212b565b6001600160d01b031691506001600160d01b03169150846001600160a01b03167fdec2bacdd2f05b59de34da9b523dff8be42e5e38e818c82fdb0bae774387a724838360405161192d929190918252602082015260400190565b60405180910390a250505b6001600160a01b03821615610926576001600160a01b0382166000908152600f602052604081208190611971906121646118ce866120f7565b6001600160d01b031691506001600160d01b03169150836001600160a01b03167fdec2bacdd2f05b59de34da9b523dff8be42e5e38e818c82fdb0bae774387a72483836040516119cb929190918252602082015260400190565b60405180910390a25050505050565b606060ff83146119f4576119ed83612170565b9050610539565b818054611a0090612b7b565b80601f0160208091040260200160405190810160405280929190818152602001828054611a2c90612b7b565b8015611a795780601f10611a4e57610100808354040283529160200191611a79565b820191906000526020600020905b815481529060010190602001808311611a5c57829003601f168201915b50505050509050610539565b6000306001600160a01b037f000000000000000000000000000000000000000000000000000000000000000016148015611ade57507f000000000000000000000000000000000000000000000000000000000000000046145b15611b0857507f000000000000000000000000000000000000000000000000000000000000000090565b610bbd604080517f8b73c3c69bb8fe3d512ecc4cf759cc79239f7b179b0ffacaa9a75d522b39400f60208201527f0000000000000000000000000000000000000000000000000000000000000000918101919091527f000000000000000000000000000000000000000000000000000000000000000060608201524660808201523060a082015260009060c00160405160208183030381529060405280519060200120905090565b600080807f7fffffffffffffffffffffffffffffff5d576e7357a4501ddfe92f46681b20a0841115611beb5750600091506003905082611c75565b604080516000808252602082018084528a905260ff891692820192909252606081018790526080810186905260019060a0016020604051602081039080840390855afa158015611c3f573d6000803e3d6000fd5b5050604051601f1901519150506001600160a01b038116611c6b57506000925060019150829050611c75565b9250600091508190505b9450945094915050565b6000826003811115611c9357611c93612dcc565b03611c9c575050565b6001826003811115611cb057611cb0612dcc565b03611ce7576040517ff645eedf00000000000000000000000000000000000000000000000000000000815260040160405180910390fd5b6002826003811115611cfb57611cfb612dcc565b03611d35576040517ffce698f70000000000000000000000000000000000000000000000000000000081526004810182905260240161062f565b6003826003811115611d4957611d49612dcc565b03610605576040517fd78bce0c0000000000000000000000000000000000000000000000000000000081526004810182905260240161062f565b6000807a184f03e93ff9f4daa797ed6e38ed64bf6a1f0100000000000000008310611dcc577a184f03e93ff9f4daa797ed6e38ed64bf6a1f010000000000000000830492506040015b6d04ee2d6d415b85acef81000000008310611df8576d04ee2d6d415b85acef8100000000830492506020015b662386f26fc100008310611e1657662386f26fc10000830492506010015b6305f5e1008310611e2e576305f5e100830492506008015b6127108310611e4257612710830492506004015b60648310611e54576064830492506002015b600a83106105395760010192915050565b600080611e738585856121af565b90506001600160a01b038116611ed057611ecb84600880546000838152600960205260408120829055600182018355919091527ff3f7a9fe364faab93b216da50a3214154f22a0a2b415b23a84c8169e8b636ee30155565b611ef3565b846001600160a01b0316816001600160a01b031614611ef357611ef381856122a8565b6001600160a01b038516611f0f57611f0a84612339565b610e80565b846001600160a01b0316816001600160a01b031614610e8057610e8085856123e8565b6001600160a01b038316611f5457611f5160106121646118ce846120f7565b50505b6001600160a01b038216611f7657611f7360106120eb6118ce846120f7565b50505b6001600160a01b038381166000908152600e60205260408082205485841683529120546109269291821691168361186e565b600080608083901c15611fbd57608092831c92015b604083901c15611fcf57604092831c92015b602083901c15611fe157602092831c92015b601083901c15611ff357601092831c92015b600883901c1561200557600892831c92015b600483901c1561201757600492831c92015b600283901c1561202957600292831c92015b600183901c156105395760010192915050565b600081831061204b5781610d91565b5090919050565b60006120616002848418612de2565b610d9190848416612c3c565b6001600160a01b03821661209757604051633250574960e11b81526000600482015260240161062f565b60006120a583836000610e73565b90506001600160a01b03811615610926576040517f73c6ac6e0000000000000000000000000000000000000000000000000000000081526000600482015260240161062f565b6000610d918284612e04565b60006001600160d01b03821115610ebb576040516306dfcc6560e41b815260d060048201526024810183905260440161062f565b600080612157612139610bb3565b61214f6121458861116e565b868863ffffffff16565b879190612438565b915091505b935093915050565b6000610d918284612e2b565b6060600061217d83612446565b604080516020808252818301909252919250600091906020820181803683375050509182525060208101929092525090565b6000828152600260205260408120546001600160a01b03908116908316156121dc576121dc818486612487565b6001600160a01b0381161561221a576121f96000856000806115a8565b6001600160a01b038116600090815260036020526040902080546000190190555b6001600160a01b03851615612249576001600160a01b0385166000908152600360205260409020805460010190555b60008481526002602052604080822080546001600160a01b0319166001600160a01b0389811691821790925591518793918516917fddf252ad1be2c89b69c2b068fc378daa952ba7f163c4a11628f55a4df523b3ef91a4949350505050565b60006122b383610a2b565b600083815260076020526040902054909150808214612306576001600160a01b03841660009081526006602090815260408083208584528252808320548484528184208190558352600790915290208190555b5060009182526007602090815260408084208490556001600160a01b039094168352600681528383209183525290812055565b60085460009061234b90600190612c29565b6000838152600960205260408120546008805493945090928490811061237357612373612be4565b90600052602060002001549050806008838154811061239457612394612be4565b60009182526020808320909101929092558281526009909152604080822084905585825281205560088054806123cc576123cc612e4b565b6001900381819060005260206000200160009055905550505050565b600060016123f584610a2b565b6123ff9190612c29565b6001600160a01b039093166000908152600660209081526040808320868452825280832085905593825260079052919091209190915550565b600080612157858585612504565b600060ff8216601f811115610539576040517fb3512b0c00000000000000000000000000000000000000000000000000000000815260040160405180910390fd5b6124928383836126a3565b610926576001600160a01b0383166124c057604051637e27328960e01b81526004810182905260240161062f565b6040517f177e802f0000000000000000000000000000000000000000000000000000000081526001600160a01b03831660048201526024810182905260440161062f565b82546000908190801561264557600061252287610f43600185612c29565b60408051808201909152905465ffffffffffff80821680845266010000000000009092046001600160d01b031660208401529192509087161015612592576040517f2520601d00000000000000000000000000000000000000000000000000000000815260040160405180910390fd5b805165ffffffffffff8088169116036125e157846125b588610f43600186612c29565b80546001600160d01b039290921666010000000000000265ffffffffffff909216919091179055612635565b6040805180820190915265ffffffffffff80881682526001600160d01b0380881660208085019182528b54600181018d5560008d815291909120945191519092166601000000000000029216919091179101555b60200151925083915061215c9050565b50506040805180820190915265ffffffffffff80851682526001600160d01b0380851660208085019182528854600181018a5560008a815291822095519251909316660100000000000002919093161792019190915590508161215c565b60006001600160a01b03831615801590610e805750826001600160a01b0316846001600160a01b031614806126fd57506001600160a01b0380851660009081526005602090815260408083209387168352929052205460ff165b80610e805750506000908152600460205260409020546001600160a01b03908116911614919050565b6001600160e01b031981168114610dec57600080fd5b60006020828403121561274e57600080fd5b8135610d9181612726565b60005b8381101561277457818101518382015260200161275c565b50506000910152565b60008151808452612795816020860160208601612759565b601f01601f19169290920160200192915050565b602081526000610d91602083018461277d565b6000602082840312156127ce57600080fd5b5035919050565b80356001600160a01b03811681146127ec57600080fd5b919050565b6000806040838503121561280457600080fd5b61280d836127d5565b946020939093013593505050565b60008060006060848603121561283057600080fd5b612839846127d5565b9250612847602085016127d5565b9150604084013590509250925092565b60408152600061286a604083018561277d565b905082151560208301529392505050565b60006020828403121561288d57600080fd5b610d91826127d5565b7fff00000000000000000000000000000000000000000000000000000000000000881681526000602060e0818401526128d260e084018a61277d565b83810360408501526128e4818a61277d565b606085018990526001600160a01b038816608086015260a0850187905284810360c0860152855180825283870192509083019060005b818110156129365783518352928401929184019160010161291a565b50909c9b505050505050505050505050565b6000806020838503121561295b57600080fd5b823567ffffffffffffffff8082111561297357600080fd5b818501915085601f83011261298757600080fd5b81358181111561299657600080fd5b8660208285010111156129a857600080fd5b60209290920196919550909350505050565b600080604083850312156129cd57600080fd5b6129d6836127d5565b9150602083013580151581146129eb57600080fd5b809150509250929050565b634e487b7160e01b600052604160045260246000fd5b60008060008060808587031215612a2257600080fd5b612a2b856127d5565b9350612a39602086016127d5565b925060408501359150606085013567ffffffffffffffff80821115612a5d57600080fd5b818701915087601f830112612a7157600080fd5b813581811115612a8357612a836129f6565b604051601f8201601f19908116603f01168101908382118183101715612aab57612aab6129f6565b816040528281528a6020848701011115612ac457600080fd5b82602086016020830137600060208483010152809550505050505092959194509250565b60008060008060008060c08789031215612b0157600080fd5b612b0a876127d5565b95506020870135945060408701359350606087013560ff81168114612b2e57600080fd5b9598949750929560808101359460a0909101359350915050565b60008060408385031215612b5b57600080fd5b612b64836127d5565b9150612b72602084016127d5565b90509250929050565b600181811c90821680612b8f57607f821691505b602082108103612baf57634e487b7160e01b600052602260045260246000fd5b50919050565b634e487b7160e01b600052601160045260246000fd5b600060018201612bdd57612bdd612bb5565b5060010190565b634e487b7160e01b600052603260045260246000fd5b60008351612c0c818460208801612759565b835190830190612c20818360208801612759565b01949350505050565b8181038181111561053957610539612bb5565b8082018082111561053957610539612bb5565b601f82111561092657600081815260208120601f850160051c81016020861015612c765750805b601f850160051c820191505b81811015612c9557828155600101612c82565b505050505050565b815167ffffffffffffffff811115612cb757612cb76129f6565b612ccb81612cc58454612b7b565b84612c4f565b602080601f831160018114612d005760008415612ce85750858301515b600019600386901b1c1916600185901b178555612c95565b600085815260208120601f198616915b82811015612d2f57888601518255948401946001909101908401612d10565b5085821015612d4d5787850151600019600388901b60f8161c191681555b5050505050600190811b01905550565b60006001600160a01b03808716835280861660208401525083604083015260806060830152612d8f608083018461277d565b9695505050505050565b600060208284031215612dab57600080fd5b8151610d9181612726565b634e487b7160e01b600052601260045260246000fd5b634e487b7160e01b600052602160045260246000fd5b600082612dff57634e487b7160e01b600052601260045260246000fd5b500490565b6001600160d01b03828116828216039080821115612e2457612e24612bb5565b5092915050565b6001600160d01b03818116838216019080821115612e2457612e24612bb5565b634e487b7160e01b600052603160045260246000fdfea2646970667358221220c5c992ceba13266e82e238331ccb58c2e998117328fe0b46ace7ac5dac1c398164736f6c63430008150033",
  "linkReferences": {},
  "deployedLinkReferences": {}
}